:02000002D0002C
:1040000000400D0090A00D00000006000C0005010E
:084010000401BD0B00000000DB
:04401800A08B0D006C
:10401C0009480A49884208B505D0094A824202D0AB
:10402C00121A04F0CBFC0748074A0021121A04F0BC
:10403C00D3FC014808BD00BF30E40320F49F0D0001
:10404C00A4E40320A4E40320F0E7032070B5074E9A
:10405C00074C03F095FCA41BA4080025A54200D135
:10406C0070BD56F8043B98470135F7E7C89F0D0023
:10407C00EC9F0D0000F0C8BD08B500F0C7FEBDE810
:10408C00084003F03FBC03F0D5B803F0D3B803F0FD
:10409C00D9B803F0D7B8000008B5034A00210C20AA
:1040AC0003F014F8FEE700BFA96D0D000078B0FA1C
:1040BC0080F04009704701230370704710B5074C1E
:1040CC0004F1200003F017FA04F1100003F013FAC6
:1040DC002046BDE8104003F00EBA00BF18E50320DF
:1040EC0037B504460846019104F0B4FC6368A26835
:1040FC00451CE818904208D8206801992A461844B3
:10410C0004F05CFC60682844606003B030BD0000C3
:10411C0038B584690A4B036005467CB16368013B82
:10412C0063605BB9236820469B689847A368013B92
:10413C00A3601BB923682046DB689847284638BD26
:10414C00149D0D0008B502F031FE034B1860BDE85C
:10415C00084003F057B800BFD4E7032003682BB125
:10416C004268934202D2184604F012BC00207047F9
:10417C0038B50568044645B143689D4205D22846CA
:10418C0004F068FC013005442560204638BD000071
:10419C0038B504460B46D0E901012568044A091AD2
:1041AC00284403F05FF8636801300344636038BD52
:1041BC00B48B0D0038B504460B46D0E901012568D7
:1041CC00044A091A284403F04DF86368013003448B
:1041DC00636038BDB78B0D0038B5124C124D2046BC
:1041EC0002F05AFA2046012101F047FB00224FF061
:1041FC000113C4E904230D4B2046196803F0B1FAEE
:10420C002968204603F0ADFA2969204603F0A9FA83
:10421C00296A204603F0A5FA2046BDE8384002F092
:10422C00A7BC00BFB4E5032018E5032034E6032047
:10423C00024B02681968024801F0E7BE08E503204A
:10424C0048E5032000B51B4B1B788DB073B3096890
:10425C00684603F09BF9184908A803F0BAF9174906
:10426C0008A803F0F6F9694603F0E7F9014604A83B
:10427C0003F0AFF908A803F03EF904A908A803F06D
:10428C00A8F908A8FFF7D4FF08A803F034F90C4BE1
:10429C000C481B68013B694600EB031003F08AF9DC
:1042AC0004A803F028F9684603F025F90DB05DF871
:1042BC0004FB00BF30E4032024E60320BB8B0D007D
:1042CC0034E4032018E50320F8B505460C461646E1
:1042DC004AB90368C9B29B6898470746284603F059
:1042EC0034FA3844F8BD00290CDA0A2A0AD12D21F7
:1042FC0003F028FA61420746F2B2284603F03BFA73
:10430C000744EBE721460027F6E7000038B5174CC9
:10431C00174D204602F0C0F92046012101F0ADFAFC
:10432C004FF00113002213492046C4E9042303F083
:10433C0005FA29680A222046FFF7C6FF0E492046D7
:10434C0003F0FCF969680A222046FFF7BDFF0B4910
:10435C00204603F0F3F9A96820460A22FFF7B4FFC0
:10436C002046BDE8384002F003BC00BFB4E5032092
:10437C00A8E50320BD8B0D00C88B0D00D38B0D0061
:10438C002DE9F04702F1080323F0070384B000AFD6
:10439C00ADEB030D1546684604F010FB4FF0000A18
:1043AC00694638460DF805A003F0F0F85049DFF8DF
:1043BC006C81504C504E384603F060F9E946B8B168
:1043CC0088F800A0D4E900131943A368194365D1F8
:1043DC000E2004F05BF93378002B00F08580FFF79A
:1043EC00FBFE384603F087F81037BD46BDE8F08772
:1043FC004249384603F042F918B1012388F80030DD
:10440C00E0E798F80030002BDCD0012D12D99DF894
:10441C000030312B04D13A48694603F0E5F8D1E776
:10442C00322B02D137486946F7E7332B17D1364880
:10443C006946F2E713D19DF80030312B03D1236884
:10444C0001332360BEE7322B03D163680133636011
:10445C00B8E7332B03D1A3680133A360B2E7274934
:10446C00384603F00BF905460028C6D149462748C3
:10447C0003F0BAF826492248A560C4E9005503F0B8
:10448C00B3F823491F4803F0AFF821491E4803F045
:10449C00ABF8012333701F4B1D7093E71E4B1A684A
:1044AC000323911C91FBF3F000EB4000091A54F824
:1044BC002150511C91FBF3F092FBF3F303EB4303FC
:1044CC00D31A00EB400054F82330091A9D4254F8DB
:1044DC00211005DB8D4201DBFF2179E75A2177E7BB
:1044EC008D42FBDA012173E7FFF710FF79E700BF7C
:1044FC00E08B0D00A8E5032038E40320DE8B0D00D3
:10450C0018E5032028E5032038E5032034E60320D2
:10451C00C78B0D0004E5032034E4032030E40320B2
:10452C0008B500234377006803F054FEBDE808404B
:10453C0002F0BEBB2DE9F04301EB02098FB04945F7
:10454C00CDE9051980460D46164680F0928005A8E7
:10455C000F88FFF70DFE0368994540F28A8005A885
:10456C00FFF7FCFD47F276239F42C4B200F0A9800E
:10457C0027D847F261239F427ED047F264239F42A3
:10458C0042D046F670539F4228D1634E634FDFF8FA
:10459C00A081059B99456CD905A8FFF7DFFDC4B236
:1045AC0005A8FFF7E5FD059D3146284604F040FAC5
:1045BC000146E0B9204604F015F805A8FFF7D8FD30
:1045CC00E7E747F264739F423FD047F276739F420E
:1045DC0000F0878047F261739F425FD00023CDE9E2
:1045EC00013302220092B8F81A20194629E0394604
:1045FC00284604F01DFA28B14146284604F018FA62
:10460C000028DAD10121D5E70AAB4549079307A861
:10461C0010230025CDE90853FFF762FD07A82146BA
:10462C00FFF7B6FD204604F007F8014607A8FFF790
:10463C00C1FD089BCDE90155013B0093079B2A4620
:10464C001421404600F022FB13E005A8FFF790FD73
:10465C00036899450DD9A4B20121204603F0C2FF8D
:10466C0005A8FFF77BFD011E18BF0121204603F0B2
:10467C00CAFF0FB0BDE8F0830AAB079307A810235D
:10468C0028490025CDE90853FFF72AFD07A8214644
:10469C00FFF77EFD204603F0E2FFC6E705A8FFF713
:1046AC0067FD03689945E4D9A4B20121204603F0C3
:1046BC0099FF05A8FFF752FD0146204603F0E6FFDF
:1046CC00D7E720468DF8284002F0F4FA03460AA8F2
:1046DC0023B1154A934201D09847CAE702F0E6FA93
:1046EC00C7E705A8FFF744FD059B8DF81C405D1B33
:1046FC00751B2046CDE90A350C9502F0E5FA034608
:10470C000AA907A823B1094A934201D09847B0E7F8
:10471C0002F0CDFAADE700BFE78B0D00EA8B0D0080
:10472C00F28B0D00F58B0D00B96C0D00BB6C0D0000
:10473C00EE8B0D002DE9F0418CB004AF0446052240
:10474C000068391D03F07BF8B8B3052804D00020AD
:10475C002037BD46BDE8F081B7F80520130A43EABF
:10476C000223B7F80720A7F8053099B2130A43EAD9
:10477C0002231FFA83F8A7F807300029E7D03B790A
:10478C0023BB02F091FA0246E060607FB7F8073075
:10479C00C0B9B7F80510012914D1092B0FD0C82BBB
:1047AC0001D0042BD4D1012562612046657700F03D
:1047BC001BFBFFF7C7FC02F07BFA0120C8E70323C1
:1047CC006377C5E7581F18BF0120C1E7B8F5806FA4
:1047DC0003D92046FFF7A4FEEFE708F1080323F006
:1047EC0007036E46ADEB030D04AD20684246294627
:1047FC0003F025F880454FF000007FD1B7F8073063
:10480C00E85402F051FA3B79E060142B00F0A680DA
:10481C0048D80F2B00F0A28007D8022B48D0062BCB
:10482C0051D02046FFF77CFE58E0112BF9D1002324
:10483C003B70B7F807302B449D42C7E903534DD268
:10484C0007F10C00D5F80080FFF792FCFB68B7F875
:10485C0007105D1B4D1BC7E905357B68FD61C3F374
:10486C000F236383644B984500F0BF8000F28C806B
:10487C00A3F57F236FF400721344984500F09D80DC
:10488C0079D8A3F50033063B984500F09C8003F5DE
:10489C000033033398456BD107F11401384602F00D
:1048AC0006FA65E0292B1BD0372B17D01D2BB8D15E
:1048BC00637F43B901236377204600F095FAFFF735
:1048CC0041FC02F0F5F90023C821B7F8052000914E
:1048DC00CDE901331946204600F0D8F901200DE04E
:1048EC00A3681BB9402002F0A5FCA060B7F80780B4
:1048FC00A8444545C7E9055802D30020B54627E72B
:10490C0029464022A06804F0ADF8A368002583F87E
:10491C003F5007F11400FFF72BFC036843451BD2F3
:10492C00786920B1BB69984214D204F035F885B28D
:10493C00206803F04FFC2368A2685A631D8700238C
:10494C00637702F0B1F9A0F59C500838C4E9030074
:10495C006061C3E72846EAE75025E9E77B68B7F8CA
:10496C000720C3F30F23638329462046FFF7E2FD9C
:10497C0000236383B2E7214B9845F9D107F1140169
:10498C00384602F094F9F3E71D4B984521D003F11A
:10499C009F6303F5003303F5807398451FD003F133
:1049AC006E4303F5302303F586739845E0D107F188
:1049BC001401384602F07BF9DAE707F114013846A6
:1049CC0002F075F9D4E707F11401384602F06FF9DB
:1049DC00CEE707F11401384602F069F9C8E707F190
:1049EC001401384602F063F9C2E707F114013846A6
:1049FC0002F05DF9BCE700BF766673006462670085
:104A0C0061636F6E2DE9F04104468CB00D46FFF7E3
:104A1C0099FB637F022B00F0A880237F628B01330C
:104A2C00DBB223770AB1012516E0022BFBD82068F4
:104A3C0003F0EFF9B8B125B9206803F071FB002839
:104A4C0011DD2046FFF776FE05460028F4D12068DC
:104A5C0003F0C0FB02F02CF9237F013B237728469F
:104A6C000CB0BDE8F08102F01FF90646206803F097
:104A7C00D0F9677F012F054629D120B96661204600
:104A8C00FFF74EFDE8E7E3684FF21862F31A934222
:104A9C0004D92046FFF744FD0025DDE74AF6C8722D
:104AAC00934203D82369F31A9342BCD9636941F248
:104ABC007072F31A9342B6D90023CDE901330093F7
:104ACC001A460621204600F0E1F86661ABE7002F9C
:104ADC00A9D16269B21A40B141F270739A42A2D95B
:104AEC00206803F077FB6777D6E741F288339A4268
:104AFC0099D9206803F06EFBD4F800C0DCF834E0E0
:104B0C00BCF83880BEF1000F0BD02B4642467146E4
:104B1C00604603F0BDFB431E5D425D418DB966618D
:104B2C009AE7134B06930CF120070FCF07AD0FC577
:104B3C003B682B704246734606A9604603F075FA33
:104B4C00E9E76368059301261846268303F082FF84
:104B5C000022CDE90122059B009032461D21204602
:104B6C0000F094F82369636176E7002577E700BFCE
:104B7C00449C0D002DE9F04115468CB004460435DB
:104B8C0040F6B8300F46984602F08CF80FCD01AEC7
:104B9C000FC62B683370676002F086F8A0F59C5046
:104BAC00083801AFC4E9030060610FCF07AE0FC630
:104BBC003B68337007AF0FCF25684FF0000CC5F87A
:104BCC0034C0A5F8388020350FC533682B70664685
:104BDC0044F24F67206803F0FDFA667702F064F840
:104BEC000546637F012B0CD002F05EF8401BB842E7
:104BFC0004D800212046FFF705FFF2E7637F012B65
:104C0C00E8D10CB0BDE8F08100B5012189B00E20CF
:104C1C0003F0E8FC0021052003F0E4FC0021062051
:104C2C0003F0E0FC0021072003F0DCFC144800F04A
:104C3C0073FE134801F030FD0121114800F01DFEF8
:104C4C000F48002303614FF00113436101F090FF03
:104C5C0002F0BEFF4FF4165102F0AEFFA2230093F8
:104C6C00AC22EA23A72102A802F03AFF0549064824
:104C7C0042F2823302AAFFF77DFF09B05DF804FB14
:104C8C00B4E50320F88B0D00A8E403202DE9F04FC8
:104C9C0083B000AF044600683D6B884616469946C3
:104CAC00EB4603F0B6F800287FD0B8F11D0F04D8FE
:104CBC004C4B23FA08F3DB0702D4637F012B74D12E
:104CCC0046B9668B36B9238B01339BB2002B71D05E
:104CDC002383268BA8F10C03082B16D8D4E90323C5
:104CEC00934238BF134603F1420A01F0DDFFAAEBF1
:104CFC000000002860DB00212046FFF783FE01F056
:104D0C00D3FFAAEB00000028F5DAB9F1000F5AD056
:104D1C006B1D7A6B002ABA6B08BF002203EB020AE8
:104D2C000AF1070323F00703ADEB030DBB6BC7F8C8
:104D3C0004D0EA18C2F3072376BA43EA02238DF8AB
:104D4C000080ADF80160ADF80330B9F1000F3CD034
:104D5C00002D3AD02A4649460DF1050003F02EFEEF
:104D6C00681D7B6B3BB1BB6B2BB11A467B68796BB7
:104D7C00184403F023FE002555452AD2AAEB050260
:104D8C007B682068B2F5806F28BF4FF48062591998
:104D9C0003F029F80646002001F084FFBEB9206814
:104DAC0003F018FA667701F083FF0C37DD46BD4639
:104DBC00BDE8F08F01238BE7217F0029A5D1204688
:104DCC00FFF720FEA1E70523A3E70520C9E735443B
:104DDC00D2E703D02046FFF7A3FBE6E701F064FF20
:104DEC002061E2E74500002000B595B004AB00223D
:104DFC000193492300930292034B1121FFF746FFC5
:104E0C0015B05DF804FB00BF3E8C0D001FB5374C90
:104E1C0037480021FFF7F6FD204600F0A6FD20469E
:104E2C0001F03AFC2046012100F027FD00224FF052
:104E3C000113C4E904232F4800F06BFF20B32D4865
:104E4C0001F03FF9294800F0A9FD044660B32A4B54
:104E5C0001221A70FFF7C0F9284B1B7893B105207B
:104E6C0003F0EAFB012829D1254B1A7832BB2549DE
:104E7C001870684602F08AFB6846FFF7D9F9684655
:104E8C0002F039FB04B010BD684602F0C3F900997A
:104E9C00184801F02FF8684602F02DFB1A4B154804
:104EAC00196801F056FACDE7104800F081FD002892
:104EBC00D2D0114B1C70FFF729FACDE7062003F076
:104ECC00BBFB012802D10E4B1A785AB1072003F014
:104EDC00B3FB0128D6D10A4B1A78002AD2D10B4940
:104EEC001870C6E70A491870C3E700BFB4E5032081
:104EFC00A8E4032048E5032038E4032030E4032031
:104F0C0004E50320198C0D0008E503201D8C0D0011
:104F1C001B8C0D002DE9F341374E384DDFF818810D
:104F2C00374F0021012002F0F1F83046002403F045
:104F3C009BF906F11C0002F08FFD746334872A463E
:104F4C003049304603F008FC2F4B30499C61C3E9D3
:104F5C0000642F4E9C83C3E90244C3E9044440F22D
:104F6C005B722C4B0094304600F0CAFD30462A4E42
:104F7C002A492A4603F0F0FB0721304600F09EFC3C
:104F8C003046274E27492A4603F0E6FB3146404679
:104F9C0002F0FCFA4046DFF8A4802A46394603F0BA
:104FAC00DBFB2149404602F0F1FA4046DFF89080E5
:104FBC002A46394603F0D0FB1C49404602F0E6FA7B
:104FCC0039461B4F2A46404603F0C6FB314638464D
:104FDC0002F0DCFA314607F1100002F0D7FA314644
:104FEC0007F1200002F0D2FA12492A46204602B0FC
:104FFC00BDE8F04103F0B0BBC8E40320A4E40320F7
:10500C0003750D001D410D00A8E403201F8C0D003D
:10501C0048E503208D430D00B4E5032065630D00C6
:10502C00C78B0D0095580D00198C0D002E8C0D00A2
:10503C0018E50320C9400D0034E6032024E60320C4
:10504C0008E50320704710B51021044603F089FBD6
:10505C00204610BD0EB403B503AB002153F8042B4E
:10506C00019302F0A6FB02B05DF804EB03B07047AD
:10507C0073B5044608462279A36832B1A3B90B492B
:10508C0002B0BDE8704002F059BB094A267B094DBD
:10509C000949647B012E18BF2946CDE90014074944
:1050AC00FFF7D8FF02B070BD054AEFE79A8C0D00F0
:1050BC00C78B0D00968C0D00928C0D00B08C0D00E2
:1050CC00898C0D002DE9F04F85B01F46BDF9388055
:1050DC00BDF83C30A8EB0209A7EB010AB9F1000FAF
:1050EC00B8BFC9F10009BAF1000FB8BFCAF1000A84
:1050FC00D14583460C46154604DD3A462C464746B8
:10510C000D469046BC4205DD2A4645469046224651
:10511C003C4617463E1BB2B20092A8EB0502002A91
:10512C00B8BF52420192C6F3C03202FA86F6454528
:10513C00B4BF01224FF0FF3276100292BC421CDC4D
:10514C00DBF800200393D145D2F81880C7BF29465D
:10515C0022462A4621465846C047019A039BB61A56
:10516C00B1B236B2002E05DA029A1544009A5618DE
:10517C002DB236B2013424B2E0E705B0BDE8F08FB1
:10518C00704710B404682469A4465DF8044B60476A
:10519C0030B40468BDF808500295A46BA44630BC2A
:1051AC00604730B40468BDF808500295E46BA4461F
:1051BC0030BC604770B4BDF90C50BDF81060046889
:1051CC00CDE90356246CA44670BC60472DE9F3412D
:1051DC001C460368BDF820805B6905461646013CF9
:1051EC0034440F4624B298472B68CDF804800094C1
:1051FC009C6A28463B4632463946A0472B68DB6AF8
:10520C00284602B0BDE8F04118472DE9F3411D4690
:10521C000368BDF820805B69044617460E46984724
:10522C00CDE9007822686B1E3344956A20461BB288
:10523C003A463146A8472368DB6A204602B0BDE8EF
:10524C00F04118472DE9F3471E460368BDF9289035
:10525C005B69BDF82C800C460546174698472644DA
:10526C00B4422B680BDACDF80080D3F820A021468D
:10527C004B463A4628460134D04724B2F0E7DB6A65
:10528C00284602B0BDE8F047184713B502680191F3
:10529C00B0F90E100091146CB0F90C3000221146CC
:1052AC00A04702B010BD2DE9F3471D460368BDF8B9
:1052BC002C805B69BDF9289004460F46164698472A
:1052CC002368CDF80080D3F824A032462B4639460B
:1052DC002046D0472368CDF8008009F1FF323244D4
:1052EC00D3F824A039462B46204612B2D047236867
:1052FC00CDF80080D3F820A032464B4639462046E4
:10530C00D0476B1ED9192368CDF800801D6A204642
:10531C004B46324609B2A8472368DB6A204602B0E6
:10532C00BDE8F047184770472DE9F74399421646F8
:10533C00BDF92870BDF82C90026880460D461C46BD
:10534C0013D1BE42C8BF3346CDF82890C4BF3E46E9
:10535C001F467B1C946B9B1B1BB232462946404656
:10536C00A44603B0BDE8F0436047BE420AD199425F
:10537C00C2BF0B4625461C46631CCDF82890D46B47
:10538C005B1BE9E753699847CDE90079D8F8003001
:10539C0040469F6A324623462946B847D8F8003023
:1053AC00DB6A404603B0BDE8F043184701F0030345
:1053BC00B0F90A208376C907B0F9083059BF838148
:1053CC00C2818281C381704730B54281C281074A54
:1053DC00074D0181002481814FF0FF31C0E9051296
:1053EC004460056004610477046230BD0101000172
:1053FC00D8910D002DE9F04F89B0CDE90212026869
:10540C00BDF948800493BDF94C3052690593BDF841
:10541C0050A00446904718F107024FF0000648BF11
:10542C0008F10E024FEAE20B01963546039B019AF6
:10543C00BDF904109A18059B8B4212B227DD049B10
:10544C0033444FF0000906930FFA89F080451FFA98
:10545C0089F117DD4F0705BF069BC0106D001D5C61
:10546C0018BFEDB22B060AD5029B2068079219448F
:10547C00836909B21F4620465346B847079A09F17B
:10548C000109E1E7019B013301935E44CEE72368F8
:10549C00DB6A204609B0BDE8F04F18472DE9F04F04
:1054AC002DED028B91B01646026ABDF874809DF802
:1054BC0078509DF87C4003911F46BDF870300493E2
:1054CC008346002A40F0C580B0F90C308B4240F383
:1054DC004C81B0F90E30B34240F34781062313FBE5
:1054EC000513002B40F3418106EBC403002B40F362
:1054FC003C81037F1BB9AF2F84BF0137FFB2DBF8B0
:10550C00003058465B6998470522099200220592A3
:10551C00984A07EB8703D3180C93B3B20693059AFA
:10552C000C9B9B5C0793ABB20B93BDF80C300893B0
:10553C00039B02FB05F919FA83F90FFA89F308EEBC
:10554C00103A08230A93039B02EB030A4FF000095D
:10555C000FFA8AFA079ADBF80030D20752D5012DE0
:10556C001FFA89F23ED1012C3CD19B6906991F464A
:10557C00049B0A4412B251465846B84709F101033C
:10558C004FFA83F9079B5B0807930A9B013B13F0C7
:10559C00FF030A93DED1059F01377BB20593099B6C
:1055AC00013B13F0FF030993B9D1049B43450FD082
:1055BC00012DDBF800303BD1012C39D10899CDF805
:1055CC00008005311C6A3246082309B25846A047B0
:1055DC00DBF80030DB6A584611B0BDEC028BBDE83D
:1055EC00F04F1847069914FB02F20A4404990191F2
:1055FC000094DB6918EE101A1F4612B22B4658465F
:10560C00B847BBE7049A4245B8D0012D1FFA89F27E
:10561C0007D1012C05D19B6906991F460A444346C4
:10562C00A8E70699CDF8048014FB02F20A44DFE7E0
:10563C000B9ACDF8048002EB8201089AE4000A442C
:10564C0011460094DC6932462B4609B25846A047F5
:10565C00BEE7137A516812680D92FF1AFFB201EB84
:10566C00C70331F8372006929A780992DA780B92B0
:10567C00012D93F9052093F906A00A9201D8012C6B
:10568C0057D9BDF9283008930FFA8AF30793DBF842
:10569C00003058465B699847B3B24FF000080E9340
:1056AC001AFA86F3C14647460F930B9B9F428FD243
:1056BC00079B0E9A3B4403FB0423002205920F9A8E
:1056CC001BB202EB070A08EE103A0FFA8AFA4346AD
:1056DC00099A0599914241D25A1CD2B25B070C929D
:1056EC0007D1069B06990D9A01339BB212F80190D3
:1056FC00069319F0800F12D0012DDBF80030BDF8A5
:10570C000C101AD1012C18D10A9A9B691144059AD4
:10571C0011441E465246049B09B25846B047059E9A
:10572C000136F3B24FEA490905935FFA89F90C9BEC
:10573C00CEE70023CDE90733A9E70598089A024480
:10574C0002FB0511049ACDE90042DB6918EE102A20
:10575C001E4609B22B465846B047E0E7099B013775
:10576C0098445FFA88F8FFB29FE711B0BDEC028B4A
:10577C00BDE8F08FCD8C0D00F0B5026A85B0044603
:10578C000B46002A34D10A2908D1438A0282427E70
:10579C0003EBC2036382012005B0F0BD0D29FAD0E2
:1057AC00E17E007E657E71B1B4F91060062111FBBB
:1057BC000061B4F90C60B142C1BFB4F9121022827D
:1057CC0001EBC5026282E28A0192A28A0092CDE9C3
:1057DC000205B4F91220B4F910102046FFF75EFE52
:1057EC00237E228A03EB430302EB43032382D2E79B
:1057FC000A2907D100230382937A417E428A01FB56
:10580C000323C7E70D29C6D0157AA942C3D3517A11
:10581C009942C0D351685D1BEDB201EBC505AF7861
:10582C002FB3E97819B3E17E007E667E91B195F9CC
:10583C0005103944B4F9107000FB0171B4F90C7007
:10584C00B94207DD00272782B4F91210927A02FBC5
:10585C0006126282E28A0192A28A0092CDE90206C5
:10586C00B4F91220B4F910102046FFF717FE29796D
:10587C00237E228A01FB0323B8E7012938BF0121CB
:10588C00017641767047000010B5064B0360044664
:10589C00006D08B101F09AFA204600F085FD204613
:1058AC0010BD00BF30920D0010B50446FFF7ECFFA1
:1058BC002046702102F055FF204610BD30B585B052
:1058CC0004460D4602F020FF104A1149CDE9012192
:1058DC004FF0FF328021034600922046202200F038
:1058EC00E9FD0C4B23600023C4E9143504F1580086
:1058FC0000F068F804F1600000F064F804F168004E
:10590C0000F060F8204605B030BD00BF801A0600DC
:10591C00A086010030920D0013B50446503001F002
:10592C004DFA636DD90705D50222042104F1580004
:10593C0000F05CF8636D9A0705D50022032104F191
:10594C00600000F053F8636D5B0705D50222114629
:10595C0004F1680000F04AF8012300933C22022174
:10596C00204600F0A7FE02B010BD10B5436DD9075C
:10597C00044602D5583000F046F8636D9A0703D5FB
:10598C0004F1600000F03FF8636D5B0705D504F18E
:10599C006800BDE8104000F036B810BD436D0246FB
:1059AC0013F0010003D002F1580000F05CB870470E
:1059BC00436D024613F0040003D002F1680000F0BE
:1059CC0052B8704700210A22C0E900127047002328
:1059DC0010B50446C171837188B202F02DFE08B176
:1059EC000323A37101F0E2F9206010BD38B50C4619
:1059FC0005461146A0B202F0F5FD21462846BDE849
:105A0C003840FFF7E4BF38B50446C07902F014FE05
:105A1C00A579003825F0080318BF0120C5F340050F
:105A2C008542A3710AD001F0C1F9A379206083F0FB
:105A3C000203A371A079C0F3C00038BD01F0B6F920
:105A4C002368C01AA3889842F4D3A37903F0010306
:105A5C00AB42EFD001F0AAF9A379206083F00103E7
:105A6C0043F00803E5E7807900F00900A0F1080392
:105A7C0058425841704791F85C3010B504460160AB
:105A8C0013B1886D01F0AAF9204610BD10B503685A
:105A9C0093F85C20044612B1986D01F0A7F92046EA
:105AAC0010BDF8B51F469DF8243004460D46164629
:105ABC002BB1012380F85C30583001F07FF9089B42
:105ACC0023630023636306B1A66425B1294604F160
:105ADC00380001F089FD069B2365079BE069A4F85B
:105AEC004C70FF2BB8BFFF23A4F8543008B1FEF75D
:105AFC00D0FAB4F85400FEF7C8FAE061F8BD000023
:105B0C002DE9FF4104460025174698460E4602F043
:105B1C00ABFB0D49E56104F1380001F037FD9DF850
:105B2C002830A564CDE90283FF220F23CDE9003292
:105B3C00204684F85C503B462A463146FFF7B1FFBD
:105B4C00204604B0BDE8F081C78B0D0010B50446AB
:105B5C00204602F0E5FA0028FAD0204602F019FAA5
:105B6C00C0B210BD2DE9F0470546C4690F46FFF7DA
:105B7C00EDFF2070EB6993F800A04FF001090AF0DB
:105B8C00F00A4FF000084C462846FFF7DFFF264688
:105B9C00EB69985500F07F0313FB09F3984401342B
:105BAC000306A4B21FFA88F84FEAC919ECD4631E95
:105BBC00BAF1300F3B7024D12846EF69FFF7C6FFCE
:105BCC0038552846EF69F41CFFF7C0FF0236B6B211
:105BDC00A4B2B8550226B6B2B1462746C14512D278
:105BEC002846FFF7B3FFB5F85430BB4288BFEB69CA
:105BFC0009F1010988BFD8550137BFB21FFA89F9DD
:105C0C00ECE70026E7E7A8EB0600B0452CBF0646FC
:105C1C0000263444B5F85400A4B2A0422CBF204650
:105C2C000020BDE8F087F7B58C461E461D4607469A
:105C3C000023AE4602A805F07F01BEF17F0F03F1F1
:105C4C000104034488BF41F08001BEF17F0F4FEA8D
:105C5C00D515E4B203F8041C10D8C4F10403D11810
:105C6C0002F803C0C4F10503134401A805329342A2
:105C7C0006D010F8015B03F8015BF8E72346D8E780
:105C8C00721C2244384602F0AEF8054601F08EF83C
:105C9C00621C78623244A8B2131A5842584103B0BD
:105CAC00F0BD13B50446014601A8FFF7E4FEE36915
:105CBC00E0221A70E36900225A70E1690222204640
:105CCC0002F091F8204602F085FA01F06FF8C4E971
:105CDC00090001A8FFF7DAFE02B010BD0233F0B5DF
:105CEC00044698B20023CD5C55B1B4F8546086429A
:105CFC0003F1010704D9461C15543B46B0B2F2E738
:105D0C0099B2441A2244091202F8021C02F8013C0E
:105D1C00F0BD38B5044602F07CF8002814BF01250C
:105D2C00002502D1204602F055FA284638BD000065
:105D3C002DE9F04788B00446DDF840809DF850A06E
:105D4C00894617461E46FFF7E4FF0546002840F03B
:105D5C00CB80214601A8FFF78EFEA16C002940F0F4
:105D6C008780B4F84C20A16B2B46204602F090FAA9
:105D7C00002879D0012323849DF85430E269042B48
:105D8C0040F08180594B186899889B79ADF80C10BC
:105D9C008DF80E300290C2F805009DF80E30BDF85B
:105DAC000C10A2F80910D3720C23B8F1000F7FD09D
:105DBC009DF848009DF84420400140EAC20040F0A4
:105DCC000600C0B2BAF1000F01D100F0FD001FB106
:105DDC00002E6FD140F08000E269D054226DE16951
:105DEC00581C12120A549A1CE169206D8854033312
:105DFC00E26949462046FFF771FF0346B8F1000FF0
:105E0C000BD0E26941462046FFF768FFE26913991F
:105E1C0003462046FFF762FF034667B1E269394645
:105E2C002046FFF75BFF03462EB1E2693146204660
:105E3C00FFF754FF0346053BE2699BB21021204655
:105E4C00FFF7F1FE00F0B2FFC4E909004FF47A76D7
:105E5C00204602F065F980BB00F0A8FFA36AC01AC7
:105E6C00236D73439842F3D9204602F0B3F934E022
:105E7C0002A801F041FEB4F84C202B4602A92046A2
:105E8C0002F0D3F874E71A4B186859681B7A0DF1B5
:105E9C00080CACE803008CF8003002AB03CBC2F862
:105EAC000500C2F809109CF8003053730E237CE7F0
:105EBC00022087E740F0C0008EE702A92046FFF7DA
:105ECC0051FE0428D0D1E369DE78002ECCD100F04D
:105EDC006DFF0125A06284F82C6001A8FFF7D6FDA8
:105EEC00284608B0BDE8F0870025F9E780920D0040
:105EFC0087920D007FB501230422CDE904320023E3
:105F0C00CDE90233CDE900331A46FFF711FF07B094
:105F1C005DF804FB2DE9F74FDDF83C809DF834501B
:105F2C009DF8389004468B4616461F46FFF7F1FE47
:105F3C008246002851D0214601A8FFF79CFDB4F8F9
:105F4C005420E069002102F047FD0523E26959461F
:105F5C002046FFF7C3FE6B1E012B15D8218CE3697D
:105F6C00013189B2218409121954421CE369218C34
:105F7C0092B20230995480B2B8F1000F04D0238C45
:105F8C005A1C2284A8F8003000210B188F42E269B9
:105F9C009BB20AD9B4F854C09C4506D916F801C076
:105FAC0002F803C0013189B2EFE79DF830100029E7
:105FBC000CBF30213121B9F1000F01D041F00801A3
:105FCC00022D0ED141F00401053B9BB22046FFF798
:105FDC002AFE824601A8FFF759FD504603B0BDE8E2
:105FEC00F08F012D08BF41F00201EDE71FB5089CB1
:105FFC000394002402949DF81C4001949DF81840D1
:10600C000094FFF787FF04B010BD30B587B004468D
:10601C0010460591049202F01DFD00250346CDE9C2
:10602C000155DDE9042100952046FFF7DFFF07B09D
:10603C0030BD73B504460E46FFF76BFE0546C8B17E
:10604C00214601A8FFF717FDE36962221A70E36984
:10605C0002225A70E36932129A70E369DE70E169C8
:10606C000422204601F0BFFE051E01A818BF012521
:10607C00FFF70CFD284602B070BD73B504460E4602
:10608C00FFF747FE0546C8B1214601A8FFF7F3FC10
:10609C00E36972221A70E36902225A70E3693212C0
:1060AC009A70E369DE70E1690422204601F09BFEE0
:1060BC00051E01A818BF0125FFF7E8FC284602B011
:1060CC0070BD2DE9F04F2DED028B87B000AF04466B
:1060DC00FFF71FFE8146F8B1214607F11400FFF7C8
:1060EC00CAFC00F063FE226D4FF47A735343A26A2C
:1060FC00821A9A42064603D8626A821A934221D2C5
:10610C0094F82C307BB1204602F064F84FF0000973
:10611C0007F11400FFF7BAFC48461C37BD46BDEC2E
:10612C00028BBDE8F08FE269C0211170E2695370F7
:10613C00E1690222204601F056FEC4E909660123FA
:10614C0084F82C30204601F0EBFF0028E0D007F15A
:10615C0013012046FFF706FD83460028D8D0E369DB
:10616C00A662197801F0F002302A7FD1D4F830A061
:10617C00BAF1000FCCD097F813C06A4608EE102A7B
:10618C0003EB0C025578917801EB05218DB205F1EA
:10619C0008026946D208A1EBC20295460CF1030233
:1061AC00FA6003EB020E0DEB05026846C7F808D047
:1061BC007A60D7E901218A4206D00A461EF8018B83
:1061CC0002F8018BBA60F4E70022425593F8008084
:1061DC00F96808F00608ABEB0C02033AB8F1020FB1
:1061EC00A2EB0502294425D113F801E01944023A27
:1061FC0091F801B00CF10501294419440BEB0E2B5D
:10620C00D047E36940221A70E3691FFA8BFB83F8CD
:10621C000180E3694FEA2B229A70E36983F803B09B
:10622C00E1690422204601F0DEFD666218EE103AA8
:10623C009D466DE7B8F1040F15D113F801E0194430
:10624C00023A91F801B00CF10501294419440BEB09
:10625C000E2BD047E36950221A70E36902221FFA11
:10626C008BFB5A70D5E71944D047DFE7502A08D189
:10627C009A78D97801EB022189B22046FFF7D9FE32
:10628C0046E7402A12D1626B002A3FF441AFBBF1C2
:10629C00040F7FF43DAF11F0060F7FF439AF9978FE
:1062AC00D87800EB012080B2904731E7602A08D102
:1062BC009A78D97801EB022189B22046FFF7DDFEEE
:1062CC0026E7702ADFD0902A3FF422AFC02A0AD1E9
:1062DC00D0221A70E36900225A70E169022220462A
:1062EC0001F081FD14E7D02A04BF002384F82C3080
:1062FC000EE7F7B504460F461646FFF70AFD0546AE
:10630C0010B3214601A8FFF7B6FB238C01339BB2D7
:10631C00EBB12384238CE2691B125371E369228C49
:10632C009A71E269072339462046FFF7D7FCE369E7
:10633C001E54043883B2E26982212046FFF773FCB5
:10634C00054601A8FFF7A2FB284603B0F0BD0123C8
:10635C00DFE70022FFF7CDBF38B50546FFF7D9FCC4
:10636C0010B12846FFF79DFCE86908B1FDF791FED6
:10637C0005F1380001F0BFF8AC690A4B2B607CB119
:10638C006368013B63605BB9236820469B68984750
:10639C00A368013BA3601BB923682046DB689847C0
:1063AC00284638BD149D0D0010B5044B03600446FF
:1063BC00C06A08B100F046FF204610BD4C970D0096
:1063CC0010B50446FFF7F0FF2046502102F0C9F942
:1063DC00204610BD002910B54BDBB0F90C408C42A7
:1063EC0047DD002A45DBB0F90E40944241DD847E46
:1063FC00022C1FD0032C26D0012C04D10489D243AB
:10640C0014440A4621B2012B23D0022B32D083BB79
:10641C00002A13460489C06AB8BFD31DDB1013FBD6
:10642C00041102F0070201239340425C22EA0302AA
:10643C0042541EE00489C94321444489D243224476
:10644C0009B212B2DFE74489C9430C44114622B2A7
:10645C00D9E7002A04891346B8BFD31DDB1013FB00
:10646C000411C36A02F0070001228240585C024307
:10647C005A5410BD002A13460489C06AB8BFD31DF4
:10648C00DB1013FB041102F00702012303FA02F2E2
:10649C00435C5A40CCE710B5044690F93600012114
:1064AC0080B202F0B0F8606A18B1BDE8104000F09C
:1064BC0058BF10BD70B504461D460026FEF784FF7C
:1064CC00114B2360666215B902F01EF90546FF23D5
:1064DC0084F8333084F836309DF9103084F8373036
:1064EC000A4BA363012384F83C30059BA3644FF64D
:1064FC00FF72069BA286C4E90A562664A4F844607F
:10650C00E364204670BD00BF4C970D0098920D00BF
:10651C00F8B50446806A0D4690B194F9301001F03C
:10652C004BFCA06A036800219B689847A06A03682B
:10653C0029469B689847A06ABDE8F84001F043BC27
:10654C0094F93530014698B202F05DF8606A20B1DA
:10655C002946BDE8F84000F08BBF0826802794F947
:10656C00330005EA070180B202F04DF894F93400CB
:10657C00012180B202F047F894F93400002180B276
:10658C0002F041F8013E4FEA5707E8D1F8BD38B5A3
:10659C000446806A0D4680B1A16C01F0FFFB002D12
:1065AC00204614BFA721A621FFF7B2FFA06A88B12D
:1065BC00E16CBDE8384001F0F1BB606A18B104F140
:1065CC00380100F0E7FE94F93600002180B202F0A9
:1065DC001AF8E4E72046BDE83840FFF75CBF2DE928
:1065EC00F8430446806A0D468F1840B394F9301076
:1065FC0001F0E2FBA06A036800219B689847012622
:10660C00BD42A06A17D01F2E0CD901F0DCFB94F907
:10661C003010A06A01F0D0FBA06A036800219B68CF
:10662C0098470126A06A15F8011B036801369B6880
:10663C009847F6B2E4E7BDE8F84301F0C4BB94F91F
:10664C003530014698B201F0DEFFAF4222D0606ACD
:10665C0015F8019B18B1494600F00AFFF5E708262A
:10666C004FF0800894F9330009EA080180B201F078
:10667C00CAFF94F93400012180B201F0C4FF94F9EF
:10668C003400002180B201F0BEFF013E4FEA5808F1
:10669C00E8D1DAE7BDE8F883B0F90A30DA1D48BF73
:1066AC0003F10E02B0F90830C06AD2105A4300212F
:1066BC0002F092B92DE9FF411E46C36A9DF828806D
:1066CC0004460F461546B3B12046FFF7E5FFB4F973
:1066DC000A00B4F9081020281FDC20230122CDE980
:1066EC000132203873237339009300EBD070894B3F
:1066FC0001EBD1711FE0B0F90A30D81D48BF03F18E
:10670C000E00B4F90830C010584300F093FDE0625D
:10671C000028D9D104B0BDE8F08140234FF0010C22
:10672C00CDE9013C52234038523900937A4B00EBAF
:10673C00D07001EBD17140F34F0241F34F01204671
:10674C00FEF758FEA06A84F83170002878D0002D2E
:10675C0074D1B4F90A30202B0CBF3C253D2584F8AC
:10676C003050B8F1000F01D001F01CFBFEB194F9D0
:10677C00370000281BDB012180B201F033FF94F9B4
:10678C003700012180B201F03EFF012001F080F8BA
:10679C0094F93700002180B201F035FF0A2001F096
:1067AC0077F894F93700012180B201F02CFFA06A30
:1067BC00002874D0A16C01F0F1FA0422574920464C
:1067CC00FFF70DFFA17A0139C9B22046FFF7A0FEF1
:1067DC00534904222046FFF702FF94F93130012B74
:1067EC000CBF102114212046FFF792FE04224D49C4
:1067FC002046FFF7F4FEA3684B4A93425CD14B4909
:10680C0004222046FFF7EBFED9212046FFF780FE3D
:10681C0094F93130012B0CBF2221F1212046FFF7D6
:10682C0077FE204642490622FFF7D9FEA06A0028CF
:10683C0063D0E16C01F0B2FA01206BE76DB28EE728
:10684C0094F93500012180B201F0CCFE94F93600A8
:10685C00012180B201F0C6FE94F93600012180B20C
:10686C0001F0D1FE656A3DB1B8F1000F3FF47EAF87
:10687C00284600F065FD79E794F93300012180B2D8
:10688C0001F0B0FE94F93400012180B201F0AAFEAF
:10689C0094F93400294680B201F0B5FE66E7606ACF
:1068AC0018B104F1380100F075FD94F9360000219F
:1068BC0080B201F0A8FE80E71E4A93420ED11E4919
:1068CC0003222046FFF78BFE94F93130012B0CBFCD
:1068DC009F21CF212046FFF71BFE95E7174A9342D5
:1068EC0092D1174903222046FFF779FE94F93130F3
:1068FC00012B0CBF1021AF21ECE794F936000121DC
:10690C0080B201F080FE606A002895D000F029FD6D
:10691C0092E700BF64950D00A4920D00AC970D009A
:10692C00B0970D00B4970D0080002000BE970D00AD
:10693C00B8970D0080004000C2970D006000100059
:10694C00C5970D0070B5002ABDF810503DDBB0F9AD
:10695C000A40944239DD0029BEBF5B181BB20021EE
:10696C00B0F90840CE18A642C4BF631A1BB2002B64
:10697C002BDDC06AD61014FB0611014402F007008F
:10698C0001228240012DD2B216D0022D0BD0E5B9D6
:10699C00D243D2B20B44994217D011F8010B1040DC
:1069AC0001F8010CF7E70B4499420ED011F8010BDA
:1069BC00504001F8010CF7E70B44994205D011F84F
:1069CC00010B104301F8010CF7E770BDF0B500297D
:1069DC00BDF8146076DBB0F90850A94272DA002ACF
:1069EC00BCBFD21813B2B0F90A40B8BF0022D718F6
:1069FC00A742C4BFA31A1BB2002B63DDC2F3C404AD
:106A0C00C76A15FB041112F00702DBB207EB010495
:106A1C0023D0C2F10802D2B22C4D93423CBF4FF0AE
:106A2C00FF0CA2EB030EAD5C3CBF4CFA0EFC0CEA67
:106A3C000505012E07D0022E2ED04EB917F801C035
:106A4C002CEA050503E017F801C045EA0C057D5456
:106A5C00934237D3B0F908100C449A1AD2B2072AD1
:106A6C000ED9022E1DD113462178C9432170083B43
:106A7C00B0F90810DBB2072B0C44F5D802F0070272
:106A8C0002B3134B012E9B5C19D0022E1BD0CEB936
:106A9C00227822EA030314E017F801C085EA0C05FA
:106AAC00D5E7002E14BFFF25002513462570083BA3
:106ABC00B0F90810DBB2072B0C44F7D8DEE72278CC
:106ACC0013432370F0BD22785340FAE79C970D00D6
:106ADC00A4970D0070B41446827EBDF80C60022A97
:106AEC000DD0032A18D0012A11D10289E443144491
:106AFC0024B203960A46214670BCFFF767BF428951
:106B0C000589E44319441444691A24B209B2039662
:106B1C00224670BCFFF716BF45891944691A09B2A1
:106B2C00E7E730B41446827EBDF80850022A0DD037
:106B3C00032A18D0012A11D1E2180489A41A24B20C
:106B4C0002950A46214630BCFFF7FCBE0289C943B8
:106B5C001144E2184489A41A09B224B202952246BF
:106B6C0030BCFFF733BF4289C943114409B2E7E790
:106B7C002DE9F8430446806A002842D0A16C01F04C
:106B8C000DF9474905222046FFF729FD217A0139E5
:106B9C002046C9B2FFF7BCFCB4F90A30DE1D48BF71
:106BAC0003F10E06D4E90A052389F61013FB06F649
:106BBC0015FA86F600283AD094F9301001F0FCF85A
:106BCC00A06A036840219B6898470127B542A06AD8
:106BDC0024D01F2F0CD901F0F6F894F93010A06ACC
:106BEC0001F0EAF8A06A036840219B6898470127E6
:106BFC00A06A15F8011B036801379B689847FFB220
:106C0C00E4E7606A18B104F1380100F0C3FB94F9B1
:106C1C003600002180B201F0F6FCB2E701F0D3F8A7
:106C2C00A06A78B3E16CBDE8F84301F0B7B894F909
:106C3C003500012180B201F0E6FCB542F0D0606A6B
:106C4C0015F8019B18B1494600F012FCF5E708272E
:106C5C004FF0800894F9330009EA080180B201F082
:106C6C00D2FC94F93400012180B201F0CCFC94F9EF
:106C7C003400002180B201F0C6FC013F4FEA5808F5
:106C8C00E8D1DAE794F93600012180B201F0BBFCBF
:106C9C00606A18B1BDE8F84300F063BBBDE8F88347
:106CAC00C8970D0000F0F4BD00F080B87047704735
:106CBC007047000003065ABF024B53F82000002017
:106CCC00704700BFD0970D0003065ABF024B53F814
:106CDC0020000020704700BFD0990D0008B5024B72
:106CEC001B689B68019308BD6802030008B5024B42
:106CFC001B68DB68019308BD6802030008B5024BF2
:106D0C001B685B68019308BD2C02030008B5024B9D
:106D1C001B689B68019308BD2C02030008B5024B4D
:106D2C001B68DB68019308BD2C02030008B5024BFD
:106D3C001B681B69019308BD2C02030008B5024BAC
:106D4C001B685B69019308BD2C02030008B5024B5C
:106D5C001B689B6A019308BD2C02030008B5024B0B
:106D6C001B681B6B019308BD2C02030008B5024B7A
:106D7C001B689B6F019308BD2C02030008B5024BE6
:106D8C001B685B69019308BD6C02030008B5024BDC
:106D9C001B685B68019308BD1802030008B5024B21
:106DAC001B68DB68019308BD1802030008B5024B91
:106DBC001B685B69019308BD1802030008B5024B00
:106DCC001B681B6B019308BD4802030008B5024BFE
:106DDC001B685B6B019308BD4802030008B5024BAE
:106DEC001B689B6B019308BD4802030008B5024B5E
:106DFC001B681B6C019308BD4802030008B5024BCD
:106E0C001B685B6C019308BD4802030008B5024B7C
:106E1C001B689B6C019308BD4802030008B5024B2C
:106E2C001B685B69019308BD6402030008B5024B43
:106E3C001B681B6A019308BD6402030008B5024B72
:106E4C001B689B6A019308BD6402030008B5024BE2
:106E5C001B681B68019308BD3C02030008B5024B7C
:106E6C001B68DB68019308BD3C02030008B5024BAC
:106E7C001B681B69019308BD3C02030008B5024B5B
:106E8C001B685B69019308BD3C02030008B5024B0B
:106E9C001B689B69019308BD3C02030008B5024BBB
:106EAC001B68DB69019308BD3C02030008B5024B6B
:106EBC001B681B6A019308BD3C02030008B5024B1A
:106ECC001B689B6A019308BD3C02030008B5024B8A
:106EDC001B681B68019308BD2802030008B5024B10
:106EEC001B68DB68019308BD2802030008B5024B40
:106EFC001B689B69019308BD2802030008B5024B6F
:106F0C001B68DB69019308BD2802030008B5024B1E
:106F1C001B681B6A019308BD2802030008B5024BCD
:106F2C001B685B6A019308BD2802030008B5024B7D
:106F3C001B689B6A019308BD2802030008B5024B2D
:106F4C001B68DB6A019308BD2802030008B5024BDD
:106F5C001B681B6B019308BD2802030008B5024B8C
:106F6C001B685B6B019308BD2802030008B5024B3C
:106F7C001B681B6C019308BD2802030008B5024B6B
:106F8C001B689B69019308BD3802030008B5024BCE
:106F9C001B68DB69019308BD3802030008B5024B7E
:106FAC001B681B6A019308BD3802030008B5024B2D
:106FBC001B689B6A019308BD3802030008B5024B9D
:106FCC001B681B6B019308BD3802030008B5024B0C
:106FDC001B689B6B019308BD3802030008B5024B7C
:106FEC001B681B68019308BD3002030008B5024BF7
:106FFC001B685B69019308BD3002030008B5024BA6
:10700C001B68DB69019308BD3002030008B5024B15
:10701C001B681B6A019308BD3002030008B5024BC4
:10702C001B685B6A019308BD3002030008B5024B74
:10703C001B68DB6B019308BD3002030008B5024BE3
:10704C001B681B6C019308BD3002030008B5024B92
:10705C001B685B6C019308BD3002030008B5024B42
:10706C001B681B68019308BD4C02030008B5024B5A
:10707C001B685B68019308BD4C02030008B5024B0A
:10708C001B681B69019308BD4C02030008B5024B39
:10709C001B685B69019308BD4C02030008B5024BE9
:1070AC001B689B69019308BD4C02030008B5024B99
:1070BC001B68DB69019308BD4C02030008B5024B49
:1070CC001B681B6A019308BD4C02030008B5024BF8
:1070DC001B685B6B019308BD6002030008B5024B93
:1070EC001B681B6D019308BD6002030008B5024BC1
:1070FC001B685B68019308BD2002030008B5024BB6
:10710C001B685B69019308BD2002030008B5024BA4
:10711C001B68DB6A019308BD2002030008B5034B12
:10712C001B68D3F88830019308BD000020020300CF
:10713C0008B5034B1B68D3F89430019308BD0000CD
:10714C002002030008B5024B1B685B68019308BD65
:10715C004002030008B5024B1B689B68019308BDF5
:10716C004002030008B5024B1B68DB68019308BDA5
:10717C004002030008B5024B1B681B69019308BD54
:10718C004002030008B5024B1B685B69019308BD04
:10719C004002030008B5024B1B689B69019308BDB4
:1071AC004002030008B5024B1B68DB69019308BD64
:1071BC004002030008B5024B1B681B6A019308BD13
:1071CC004002030008B5024B1B681B6B019308BD02
:1071DC004002030008B5024B1B685B6B019308BDB2
:1071EC004002030008B5024B1B681B6C019308BDE1
:1071FC004002030008B5024B1B685B6C019308BD91
:10720C004002030008B5024B1B689B68019308BD44
:10721C004402030008B5024B1B68DB69019308BDEF
:10722C004402030008B5024B1B68DB6B019308BDDD
:10723C004402030008B5024B1B681B68019308BD90
:10724C001C02030008B5024B1B685B68019308BD68
:10725C001C02030008B5024B1B689B68019308BD18
:10726C001C02030008B5024B1B68DB69019308BDC7
:10727C001C02030008B5024B1B685B6A019308BD36
:10728C001C02030008B5024B1B68DB6B019308BDA5
:10729C001C02030008B5024B1B685B6C019308BD14
:1072AC001C020300002240681146FFF783BF002236
:1072BC0040681146FFF78EBF40680022FFF782BF7F
:1072CC004068002281F00101FFF76CBF0023406889
:1072DC001A461946FFF75EBF002340681A46194646
:1072EC00FFF750BF002240681146FFF743BF002252
:1072FC0040681146FFF72EBF406800220221FFF7BD
:10730C0031BF002340681A46FFF71CBF024B032213
:10731C005A60024A1A60704750E60320D89B0D0051
:10732C000021FFF78BBE0021FFF790BE10B504467D
:10733C0008462170FFF762FE00236360204610BDF3
:10734C0010B504460078FFF7EBFF48B920784FF6EC
:10735C00FF71FFF743FE2078BDE81040FFF7E3BF55
:10736C0010BD0078FFF7DFBF400830B5186000246F
:10737C0018688842E5B206D90134082C02D04008BE
:10738C001860F5E70725024B5B5D137030BD00BF3D
:10739C000C9C0D002DE9F04306468FB000780C468E
:1073AC00FFF7BEFF00281BDB35781422002109A84B
:1073BC0001F012FB0B23002209A92846ADF824305A
:1073CC00FFF72CFE9DF82D3013B19DF82C5055B1C4
:1073DC000027B946B846012523795DB1C3B1002019
:1073EC000FB0BDE8F083DDF830809DF834909DF847
:1073FC003570F1E7002B35D1A368434508D18DF8E2
:10740C0020908DF82170BDF82020A3899A42E6D0F7
:10741C000023A1688DF80F300A9804AB0DF10F0210
:10742C00FFF7A2FF217985B989B9A36843450ED32B
:10743C008DF820908DF82170BDF82020A3899A42F8
:10744C0005D1049B434502D1C9E70029F9D100239A
:10745C000193637B00939DF80F20237B3078FFF71B
:10746C00E5FDBCE7CDE900552B462A460121F5E7A1
:10747C0008B50078FFF7BAFDC0B208BD10B50446D8
:10748C00006818B1FFF7DEFE0023236010BD10B5B5
:10749C000446FFF7F3FF204610BD000010B5094B62
:1074AC00094C022200201A60084B2060A080A071B9
:1074BC00A360FFF71BFE2046054A0649BDE81040B5
:1074CC0001F04AB964E6032058E603200000FFFFF0
:1074DC00A4E403209B740D0070B586B0064601AD84
:1074EC00684600F009FB0FCD341D0FC42B682370C8
:1074FC00304606B070BD10B504460068FFF7A2FE1A
:10750C00204610BD10B50446006808B1FFF79AFE7E
:10751C000023C4E90133236010BD38B504460D4681
:10752C0000680131FFF796FE10B1C4E90005012097
:10753C0038BD10B50368044623B143688B4201D3B0
:10754C00012010BD2046FFF7E8FF0028F9D0A36802
:10755C00002BF5D122681370F2E737B50D461146B2
:10756C0001920446FFF7E5FF019A28B92046FFF780
:10757C00C9FF204603B030BDA2602946206801F047
:10758C001DFA2268A3680021D154F2E7002313B539
:10759C00C0E9003304468360037341B1084601918E
:1075AC0001F058FA019902462046FFF7D6FF204613
:1075BC0002B010BD884210B5044605D00B682BB143
:1075CC008A681946FFF7C9FF204610BDFFF79AFFDE
:1075DC00FAE710B500230446C0E900338360037357
:1075EC00FFF7E8FF204610BD13B5044659B1084615
:1075FC00019101F02FFA019902462046FFF7ADFFE9
:10760C00204602B010BDFFF77DFFF9E770B50546C7
:10761C000E4609B9002070BD6AB184681444214635
:10762C00FFF787FF0028F5D02868AB68314618446F
:10763C0001F008FAAC600120EDE710B58A68096822
:10764C000446FFF7E3FF10B92046FFF75BFF204627
:10765C0010BD13B5044629B92046FFF753FF204649
:10766C0002B010BD0846019101F0F4F901990246EF
:10767C002046FFF7CBFF0028EED0F0E708B5826874
:10768C003AB921B10878B0FA80F0400900E0012045
:10769C0008BD006809B90078F5E701F0C9F9F2E70F
:1076AC0010B50446006808B1FFF7B0FB204610BDCA
:1076BC0010B58368044613B103220146984720464F
:1076CC0010BD000010B5064C002320462360FFF7C8
:1076DC0095FB2046034A0449BDE8104001F03CB834
:1076EC0068E60320A4E40320AD760D00F8B5064649
:1076FC000D468F180024BD420CD0336815F8011BC1
:10770C009B6830469847031E01DB1C44F3E7002CB2
:10771C0008BF1C462046F8BD13B50446084659B1AF
:10772C00019101F097F923680199DB680246204624
:10773C0002B0BDE81040184702B010BD08B5FFF705
:10774C00EBFF08BD03689B68184738B50D2105464B
:10775C00FFF7F8FF0A2104462846FFF7F3FF204401
:10776C0038BD38B50546FFF7D7FF04462846FFF766
:10777C00ECFF204438BD30B58BB000238DF824309D
:10778C00012A98BF0A2209AC0D46B1FBF2F101FBAC
:10779C00125303F0FF03092B94BF30333733DBB2A2
:1077AC00AA4204F8013DEFD92146FFF7B5FF0BB013
:1077BC0030BD2DE9F04186B000AF05460E46381DB0
:1077CC00142114463B60FFF755FD13280ED8391DC4
:1077DC002846FFF7A1FF04461EB12846FFF7B5FF68
:1077EC00044420461837BD46BDE8F08100F108037B
:1077FC0023F00703E846ADEB030D2246411C3B6822
:10780C006846FFF737FD69462846FFF785FF0446B3
:10781C00C546E1E710B50446FFF7C8FAE0602368F7
:10782C0020465B699847002808DAFFF7BFFAE3683F
:10783C00C01AA3689842F2D34FF0FF3010BDF8B5D0
:10784C0006460D4617460024BC4207D03046FFF7CB
:10785C00E1FF031E02DB2B550134F5E72046F8BD92
:10786C00002340681A461946FFF78CBC014B024AAC
:10787C001A6070476CE603201C9C0D00024B1A68C2
:10788C00024B1A60704700BF3CE4032070E60320F3
:10789C000021FFF733BC10B50446FFF709FF204663
:1078AC0010BD00000348044A04490023836000F023
:1078BC0053BF00BF74E60320A4E40320A3780D009B
:1078CC00014B1860704700BF40E4032008B50B4B18
:1078DC0043B100F07DF903681B699847002801DD6E
:1078EC00AFF30080064B43B100F0F0F903681B695D
:1078FC009847002801DDAFF3008008BD00000000B0
:10790C000000000008B5FFF7E1FFFFF74FFA014B4D
:10791C00186008BDD4E703200248034A0349121A31
:10792C0001F04CB800F4032004F40320F09F0D0088
:10793C0007B5002300931A466FF07701FFF7F8FBA9
:10794C0003B05DF804FB000007B543880A2B08D090
:10795C00502B0BD1094B1B684BB103B05DF804EBFA
:10796C001847FFF7E5FF03B05DF804FB0023009315
:10797C001A466FF07701FFF7DBFBF4E788E603208C
:10798C0038B5124C1248134D0021FFF783FC2368C5
:10799C00AB42114B0CBF012200221A7002D0FFF730
:1079AC00BBFF2560FFF7F2F9044601F01DF80B4B05
:1079BC0013B12046AFF3008000210848FFF732FCDA
:1079CC00BDE8384006480021FFF7A8BB00F40320AF
:1079DC00CD780D001E1C279A84E6032000000000C1
:1079EC0055790D00704710B51821044600F0B9FE0A
:1079FC00204610BDF0B5037D062B8DB00E4600F170
:107A0C0004074FF0000412D000F1080515F8011D11
:107A1C000A223046FFF7AFFEAF42044419D0002CC7
:107A2C00F4D02E213046FFF78DFE0444EEE72F23D1
:107A3C006A4639460A208DF80040FFF7EFF9684690
:107A4C0001F008F833680246DB686946304698470F
:107A5C00044620460DB0F0BD10B5054B044611226E
:107A6C0040F8043B002100F0B7FF204610BD00BFDA
:107A7C00449C0D000346074A10B543F8042B01F152
:107A8C00100251F8044B43F8044B9142F9D10A7897
:107A9C001A7010BD449C0D00037D042B04D140686A
:107AAC00003818BF01207047062B07D143683BB93B
:107ABC0083682BB9C3681BB90069F1E700207047D4
:107ACC000120704710B59DF8084044EA032343EAAF
:107ADC00024242EA016104234160037510BD0000BB
:107AEC0037B5044D05609DF818500095FFF7EAFF77
:107AFC0003B030BD449C0D0013B5054B0360CB782F
:107B0C0000938B784A780978FFF7DCFF02B010BD40
:107B1C00449C0D0041747047704708B50021007CEF
:107B2C00FFF7BCFA40EAE07008BD08B50121007C03
:107B3C00FFF7B4FA40EAE07008BD08B5007CFFF727
:107B4C00A5FA20EAE07008BD08B5007CFFF796FAAC
:107B5C0020EAE07008BD13B50446007C0191FFF7E4
:107B6C0095FA0028019901DC607C20B1207CFFF79C
:107B7C009DFA20EAE07002B010BD007CFFF79EBABF
:107B8C0010B51421044600F0ECFD204610BD000099
:107B9C0010B54FF47A73044608460021C4E901136A
:107BAC00044B23600123207463741146FFF756FACB
:107BBC00204610BD589C0D00007C0022FFF756BAE1
:107BCC0010B514220446002100F006FF204610BD1B
:107BDC0010B5104C88B003A8FFF7F2FF2178BFF363
:107BEC005B8F11F0010111D120460191FCF75EFA77
:107BFC00019958B103AA0848FFF7CAFF2046FCF7C1
:107C0C005AFA064A0649044800F0A6FD024808B094
:107C1C0010BD00BF8CE6032090E60320A4E40320F3
:107C2C00257B0D0070474174704708B5007CFFF749
:107C3C0045F920EAE07008BD08B5007CFFF716F99D
:107C4C0020EAE07008BD08B5007CFFF71FF940EA98
:107C5C00E07008BD08B5007CFFF710F940EAE07051
:107C6C0008BD007CFFF71AB937B5457C04462DB129
:107C7C00207C03B0BDE83040FFF7F0B8007C0191E8
:107C8C00FFF71CF900280199F2DC284603B030BD3F
:107C9C0010B51421044600F064FD204610BD000010
:107CAC0010B54FF0000C0446084611464FF47A729A
:107CBC00C4E901C2044A22600122207462741A468B
:107CCC00FFF7C4F8204610BD889C0D0013B50E4C70
:107CDC002178BFF35B8F11F0010112D12046019185
:107CEC00FCF7E4F9019960B1084A094B0948FFF720
:107CFC00D7FF2046FCF7DFF9074A0849054800F092
:107D0C002BFD044802B010BDA4E60320A8E6032016
:107D1C002CE70320B0E70320A4E40320317C0D0002
:107D2C007047F8B5064615460C468F18BC4206D06F
:107D3C00336814F8011B9B6830469847F6E72846D1
:107D4C00F8BD007C0022FFF7E1B8007C0021FFF7B2
:107D5C00E5B8007C0021FFF7E9B8007C0021FFF7B3
:107D6C00EDB8007C0021FFF7F1B810B514210446E2
:107D7C0000F0F7FC204610BD10B54FF47A730446A2
:107D8C0008460021C4E90113034B236020741146FB
:107D9C00FFF7ECF8204610BDB89C0D00007C0022CB
:107DAC00FFF794B80023007C1A461946FFF796B8E3
:107DBC00007C0022FFF79AB8C9B2FFF7F9BF007C2C
:107DCC000022FFF79BB80121FFF7F9BF13B5036839
:107DDC008DF80710DC6B01224FF0FF330DF107011A
:107DEC00A04702B010BD10B40368DC6B4FF0FF333A
:107DFC00A4465DF8044B604713B5134602688DF832
:107E0C000710D46B0DF107010122A04702B010BD81
:107E1C00704738B543691A68002A054610DAB3F87A
:107E2C008620B3F884309A420AD103681B699847BC
:107E3C00044628B92B682846DB6A9847204638BD8B
:107E4C000120FCE743691868C043C00F70477047B6
:107E5C00064B994210B500F10C0405D0084600F011
:107E6C0085FC002808BF0024204610BD149C0D0082
:107E7C0010B5AC21044600F074FC204610BDFCF794
:107E8C0006B92DE9F0414FF0000886B01D46C0F848
:107E9C00048004460E4617464146102202A800F004
:107EAC009BFD6B1C09D04FF47A70B5FBF0F3CDE958
:107EBC00023800FB1353584304906069102300935D
:107ECC00006802AB41F2050240F6FF71FFF756F86D
:107EDC00002807DAFFF7D6F903686360002006B0C4
:107EEC00BDE8F0816069002300683A463146FFF72F
:107EFC0065F8031EEEDB1846F1E7000038B584691F
:107F0C000A4B036005467CB16368013B63605BB957
:107F1C00236820469B689847A368013BA3601BB964
:107F2C0023682046DB689847284638BD149D0D0011
:107F3C0010B50446FFF7E2FF20461C2100F011FCAF
:107F4C00204610BD70B54D69054B04468C3544F880
:107F5C00043B06460FCD0FC42B682370304670BD12
:107F6C00449C0D0010B54369B3F88620B3F88430F7
:107F7C009A42044605D06369B3F8842013441879F7
:107F8C0010BD03681B6998470028F4D14FF0FF30EF
:107F9C00F6E710B54369B3F88620B3F884309A42FB
:107FAC00044608D06369B3F88420511CA3F88410EC
:107FBC001344187910BD03681B6998470028F1D148
:107FCC004FF0FF30F6E7F8B543691746B3F8862053
:107FDC00B3F884309A4205460E4616D06969B1F85A
:107FEC008430B1F88640E41ABC4228BF3C460433C6
:107FFC0022461944304600F0E1FC6A69B2F884303C
:10800C002344A2F884302046F8BD03681B699847C6
:10801C000028E3D14FF0FF34F5E742690023A2F8C2
:10802C0084304269A2F8863070472DE9F0411F4632
:10803C0003680C46DB6A8AB0054616469847237DD2
:10804C00D5F81480042B0CBF02200A200622012133
:10805C00FEF7BCFFC8F800006B691B68002B08DA40
:10806C002B682846DB6A0024984720460AB0BDE8F6
:10807C00F0812846FFF7D1FFB7B1002303A9F8B26E
:10808C000393ADF81030FEF779FE0028E8D168694B
:10809C0006230093006803AB41F20B0240F6FF711C
:1080AC00FEF76CFF0028DBD11C22002103A800F096
:1080BC0093FC237D042B1DD14FF407733046ADF890
:1080CC000C30FEF7BBFEADF80E006068FEF7AEFE9E
:1080DC0004906B691C22186803A9FEF75FFF002847
:1080EC00BED104340FCC6D698C350FC523682B7051
:1080FC000124BAE740F61C233046ADF80C30FEF7ED
:10810C009DFE05AEADF80E00231D04F11407186892
:10811C005968324603C20833BB421646F7D1D8E73A
:10812C0030B54269B2F886308BB004462BB1B2F848
:10813C0084209A4201D1FFF770FF6169086800281A
:10814C0018DBB1F886507F2D14D804310823C5F103
:10815C0080022944FEF72AFF002813DD6369B3F877
:10816C0086200AB9A3F884206369B3F886201044EA
:10817C00A3F886006369B3F88600B3F88430C01A9C
:10818C000BB030BDFFF77EF803680B2BF2D0FFF776
:10819C0079F803680B2BEDD020230025CDE90235AF
:1081AC00FFF770F803680193084B0949009302AA82
:1081BC002B463220FEF792FF63691868FEF7E6FE45
:1081CC0063694FF0FF321A60D4E700BFDF9C0D00EB
:1081DC00D89C0D0010B5436904461868002801DBD3
:1081EC00FEF7D4FE63694FF0FF321A60606911220A
:1081FC0000218C3000F0F0FB2046BDE81040FFF76A
:10820C000CBF10B5002304460160C0F884308830E0
:10821C00FFF722FC204610BD73B500234FF47A7291
:10822C00C0E901320E4A0361026043610446AC208E
:10823C000191FBF728FF051E05F10C0608D0012360
:10824C00C5E90133074B01992B603046FFF7D9FF85
:10825C002046C4E90565FFF7E0FE02B070BD00BF23
:10826C00149D0D00F89C0D0010B54FF0FF31044625
:10827C00FFF7D2FF204610BD10B504460068002859
:10828C0001DBFEF783FE204610BD0C30FFF7F4BF78
:10829C002DE9F0439846036893B00D460024DB6A41
:1082AC0006461746984728466B46224621460094B8
:1082BC00FEF71CFD0546002863D1009B002B4BD01C
:1082CC005B69002B48D006A8FFF7C6FB009B5C69D6
:1082DC006378022B04D1211D06A8FFF7FDF826E0D8
:1082EC000A2B24D11122294601A800F075FBA368A2
:1082FC00002B38D004F108030DF1040C1834186865
:10830C005968624603C20833A3429446F7D1062348
:10831C0001A90CA88DF81430FFF7ACFB0DF1340C4F
:10832C00BCE80F0007AC0FC4DCF80030237006A8C3
:10833C00FFF7B2FB80B1336807ADD3F82090124B36
:10834C000C930FCD0DAC0FC42B6823703A464346EB
:10835C000CA93046C84705460098FEF7BFFC2846D6
:10836C0013B0BDE8F083E368002BC3D14FF6FF7068
:10837C00D4F81090FEF75AFD8145BBD104F11401DD
:10838C00AAE72546E8E700BF449C0D0000224068A0
:10839C001146FEF7EFBE002240681146FEF70ABFF9
:1083AC00002240681146FEF715BF40680022FEF718
:1083BC0009BF4068002281F00101FEF7F3BE0023E3
:1083CC0040681A461946FEF7E5BE00224068114681
:1083DC00FEF7C0BE406800220221FEF7C3BE002398
:1083EC0040681A46FEF7AEBE024B04225A60024A9F
:1083FC001A607047C4E70320609D0D00002340689D
:10840C001A46FEF79FBE406800220221FEF7AABE64
:10841C00002240681146FEF79DBE002240681146BE
:10842C00FEF7A8BE002340681A461946FEF7AABEFE
:10843C00002340681A461946FEF7ACBE406800217E
:10844C00FEF7D0BE40680021FEF7D4BE4068002283
:10845C0081F00101FEF7A6BE40680022FEF7B2BE15
:10846C00002240681146FEF7B5BE00224068114656
:10847C00FEF7A0BE2DE9F043002495B016460D463C
:10848C000746FFF7E9FA214618220EA8009400F0DF
:10849C00A3FA4023CDE90C3421466B460CAA304696
:1084AC00FEF724FC044600284CD1024601216868E2
:1084BC00FEF760FE0221804622466868FEF75AFEEF
:1084CC00009E81462146002E3CD000293AD173688B
:1084DC00022B03D00A2B11D0F669F4E7B8F1000F88
:1084EC000AD0716906A8043107ADFFF705FB0FCD63
:1084FC003C1D0FC42B6823704146EDE7B9F1000F0A
:10850C0001D14946E8E77469102201A800F064FA29
:10851C0006238DF8143001AD04F1080318341868E3
:10852C0059682A4603C20833A3421546F7D101A95C
:10853C0006A807ADFFF79EFA0FCD3C1D0FC42B68A4
:10854C002370DEE70098FEF7C9FB384615B0BDE88E
:10855C00F0830000024B034A1A6000225A607047F5
:10856C00CCE703209C9D0D00232813B502D90020D5
:10857C0002B010BDA0F10B03022B1AD8174C2178B6
:10858C00BFF35B8F11F001010BD120460191FBF77A
:10859C008DFD019928B11248FEF7C8FE2046FBF765
:1085AC008AFD0F4B1878FEF731FD0028DFD1012032
:1085BC00DEE7012809D800F0A7F80021007CFEF7BF
:1085CC00CDFC80F00100C0B2D2E709380128EED80A
:1085DC00FFF77CFB007CFEF769FCF2E744E6032026
:1085EC0048E60320232838B504460D460AD8FF294F
:1085FC0008D0FFF7B9FF28B129462046BDE838401E
:10860C00FEF784BB38BD38B504460D46FEF786FB35
:10861C00FF2810D0062804D84D2323FA00F0C307F6
:10862C0009D42046FFF7A0FF28B129462046BDE813
:10863C003840FEF77BBB38BD10B50446FEF76EFB29
:10864C00031FDBB2012B08D92046FFF78DFF20B1A9
:10865C002046BDE81040FEF771BB002010BD0D2870
:10866C0010B504469CBF0E34A4B22046FFF77CFF25
:10867C0050B103212046FEF741FB032804D12046CC
:10868C00BDE81040FEF76ABB002010BD38B50446AB
:10869C000D46FFF769FFF0B104212046FEF72EFBD3
:1086AC00042805D1A9B22046BDE83840FEF74EBBE0
:1086BC0002212046FEF722FB02280CD12046FEF7B1
:1086CC002DFB012801D0042805D129462046BDE800
:1086DC003840FEF74BBB38BD38B50023202543800E
:1086EC00142304460380856005610649284600F082
:1086FC003AF804496060284600F035F8E0602046FE
:10870C0038BD00BFD09D0D0030B50F4D2978BFF39B
:10871C005B8F11F0010487B013D12846FBF7C6FC20
:10872C0078B101A8FFF7D8FF01AA21460748FFF747
:10873C0023FB2846FBF7BFFC054A0649034800F01B
:10874C000BF8024807B030BDD8E70320DCE7032064
:10875C00A4E403202D7D0D000B460146184600F0C5
:10876C001FB9FBF794BCFBF790BC0000014900F06B
:10877C00F9B800BFEC9D0D007FB500241023CDE9A6
:10878C000234036800949E698DF8044015466B46CC
:10879C001268B0479DF8043003F00603062B03BFA4
:1087AC00009B2B600120204604B070BD00989042C5
:1087BC0014BF01200620704710B5034B036004461C
:1087CC0000F0CDF8204610BD2C9E0D0010B50446CF
:1087DC00FFF7F2FF20460821FFF7C3FF204610BD2C
:1087EC002DE9F0411F46DDE90834DDF81880984585
:1087FC000646154607D1079900F0B4F818B1657113
:10880C000020BDE8F0813946304600F0ABF8002876
:10881C00F6D00123C4F800802571A371F0E738B5B8
:10882C0015461C4600F09EF820B10823E360062391
:10883C002560237138BD73B505460C4601921E4662
:10884C0000F090F850B9032E08D82368019A5B69A0
:10885C002946204602B0BDE87040184702B070BDF2
:10886C0010B5034B03600446FFF7A6FF204610BD6E
:10887C008C9E0D0010B50446FFF7F2FF20460C212C
:10888C00FFF76FFF204610BDF7B5089F97420546CE
:10889C000E4614460AD0A86802680897156A314635
:1088AC002246AC4603B0BDE8F04060471946019340
:1088BC0000F058F8019B0028EDD0062003B0F0BD65
:1088CC002DE9F14F0D461946DDE90A4BDDE90CA601
:1088DC0081461746984600F045F890B1002D34605B
:1088EC00377109DB61198A450CBF06210121B17171
:1088FC00002001B0BDE8F08F0235F9D10123B3712E
:10890C00F6E7544506D15946484600F02BF808B115
:10891C007771EDE7D9F808000368CDE90CA6CDE92D
:10892C000A4BDC693A4643462946A44601B0BDE8E9
:10893C00F04F60472DE9F04107460C4615461E46A0
:10894C00FFF76DFF48B9B86803689F692A4633463C
:10895C002146BC46BDE8F0416047BDE8F081704758
:10896C0000207047814208B50ED0406803782A2B4E
:10897C000CD049680B782A2B08BF013100F058F84D
:10898C00B0FA80F0400908BD0120FCE70020FAE7AE
:10899C000A22002100F0F4B80A22002100F0F0B8FD
:1089AC0010B5054C13462CB10A4601460220AFF314
:1089BC00008010BD2046FCE7000000000A449142F4
:1089CC0000F1FF3300D1704710B511F8014B03F8DB
:1089DC00014F9142F9D110BD02440346934200D19C
:1089EC00704703F8011BF9E738B50D4B1D68AB6BED
:1089FC0004467BB91820FEF71DFC0A4A0A4BA863F3
:108A0C00C0E90023094B83600B23838101220023DF
:108A1C00C0E90423AB6B00221C615A6138BD00BF56
:108A2C0040E403200E33CDAB34126DE6ECDE0500D2
:108A3C0010F8012B11F8013B012A28BF9A42F7D0FC
:108A4C00D01A7047034611F8012B03F8012B002AAA
:108A5C00F9D17047034613F8012B002AFBD1181AE1
:108A6C000138704710B50139034632B111F8014F86
:108A7C0003F8014B013A002CF7D11A440021934220
:108A8C0000D110BD03F8011BF9E700002DE9F047F8
:108A9C003A4E86468C4660461CF8014BA55D15F097
:108AAC000805F8D12D2C33D19CF800404FF001086B
:108ABC0000F1020C002B5CD0102B0CD1302C0AD105
:108ACC009CF8000000F0DF0058284DD19CF80140C4
:108ADC0010230CF1020C08F10047013F0026B7FBF4
:108AEC00F3F9304603FB197AA4F13005092D18D897
:108AFC002C46A34224DD751C07D081451DD301D122
:108B0C00A2451ADB00FB034001261CF8014BEBE7E6
:108B1C002B2C08BF9CF80040A84608BF00F1020CA3
:108B2C00C8E7A4F14105192D01D8373CE1E7A4F1C0
:108B3C006105192D04D8573CDBE74FF0FF36E4E70D
:108B4C00731C06D12223CEF80030384642B9BDE85A
:108B5C00F087B8F1000F00D04042002AF7D00EB1D8
:108B6C000CF1FF311160F2E73024002BB3D1082354
:108B7C00B1E7302CA4D00A23ADE700BFC69E0D0090
:108B8C0013460A46014602480068FFF77FBF00BF44
:108B9C0040E403201D400D0059400D0081400D00A4
:108BAC0085400D0000000000256900256C69002E31
:108BBC000043686F69636520313A200043686F6930
:108BCC00636520323A200043686F69636520333A4D
:108BDC002000554E50415553454400696E006F7549
:108BEC00740070776D006477006177005F5865439F
:108BFC006B46776A6F626D75543838725F4E4B38BE
:108C0C00364B326F797054625068594200310032E1
:108C1C000033006C61622E74686577636C2E636F31
:108C2C006D006D61646C69627300626C6E6B696E71
:108C3C00660076657200312E302E3000682D62652C
:108C4C00617400343500627566662D696E003130D2
:108C5C00323400646576005061727469636C65002F
:108C6C006275696C64004A756C2031352032303283
:108C7C00312031393A34323A3039000000646566BB
:108C8C0061756C7420004D5342004C5342003C53B0
:108C9C00504953657474696E6773206465666175B9
:108CAC006C743E003C53504953657474696E677321
:108CBC002025732575202573204D4F444525753E81
:108CCC000000000000003E5B4F5B3E3E6B4F6B3E76
:108CDC001C3E7C3E1C183C7E3C181C577D571C1CB3
:108CEC005E7F5E1C00183C1800FFE7C3E7FF00180E
:108CFC00241800FFE7DBE7FF30483A060E262979F7
:108D0C002926407F050507407F05253F5A3CE73C57
:108D1C005A7F3E1C1C08081C1C3E7F14227F221408
:108D2C005F5F005F5F06097F017F006689956A605F
:108D3C006060606094A2FFA29408047E0408102076
:108D4C007E201008082A1C08081C2A08081E10106F
:108D5C0010100C1E0C1E0C30383E3830060E3E0E19
:108D6C0006000000000000005F0000000700070084
:108D7C00147F147F14242A7F2A122313086462366A
:108D8C00495620500008070300001C2241000041F6
:108D9C00221C002A1C7F1C2A08083E080800807030
:108DAC003000080808080800006060002010080463
:108DBC00023E5149453E00427F40007249494946B6
:108DCC002141494D331814127F1027454545393C34
:108DDC004A49493141211109073649494936464921
:108DEC0049291E0000140000004034000000081443
:108DFC0022411414141414004122140802015909BC
:108E0C00063E415D594E7C1211127C7F4949493610
:108E1C003E414141227F4141413E7F494949417F89
:108E2C00090909013E414151737F0808087F00413F
:108E3C007F41002040413F017F081422417F404088
:108E4C0040407F021C027F7F0408107F3E4141415D
:108E5C003E7F090909063E4151215E7F09192946C9
:108E6C00264949493203017F01033F4040403F1FDF
:108E7C002040201F3F4038403F6314081463030414
:108E8C007804036159494D43007F41414102040874
:108E9C001020004141417F04020102044040404047
:108EAC0040000307080020545478407F284444387D
:108EBC003844444428384444287F385454541800C7
:108ECC00087E090218A4A49C787F08040478004446
:108EDC007D40002040403D007F1028440000417F31
:108EEC0040007C047804787C0804047838444444BA
:108EFC0038FC1824241818242418FC7C08040408B2
:108F0C00485454542404043F44243C4040207C1CCA
:108F1C002040201C3C4030403C44281028444C90BD
:108F2C0090907C4464544C44000836410000007717
:108F3C000000004136080002010204023C262326F0
:108F4C003C1EA1A161123A4040207A385454555924
:108F5C00215555794122545478422155547840205A
:108F6C00545579400C1E5272123955555559395475
:108F7C0054545939555454580000457C410002450D
:108F8C007D420001457C407D1211127DF028252880
:108F9C00F07C545545002054547C547C0A097F497C
:108FAC0032494949323A4444443A324A4848303AC0
:108FBC004141217A3A42402078009DA0A07D3D425B
:108FCC0042423D3D4040403D3C24FF2424487E49E4
:108FDC0043662B2FFC2F2BFF0929F620C0887E0916
:108FEC000320545479410000447D413048484A32B2
:108FFC00384040227A007A0A0A727D0D19317D269A
:10900C0029292F28262929292630484D402038087F
:10901C0008080808080808382F10C8ACBA2F102800
:10902C0034FA00007B000008142A142222142A149B
:10903C00085500550055AA55AA55AAFF55FF55FFCE
:10904C00000000FF00101010FF00141414FF00109B
:10905C0010FF00FF1010F010F0141414FC00141486
:10906C00F700FF0000FF00FF1414F404FC141417A5
:10907C00101F10101F101F1414141F00101010F0CC
:10908C00000000001F101010101F10101010F01016
:10909C00000000FF101010101010101010FF100026
:1090AC000000FF140000FF00FF00001F101700005D
:1090BC00FC04F414141710171414F404F40000FF37
:1090CC0000F714141414141414F700F714141417D0
:1090DC001410101F101F141414F4141010F010F0AE
:1090EC0000001F101F0000001F14000000FC1400E3
:1090FC0000F010F01010FF10FF141414FF141010D7
:10910C00101F00000000F010FFFFFFFFFFF0F0F059
:10911C00F0F0FFFFFF0000000000FFFF0F0F0F0F2C
:10912C000F3844443844FC4A4A4A347E020206064C
:10913C00027E027E0263554941633844443C04403C
:10914C007E201E2006027E020299A5E7A5991C2A04
:10915C00492A1C4C7201724C304A4D4D30304878C3
:10916C004830BC625A463D3E494949007E010101E6
:10917C007E2A2A2A2A2A44445F444440514A4440C5
:10918C0040444A51400000FF0103E080FF0000080A
:10919C00086B6B083612362436060F090F060000D2
:1091AC0018180000001010003040FF0101001F01D2
:1091BC00011E00191D1712003C3C3C3C0000000035
:1091CC000000000000000000000000000000000093
:1091DC000000000085570D00F9760D00A5400D002C
:1091EC008D510D008F510D00C1510D009D510D0081
:1091FC00AF510D00D1500D008D510D00B9530D0024
:10920C0033530D00D9510D0017520D0051520D0062
:10921C0097520D0035530D00B3520D0000000000A5
:10922C000000000095580D00B5580D0085570D0035
:10923C00F9760D00E1630D008D510D008F510D007D
:10924C00C1510D009D510D00AF510D00D1500D00BD
:10925C008D510D00B9530D009B650D002F6B0D004A
:10926C00E16A0D0051520D0097520D0035530D005F
:10927C00B3520D0000044D5154540400064D514995
:10928C007364700300000000000000007D500D00AE
:10929C0051500D0053500D000000000000018000E3
:1092AC00000000000000000003800000000000002F
:1092BC0000000007C000000000000000000007C014
:1092CC000000000000000000000FC00000000000C3
:1092DC00000000001FE00000000000000000001F64
:1092EC00E00000000000000000003FE00000000073
:1092FC0000000000003FF000000000000000000033
:10930C007FF0000000000000001FF87FF00000005C
:10931C00000000003FFE7FF0000000000000003F56
:10932C00FF7FF0000000000000001FFFFBE00000CA
:10933C0000000000000FFFF9FFC00000000000005B
:10934C000FFFF9FFF800000000000007FFF1FFFF1E
:10935C0000000000000003FC73FFFF800000000011
:10936C000001FE3FFFFF80000000000000FF1E0F09
:10937C00FF000000000000007FFE1FFC000000004A
:10938C000000003FFFFFF8000000000000000FDFAE
:10939C00FFE0000000000000001F19FFC0000000EB
:1093AC00000000003F3CFF00000000000000007EB9
:1093BC007CF800000000000000007FFE7C00000034
:1093CC000000000000FFFFFC000000000000000097
:1093DC00FFFFFE0000000000000000FFFFFE000089
:1093EC00000000000001FFEFFE0000000000000084
:1093FC0001FFCFFE0000000000000003FF07FE008D
:10940C0000000000000003FC07FE0000000000004C
:10941C000003F003FE00000000000000018000FECD
:10942C00000000000000000000007E0000000000B2
:10943C0000000000003E00000000000000000000E2
:10944C000C000000000000078000FC000003C000BE
:10945C000000078001FC000003C000000007800131
:10946C00FC000003C0000000078001E00000001EAB
:10947C00000000078001E00000001E007FE3F79F62
:10948C00F9FDE7787BDFC0FFF7FFBFFDFDFF787BC1
:10949C00DFC0FFF7FFBFFDFDFF787BDFC0F0F78774
:1094AC00BC3DE1FF787BDE00F0F787BC3DE1F07856
:1094BC007BDE0000F787803DE1E0787BDE007FF704
:1094CC00879FFDE1E0787BDE00FFF787BFFDE1E0E1
:1094DC00787BDE00F0F787BC3DE1E0787BDE00F0C6
:1094EC00F787BC3DE1E0787BDE00F0F787BC3DE11F
:1094FC00E0787BDE00FFF7FFBFFDE1E07FFBDFC024
:10950C00FFF7FFBFFDE1E07FFBDFC07CF3F39F3D86
:10951C00E1E03E7BCFC00000000000000000000036
:10952C0000FFFFFFFFFFFFFFFFFFFFC0FFFFFFFF7D
:10953C00FD68DB111A31C0FFFFFFFFFD2B5AFB6AE0
:10954C00EFC0FFFFFFFFFD4B5B3B1A33C0FFFFFF7C
:10955C00FFFD6B5BDB6AFDC00000600000000000DB
:10956C00000000000000000000E00000000000000F
:10957C000000000000000001E000000000000000FE
:10958C0000000000000001F00000000000000000DE
:10959C00000000000003F0000000000000000000CC
:1095AC000000000007F000000000000000000000B8
:1095BC0000000007F80000000000000000000000A0
:1095CC0000000FF800000003C0007E000001E00066
:1095DC007F0FF800000003C000FE000001E000FF58
:1095EC00EFF800000003C000FE000001E000FFFFE8
:1095FC00F800000003C000F00000000F007FFE7FA9
:10960C00C0000003C000F00000000F003FFE7FF818
:10961C003FF1FBCFFCFEF3BC3DEFE01FFE7FFF7F75
:10962C00FBFFDFFEFEFFBC3DEFE01FC6FFFF7FFB35
:10963C00FFDFFEFEFFBC3DEFE00FE3C7FE787BC310
:10964C00DE1EF0FFBC3DEF0007FF87FC787BC3DE1E
:10965C001EF0F83C3DEF0001FFFFF0007BC3C01E85
:10966C00F0F03C3DEF0001F37FE03FFBC3CFFEF099
:10967C00F03C3DEF0003E33F807FFBC3DFFEF0F0E7
:10968C003C3DEF0007E73C00787BC3DE1EF0F03C6E
:10969C003DEF0007FFBE00787BC3DE1EF0F03C3DC3
:1096AC00EF0007FFFE00787BC3DE1EF0F03C3DEFC1
:1096BC00000FFFFE007FFBFFDFFEF0F03FFDEFE051
:1096CC000FFFFF007FFBFFDFFEF0F03FFDEFE00F31
:1096DC00F9FF003E79F9CF9EF0F01F3DE7E01FF156
:1096EC00FF0000000000000000000000001F80FFD1
:1096FC00007FFFFFFFFFFFFFFFFFFFE01C007F006D
:10970C007FFFFFFFFEB46D888D18E000001F007F07
:10971C00FFFFFFFE95AD7DB577E000000F007FFFEA
:10972C00FFFFFEA5AD9D8D19E0000006007FFFFF39
:10973C00FFFEB5ADEDB57EE00000000000000000BE
:10974C00B5630D00CD630D0085570D00F9760D0046
:10975C00E1630D008D510D008F510D00C1510D00B5
:10976C009D510D00AF510D00D1500D008D510D00CC
:10977C00B9530D009B650D002F6B0D00E16A0D00B8
:10978C0051520D0097520D0035530D00B3520D0080
:10979C000080C0E0F0F8FCFE000103070F1F3F7FC4
:1097AC00AED580A8D300408D2000A1C8DB40A4A674
:1097BC002EAFDA02818FDA1281DA02812200FF21C8
:1097CC0000000000B96C0D00B96C0D00B96C0D00F7
:1097DC00B96C0D00B96C0D00B96C0D00B96C0D00B5
:1097EC00B96C0D00B96C0D00B96C0D00B96C0D00A5
:1097FC00B96C0D00B96C0D00B96C0D00B96C0D0095
:10980C00B96C0D00B96C0D00B96C0D00B96C0D0084
:10981C00B96C0D00B96C0D00B96C0D00B96C0D0074
:10982C00B96C0D00B96C0D00B96C0D00B96C0D0064
:10983C00B96C0D00B96C0D00B96C0D00B96C0D0054
:10984C00B96C0D00B96C0D00B96C0D00B96C0D0044
:10985C00B96C0D00B96C0D00B96C0D00B96C0D0034
:10986C00B96C0D00B96C0D00B96C0D00B96C0D0024
:10987C00B96C0D00B96C0D00B96C0D00B96C0D0014
:10988C00B96C0D00B96C0D00B96C0D00B96C0D0004
:10989C00B96C0D00B96C0D00B96C0D00B96C0D00F4
:1098AC00B96C0D00B96C0D00B96C0D00B96C0D00E4
:1098BC00B96C0D00B96C0D00B96C0D00B96C0D00D4
:1098CC00B96C0D00B96C0D00B96C0D00B96C0D00C4
:1098DC00B96C0D00B96C0D00B96C0D00B96C0D00B4
:1098EC00B96C0D00B96C0D00B96C0D00B96C0D00A4
:1098FC00B96C0D00B96C0D00B96C0D00B96C0D0094
:10990C00B96C0D00B96C0D00B96C0D00B96C0D0083
:10991C00B96C0D00B96C0D00B96C0D00B96C0D0073
:10992C00B96C0D00B96C0D00B96C0D00B96C0D0063
:10993C00B96C0D00B96C0D00B96C0D00B96C0D0053
:10994C00B96C0D00B96C0D00B96C0D00B96C0D0043
:10995C00B96C0D00B96C0D00B96C0D00B96C0D0033
:10996C00B96C0D00B96C0D00B96C0D00B96C0D0023
:10997C00B96C0D00B96C0D00B96C0D00B96C0D0013
:10998C00B96C0D00B96C0D00B96C0D00B96C0D0003
:10999C00B96C0D00B96C0D00B96C0D00B96C0D00F3
:1099AC00B96C0D00B96C0D00B96C0D00B96C0D00E3
:1099BC00B96C0D00B96C0D00B96C0D00B96C0D00D3
:1099CC00B96C0D00BB6C0D0051420D00BB6C0D0051
:1099DC00BB6C0D00BB6C0D00BB6C0D00BB6C0D00AB
:1099EC00BB6C0D00BB6C0D00BB6C0D00BB6C0D009B
:1099FC00BB6C0D00BB6C0D00BB6C0D00BB6C0D008B
:109A0C00BB6C0D00BB6C0D00BB6C0D00BB6C0D007A
:109A1C00BB6C0D00BB6C0D00BB6C0D00BB6C0D006A
:109A2C00BB6C0D00BB6C0D00BB6C0D00BB6C0D005A
:109A3C00BB6C0D00BB6C0D00BB6C0D00BB6C0D004A
:109A4C00BB6C0D00BB6C0D00BB6C0D00BB6C0D003A
:109A5C00BB6C0D00BB6C0D00BB6C0D00BB6C0D002A
:109A6C00BB6C0D00BB6C0D00BB6C0D00BB6C0D001A
:109A7C00BB6C0D00BB6C0D00BB6C0D00BB6C0D000A
:109A8C00BB6C0D00BB6C0D00BB6C0D00BB6C0D00FA
:109A9C00BB6C0D00BB6C0D00BB6C0D00BB6C0D00EA
:109AAC00BB6C0D00BB6C0D00BB6C0D00BB6C0D00DA
:109ABC00BB6C0D00BB6C0D00BB6C0D00BB6C0D00CA
:109ACC00BB6C0D00BB6C0D00BB6C0D00BB6C0D00BA
