:02000002D0002C
:1040000000400D00C89F0D00000006000C000501D7
:084010000401BD0B00000000DB
:04401800F08A0D001D
:10401C0009480A49884208B505D0094A824202D0AB
:10402C00121A04F073FC0748074A0021121A04F014
:10403C007BFC014808BD00BF38E40320349F0D0011
:10404C00A4E40320A4E40320F0E7032070B5074E9A
:10405C00074C03F03DFCA41BA4080025A54200D18D
:10406C0070BD56F8043B98470135F7E70C9F0D00DF
:10407C00309F0D0000F080BD08B500F07FFEBDE85C
:10408C00084003F0E7BB03F08FB803F08DB803F0E2
:10409C0093B803F091B8000008B5034A00210C2036
:1040AC0002F0CEFFFEE700BF1D6D0D000078B0FAE8
:1040BC0080F04009704701230370704737B5044600
:1040CC000846019104F06EFC6368A268451CE81870
:1040DC00904208D8206801992A46184404F016FC2E
:1040EC0060682844606003B030BD000038B5846956
:1040FC000A4B036005467CB16368013B63605BB9A6
:10410C00236820469B689847A368013BA3601BB9B2
:10411C0023682046DB689847284638BD589C0D001C
:10412C0008B502F0FDFD034B1860BDE8084003F034
:10413C0023B800BFD4E7032003682BB14268934235
:10414C0002D2184604F0CCBB0020704738B5056885
:10415C00044645B143689D4205D2284604F022FC32
:10416C00013005442560204638BD000038B50446B2
:10417C000B46D0E901012568044A091A284403F0CA
:10418C002BF8636801300344636038BD048B0D0069
:10419C0038B504460B46D0E901012568044A091AD2
:1041AC00284403F019F8636801300344636038BD98
:1041BC00078B0D0010B5134C204602F027FA204651
:1041CC00012101F014FB00224FF00113C4E9042378
:1041DC000D4B2046196803F06CFA0C4B20461968FD
:1041EC0003F067FA0A4B2046196803F062FA094B90
:1041FC002046196803F05DFA2046BDE8104002F035
:10420C0071BC00BFB4E5032034E6032018E503209D
:10421C0028E5032038E50320024B026819680248A0
:10422C0001F0ADBE08E5032048E5032000B58DB0D4
:10423C000968684603F064F9144908A803F083F987
:10424C00134908A803F0BFF9694603F0B0F9014619
:10425C0004A803F078F908A803F007F904A908A842
:10426C0003F071F908A8FFF7D7FF08A803F0FDF8D1
:10427C006946084803F058F904A803F0F6F86846B4
:10428C0003F0F3F80DB05DF804FB00BF24E6032047
:10429C000B8B0D0028E50320F8B505460C46164699
:1042AC004AB90368C9B29B6898470746284603F089
:1042BC00F4F93844F8BD00290CDA0A2A0AD12D2168
:1042CC0003F0E8F961420746F2B2284603F0FBF925
:1042DC000744EBE721460027F6E7000010B51A4C1F
:1042EC00204602F093F92046012101F080FA0022C9
:1042FC004FF00113C4E90423144B2046196803F052
:10430C00D8F91349204603F0C1F9124B0A22196857
:10431C002046FFF7C1FF1049204603F0B7F90F4BB9
:10432C000A2219682046FFF7B7FF0D49204603F013
:10433C00ADF90C4B204619680A22FFF7ADFF204659
:10434C00BDE8104002F0CEBBB4E5032034E60320F8
:10435C000D8B0D00A8E50320188B0D00ACE5032098
:10436C00238B0D00B0E50320F8B502F1080323F010
:10437C00070300AFADEB030D1446684604F0C6FA14
:10438C000023012C0DF80430374E384C6D4627D9DC
:10439C009DF80030312B19D13548694603F0DEF811
:1043AC00216800290BDB334B334A1B681268994296
:1043BC0053DC9A424FDCFF210E2004F00FF93378C6
:1043CC00002B4ED0FFF7F6FEBD46F8BD322B02D1C6
:1043DC002A486946E2E7332B22D129486946DDE7B2
:1043EC001ED19DF80030312B08D12148694603F0CD
:1043FC00B5F8214A136801331360D1E7322B05D18C
:10440C001E48694603F0AAF81A4AF3E7332B07D182
:10441C001B48694603F0A2F8236801332360BFE709
:10442C002946184803F09AF8134B174910480025F1
:10443C001D60104B25601D6003F090F812490F4869
:10444C0003F08CF810490E4803F088F80123337000
:10445C000E4B1D70A4E77F21AEE79A42FBDD0121D4
:10446C00AAE7FFF73BFFAFE738E40320B0E50320F2
:10447C0018E50320ACE50320A8E5032028E503207C
:10448C0038E5032034E60320178B0D0004E50320E8
:10449C0008B500234377006803F044FEBDE80840EC
:1044AC0002F0C0BB2DE9F04301EB02098FB0494586
:1044BC00CDE9051980460D46164680F0928005A878
:1044CC000F88FFF743FE0368994540F28A8005A8E0
:1044DC00FFF732FE47F276239F42C4B200F0A98068
:1044EC0027D847F261239F427ED047F264239F4234
:1044FC0042D046F670539F4228D1634E634FDFF88B
:10450C00A081059B99456CD905A8FFF715FEC4B28F
:10451C0005A8FFF71BFE059D3146284604F030FA2E
:10452C000146E0B9204604F005F805A8FFF70EFE99
:10453C00E7E747F264739F423FD047F276739F429E
:10454C0000F0878047F261739F425FD00023CDE972
:10455C00013302220092B8F81A20194629E0394694
:10456C00284604F00DFA28B14146284604F008FA12
:10457C000028DAD10121D5E70AAB4549079307A8F2
:10458C0010230025CDE90853FFF798FD07A8214615
:10459C00FFF7ECFD204603F0F7FF014607A8FFF7F5
:1045AC00F7FD089BCDE90155013B0093079B2A467B
:1045BC001421404600F022FB13E005A8FFF7C6FDCE
:1045CC00036899450DD9A4B20121204603F0B2FF2E
:1045DC0005A8FFF7B1FD011E18BF0121204603F00D
:1045EC00BAFF0FB0BDE8F0830AAB079307A81023FE
:1045FC0028490025CDE90853FFF760FD07A821469F
:10460C00FFF7B4FD204603F0D2FFC6E705A8FFF77D
:10461C009DFD03689945E4D9A4B20121204603F01D
:10462C0089FF05A8FFF788FD0146204603F0D6FF59
:10463C00D7E720468DF8284002F0F6FA03460AA880
:10464C0023B1154A934201D09847CAE702F0E8FA21
:10465C00C7E705A8FFF77AFD059B8DF81C405D1B8D
:10466C00751B2046CDE90A350C9502F0E7FA034696
:10467C000AA907A823B1094A934201D09847B0E789
:10468C0002F0CFFAADE700BF2E8B0D00318B0D0081
:10469C00398B0D003C8B0D002D6C0D002F6C0D001B
:1046AC00358B0D002DE9F0418CB004AF044605228A
:1046BC000068391D03F06BF8B8B3052804D000204E
:1046CC002037BD46BDE8F081B7F80520130A43EA50
:1046DC000223B7F80720A7F8053099B2130A43EA6A
:1046EC0002231FFA83F8A7F807300029E7D03B799B
:1046FC0023BB02F093FA0246E060607FB7F8073004
:10470C00C0B9B7F80510012914D1092B0FD0C82B4B
:10471C0001D0042BD4D1012562612046657700F0CD
:10472C001BFBFFF7FDFC02F07DFA0120C8E7032319
:10473C006377C5E7581F18BF0120C1E7B8F5806F34
:10474C0003D92046FFF7A4FEEFE708F1080323F096
:10475C0007036E46ADEB030D04AD206842462946B7
:10476C0003F015F880454FF000007FD1B7F8073003
:10477C00E85402F053FA3B79E060142B00F0A68069
:10478C0048D80F2B00F0A28007D8022B48D0062B5C
:10479C0051D02046FFF77CFE58E0112BF9D10023B5
:1047AC003B70B7F807302B449D42C7E903534DD2F9
:1047BC0007F10C00D5F80080FFF7C8FCFB68B7F8D0
:1047CC0007105D1B4D1BC7E905357B68FD61C3F305
:1047DC000F236383644B984500F0BF8000F28C80FC
:1047EC00A3F57F236FF400721344984500F09D806D
:1047FC0079D8A3F50033063B984500F09C8003F56F
:10480C000033033398456BD107F11401384602F09D
:10481C0008FA65E0292B1BD0372B17D01D2BB8D1EC
:10482C00637F43B901236377204600F095FAFFF7C5
:10483C0077FC02F0F7F90023C821B7F805200091A6
:10484C00CDE901331946204600F0D8F901200DE0DE
:10485C00A3681BB9402002F0A7FCA060B7F8078042
:10486C00A8444545C7E9055802D30020B54627E7BB
:10487C0029464022A06804F09DF8A368002583F81F
:10488C003F5007F11400FFF761FC036843451BD24E
:10489C00786920B1BB69984214D204F025F885B22E
:1048AC00206803F03FFC2368A2685A631D8700232D
:1048BC00637702F0B3F9A0F59C500838C4E9030003
:1048CC006061C3E72846EAE75025E9E77B68B7F85B
:1048DC000720C3F30F23638329462046FFF7E2FD2D
:1048EC0000236383B2E7214B9845F9D107F11401FA
:1048FC00384602F096F9F3E71D4B984521D003F1A9
:10490C009F6303F5003303F5807398451FD003F1C3
:10491C006E4303F5302303F586739845E0D107F118
:10492C001401384602F07DF9DAE707F11401384634
:10493C0002F077F9D4E707F11401384602F071F967
:10494C00CEE707F11401384602F06BF9C8E707F11E
:10495C001401384602F065F9C2E707F11401384634
:10496C0002F05FF9BCE700BF766673006462670013
:10497C0061636F6E2DE9F04104468CB00D46FFF774
:10498C00CFFB637F022B00F0A880237F628B013367
:10499C00DBB223770AB1012516E0022BFBD8206885
:1049AC0003F0DFF9B8B125B9206803F061FB0028EA
:1049BC0011DD2046FFF776FE05460028F4D120686D
:1049CC0003F0B0FB02F02EF9237F013B237728463E
:1049DC000CB0BDE8F08102F021F90646206803F026
:1049EC00C0F9677F012F054629D120B966612046A1
:1049FC00FFF74EFDE8E7E3684FF21862F31A9342B3
:104A0C0004D92046FFF744FD0025DDE74AF6C872BD
:104A1C00934203D82369F31A9342BCD9636941F2D8
:104A2C007072F31A9342B6D90023CDE90133009387
:104A3C001A460621204600F0E1F86661ABE7002F2C
:104A4C00A9D16269B21A40B141F270739A42A2D9EB
:104A5C00206803F067FB6777D6E741F288339A4208
:104A6C0099D9206803F05EFBD4F800C0DCF834E080
:104A7C00BCF83880BEF1000F0BD02B464246714675
:104A8C00604603F0ADFB431E5D425D418DB966612E
:104A9C009AE7134B06930CF120070FCF07AD0FC508
:104AAC003B682B704246734606A9604603F065FAD4
:104ABC00E9E76368059301261846268303F072FF25
:104ACC000022CDE90122059B009032461D21204693
:104ADC0000F094F82369636176E7002577E700BF5F
:104AEC00889B0D002DE9F04115468CB00446043529
:104AFC0040F6B8300F46984602F08EF80FCD01AE56
:104B0C000FC62B683370676002F088F8A0F59C50D4
:104B1C00083801AFC4E9030060610FCF07AE0FC6C0
:104B2C003B68337007AF0FCF25684FF0000CC5F80A
:104B3C0034C0A5F8388020350FC533682B70664615
:104B4C0044F24F67206803F0EDFA667702F066F8DE
:104B5C000546637F012B0CD002F060F8401BB84275
:104B6C0004D800212046FFF705FFF2E7637F012BF5
:104B7C00E8D10CB0BDE8F08100B5012189B00E2060
:104B8C0003F0D8FC0021022003F0D4FC0021032008
:104B9C0003F0D0FC0021042003F0CCFC144800F0FE
:104BAC0075FE134801F032FD0121114800F01FFE83
:104BBC000F48002303614FF00113436101F092FF92
:104BCC0002F0AEFF4FF4165102F09EFFA2230093A9
:104BDC00AC22EA23A72102A802F02AFF05490648C5
:104BEC0042F2823302AAFFF77DFF09B05DF804FBA5
:104BFC00B4E503203F8B0D00A8E403202DE9F04F12
:104C0C0083B000AF044600683D6B88461646994653
:104C1C00EB4603F0A6F800287FD0B8F11D0F04D89E
:104C2C004C4B23FA08F3DB0702D4637F012B74D1BE
:104C3C0046B9668B36B9238B01339BB2002B71D0EE
:104C4C002383268BA8F10C03082B16D8D4E9032355
:104C5C00934238BF134603F1420A01F0DFFFAAEB7F
:104C6C000000002860DB00212046FFF783FE01F0E6
:104C7C00D5FFAAEB00000028F5DAB9F1000F5AD0E5
:104C8C006B1D7A6B002ABA6B08BF002203EB020A79
:104C9C000AF1070323F00703ADEB030DBB6BC7F859
:104CAC0004D0EA18C2F3072376BA43EA02238DF83C
:104CBC000080ADF80160ADF80330B9F1000F3CD0C5
:104CCC00002D3AD02A4649460DF1050003F01EFE90
:104CDC00681D7B6B3BB1BB6B2BB11A467B68796B48
:104CEC00184403F013FE002555452AD2AAEB050201
:104CFC007B682068B2F5806F28BF4FF48062591929
:104D0C0003F019F80646002001F086FFBEB92068B2
:104D1C0003F008FA667701F085FF0C37DD46BD46D7
:104D2C00BDE8F08F01238BE7217F0029A5D1204618
:104D3C00FFF720FEA1E70523A3E70520C9E73544CB
:104D4C00D2E703D02046FFF7A3FBE6E701F066FFAE
:104D5C002061E2E74500002000B595B004AB0022CD
:104D6C000193492300930292034B1121FFF746FF55
:104D7C0015B05DF804FB00BF858B0D001FB5354CDD
:104D8C0035480021FFF7F6FD204600F0A8FD20462F
:104D9C0001F03CFC2046012100F029FD00224FF0DF
:104DAC000113C4E904232D4800F06DFF08B32B4810
:104DBC0001F041F9274800F0ABFD044648B3284BFD
:104DCC0001221A70FFF7F6F9022003F0DDFB01282F
:104DDC0029D1244B1A7832BB23491870684602F04B
:104DEC008FFB6846FFF718FA684602F03EFB04B0EA
:104DFC0010BD684602F0C8F90099184801F034F863
:104E0C00684602F032FB194B1448196801F05BFA42
:104E1C00D0E7104800F086FD0028D5D0104B1C7050
:104E2C00FFF75CFAD0E7032003F0AEFB012802D1B8
:104E3C000C4B1A785AB1042003F0A6FB0128D6D1EA
:104E4C00084B1A78002AD2D109491870C6E70949CB
:104E5C001870C3E7B4E50320A8E4032048E5032059
:104E6C0038E4032004E50320608B0D0008E50320E3
:104E7C00648B0D00628B0D00F7B53B4E3B4D3C4FE8
:104E8C000021012002F0FCF83046002403F094F9D4
:104E9C0006F11C0002F088FD746334872A463549FC
:104EAC00304603F001FC344B34499C61C3E9006487
:104EBC00334E9C83C3E90244C3E9044440F25B7261
:104ECC00304B00943046304C00F0D4FD2A462F492C
:104EDC00304603F0E9FB2E4E0721204600F0A8FCDB
:104EEC002A462C49204603F0DFFB2B4C3146384632
:104EFC0002F006FB3846294F2A46214603F0D4FB24
:104F0C003146384602F0FCFA3846254F2A462146EF
:104F1C0003F0CAFB3146384602F0F2FA3846214F0C
:104F2C002A46214603F0C0FB314638461E4E02F09D
:104F3C00E7FA2A462146384603F0B6FB1B493046B1
:104F4C0002F0DEFA30461A4E2A46214603F0ACFB3C
:104F5C001849304602F0D4FA2A462146304603B0AE
:104F6C00BDE8F04003F0A0BBC8E40320A4E4032098
:104F7C0018E50320F9400D00A8E40320668B0D0012
:104F8C0048E5032075430D00B4E50320D9620D00FC
:104F9C00178B0D0009580D0077740D0028E50320C0
:104FAC0038E5032034E6032024E60320628B0D0051
:104FBC0008E50320758B0D00704710B510210446D1
:104FCC0003F077FB204610BD0EB403B503AB0021F4
:104FDC0053F8042B019302F094FB02B05DF804EB40
:104FEC0003B0704773B5044608462279A36832B102
:104FFC00A3B90B4902B0BDE8704002F047BB094AA7
:10500C00267B094D0949647B012E18BF2946CDE941
:10501C0000140749FFF7D8FF02B070BD054AEFE74F
:10502C00E18B0D00178B0D00DD8B0D00D98B0D0066
:10503C00F78B0D00D08B0D002DE9F04F85B01F467E
:10504C00BDF93880BDF83C30A8EB0209A7EB010A8A
:10505C00B9F1000FB8BFC9F10009BAF1000FB8BF20
:10506C00CAF1000AD14583460C46154604DD3A4682
:10507C002C4647460D469046BC4205DD2A46454621
:10508C00904622463C4617463E1BB2B20092A8EB15
:10509C000502002AB8BF52420192C6F3C03202FA8E
:1050AC0086F64545B4BF01224FF0FF3276100292CE
:1050BC00BC421CDCDBF800200393D145D2F81880ED
:1050CC00C7BF294622462A4621465846C047019A60
:1050DC00039BB61AB1B236B2002E05DA029A154409
:1050EC00009A56182DB236B2013424B2E0E705B05E
:1050FC00BDE8F08F704710B404682469A4465DF8CD
:10510C00044B604730B40468BDF808500295A46B9A
:10511C00A44630BC604730B40468BDF80850029512
:10512C00E46BA44630BC604770B4BDF90C50BDF8BC
:10513C0010600468CDE90356246CA44670BC60472B
:10514C002DE9F3411C460368BDF820805B690546D8
:10515C001646013C34440F4624B298472B68CDF8D0
:10516C00048000949C6A28463B4632463946A04748
:10517C002B68DB6A284602B0BDE8F04118472DE9E0
:10518C00F3411D460368BDF820805B690446174651
:10519C000E469847CDE9007822686B1E3344956A19
:1051AC0020461BB23A463146A8472368DB6A2046A4
:1051BC0002B0BDE8F04118472DE9F3471E460368DD
:1051CC00BDF928905B69BDF82C800C460546174646
:1051DC0098472644B4422B680BDACDF80080D3F8FC
:1051EC0020A021464B463A4628460134D04724B2EB
:1051FC00F0E7DB6A284602B0BDE8F047184713B564
:10520C0002680191B0F90E100091146CB0F90C30D9
:10521C0000221146A04702B010BD2DE9F3471D46F0
:10522C000368BDF82C805B69BDF9289004460F46D5
:10523C00164698472368CDF80080D3F824A0324650
:10524C002B4639462046D0472368CDF8008009F11B
:10525C00FF323244D3F824A039462B46204612B2F2
:10526C00D0472368CDF80080D3F820A032464B46B7
:10527C0039462046D0476B1ED9192368CDF80080DB
:10528C001D6A20464B46324609B2A8472368DB6AA2
:10529C00204602B0BDE8F047184770472DE9F743A8
:1052AC0099421646BDF92870BDF82C9002688046CC
:1052BC000D461C4613D1BE42C8BF3346CDF82890CC
:1052CC00C4BF3E461F467B1C946B9B1B1BB23246D5
:1052DC0029464046A44603B0BDE8F0436047BE42B1
:1052EC000AD19942C2BF0B4625461C46631CCDF819
:1052FC002890D46B5B1BE9E753699847CDE900799B
:10530C00D8F8003040469F6A324623462946B847B3
:10531C00D8F80030DB6A404603B0BDE8F0431847CC
:10532C0001F00303B0F90A208376C907B0F90830FD
:10533C0059BF8381C2818281C381704730B542815C
:10534C00C281074A074D0181002481814FF0FF3152
:10535C00C0E905124460056004610477046230BD45
:10536C00010100011C910D002DE9F04F89B0CDE930
:10537C0002120268BDF948800493BDF94C305269A1
:10538C000593BDF850A00446904718F107024FF062
:10539C00000648BF08F10E024FEAE20B01963546B3
:1053AC00039B019ABDF904109A18059B8B4212B20B
:1053BC0027DD049B33444FF0000906930FFA89F064
:1053CC0080451FFA89F117DD4F0705BF069BC010FA
:1053DC006D001D5C18BFEDB22B060AD5029B206830
:1053EC0007921944836909B21F4620465346B847B1
:1053FC00079A09F10109E1E7019B013301935E442E
:10540C00CEE72368DB6A204609B0BDE8F04F1847A9
:10541C002DE9F04F2DED028B91B01646026ABDF8C6
:10542C0074809DF878509DF87C4003911F46BDF820
:10543C00703004938346002A40F0C580B0F90C30DC
:10544C008B4240F34C81B0F90E30B34240F34781AC
:10545C00062313FB0513002B40F3418106EBC40319
:10546C00002B40F33C81037F1BB9AF2F84BF013766
:10547C00FFB2DBF8003058465B6998470522099269
:10548C0000220592984A07EB8703D3180C93B3B20A
:10549C000693059A0C9B9B5C0793ABB20B93BDF8E0
:1054AC000C300893039B02FB05F919FA83F90FFAE8
:1054BC0089F308EE103A08230A93039B02EB030AC4
:1054CC004FF000090FFA8AFA079ADBF80030D2077E
:1054DC0052D5012D1FFA89F23ED1012C3CD19B698A
:1054EC0006991F46049B0A4412B251465846B847C7
:1054FC0009F101034FFA83F9079B5B0807930A9B99
:10550C00013B13F0FF030A93DED1059F01377BB2F9
:10551C000593099B013B13F0FF030993B9D1049B3D
:10552C0043450FD0012DDBF800303BD1012C39D194
:10553C000899CDF8008005311C6A3246082309B25F
:10554C005846A047DBF80030DB6A584611B0BDEC7A
:10555C00028BBDE8F04F1847069914FB02F20A447F
:10556C00049901910094DB6918EE101A1F4612B2CF
:10557C002B465846B847BBE7049A4245B8D0012D94
:10558C001FFA89F207D1012C05D19B6906991F4698
:10559C000A444346A8E70699CDF8048014FB02F2AE
:1055AC000A44DFE70B9ACDF8048002EB8201089ADB
:1055BC00E4000A4411460094DC6932462B4609B2D9
:1055CC005846A047BEE7137A516812680D92FF1A2D
:1055DC00FFB201EBC70331F8372006929A78099293
:1055EC00DA780B92012D93F9052093F906A00A9213
:1055FC0001D8012C57D9BDF9283008930FFA8AF33A
:10560C000793DBF8003058465B699847B3B24FF00C
:10561C0000080E931AFA86F3C14647460F930B9B6C
:10562C009F428FD2079B0E9A3B4403FB042300221C
:10563C0005920F9A1BB202EB070A08EE103A0FFA0A
:10564C008AFA4346099A0599914241D25A1CD2B220
:10565C005B070C9207D1069B06990D9A01339BB2FE
:10566C0012F80190069319F0800F12D0012DDBF87F
:10567C000030BDF80C101AD1012C18D10A9A9B6974
:10568C001144059A11441E465246049B09B25846D1
:10569C00B047059E0136F3B24FEA490905935FFA0C
:1056AC0089F90C9BCEE70023CDE90733A9E70598D0
:1056BC00089A024402FB0511049ACDE90042DB6909
:1056CC0018EE102A1E4609B22B465846B047E0E7A2
:1056DC00099B013798445FFA88F8FFB29FE711B035
:1056EC00BDEC028BBDE8F08F148C0D00F0B5026A96
:1056FC0085B004460B46002A34D10A2908D1438AC6
:10570C000282427E03EBC2036382012005B0F0BD2E
:10571C000D29FAD0E17E007E657E71B1B4F910607E
:10572C00062111FB0061B4F90C60B142C1BFB4F9A0
:10573C001210228201EBC5026282E28A0192A28AD5
:10574C000092CDE90205B4F91220B4F910102046EC
:10575C00FFF75EFE237E228A03EB430302EB430337
:10576C002382D2E70A2907D100230382937A417E50
:10577C00428A01FB0323C7E70D29C6D0157AA9423B
:10578C00C3D3517A9942C0D351685D1BEDB201EB82
:10579C00C505AF782FB3E97819B3E17E007E667E3C
:1057AC0091B195F905103944B4F9107000FB0171F1
:1057BC00B4F90C70B94207DD00272782B4F9121036
:1057CC00927A02FB06126282E28A0192A28A00920B
:1057DC00CDE90206B4F91220B4F910102046FFF7F7
:1057EC0017FE2979237E228A01FB0323B8E70129BE
:1057FC0038BF0121017641767047000010B5064B89
:10580C0003600446006D08B101F09AFA204600F0DE
:10581C0085FD204610BD00BF74910D0010B50446E7
:10582C00FFF7ECFF2046702102F043FF204610BD2D
:10583C0030B585B004460D4602F00EFF104A1149F2
:10584C00CDE901214FF0FF32802103460092204622
:10585C00202200F0E9FD0C4B23600023C4E9143531
:10586C0004F1580000F068F804F1600000F064F8EE
:10587C0004F1680000F060F8204605B030BD00BFB0
:10588C00801A0600A086010074910D0013B5044621
:10589C00503001F04DFA636DD90705D50222042171
:1058AC0004F1580000F05CF8636D9A0705D50022EE
:1058BC00032104F1600000F053F8636D5B0705D51C
:1058CC000222114604F1680000F04AF8012300930B
:1058DC003C220221204600F0A7FE02B010BD10B5FC
:1058EC00436DD907044602D5583000F046F8636D75
:1058FC009A0703D504F1600000F03FF8636D5B0775
:10590C0005D504F16800BDE8104000F036B810BDB4
:10591C00436D024613F0010003D002F1580000F071
:10592C005CB87047436D024613F0040003D002F1DB
:10593C00680000F052B8704700210A22C0E900123A
:10594C007047002310B50446C171837188B202F010
:10595C001BFE08B10323A37101F0E2F9206010BD16
:10596C0038B50C4605461146A0B202F0E3FD2146BF
:10597C002846BDE83840FFF7E4BF38B50446C07987
:10598C0002F002FEA579003825F0080318BF0120AB
:10599C00C5F340058542A3710AD001F0C1F9A37982
:1059AC00206083F00203A371A079C0F3C00038BD5E
:1059BC0001F0B6F92368C01AA3889842F4D3A379EE
:1059CC0003F00103AB42EFD001F0AAF9A3792060F8
:1059DC0083F0010343F00803E5E7807900F0090048
:1059EC00A0F1080358425841704791F85C3010B54B
:1059FC000446016013B1886D01F0AAF9204610BD70
:105A0C0010B5036893F85C20044612B1986D01F050
:105A1C00A7F9204610BDF8B51F469DF82430044662
:105A2C000D4616462BB1012380F85C30583001F03E
:105A3C007FF9089B23630023636306B1A66425B139
:105A4C00294604F1380001F089FD069B2365079B6C
:105A5C00E069A4F84C70FF2BB8BFFF23A4F85430B6
:105A6C0008B1FEF716FBB4F85400FEF70EFBE0612C
:105A7C00F8BD00002DE9FF41044600251746984665
:105A8C000E4602F099FB0D49E56104F1380001F076
:105A9C0037FD9DF82830A564CDE90283FF220F2342
:105AAC00CDE90032204684F85C503B462A4631460C
:105ABC00FFF7B1FF204604B0BDE8F081178B0D0055
:105ACC0010B50446204602F0D3FA0028FAD020463E
:105ADC0002F007FAC0B210BD2DE9F0470546C469C3
:105AEC000F46FFF7EDFF2070EB6993F800A04FF025
:105AFC0001090AF0F00A4FF000084C462846FFF75F
:105B0C00DFFF2646EB69985500F07F0313FB09F382
:105B1C00984401340306A4B21FFA88F84FEAC91955
:105B2C00ECD4631EBAF1300F3B7024D12846EF69D8
:105B3C00FFF7C6FF38552846EF69F41CFFF7C0FF86
:105B4C000236B6B2A4B2B8550226B6B2B146274652
:105B5C00C14512D22846FFF7B3FFB5F85430BB420B
:105B6C0088BFEB6909F1010988BFD8550137BFB26D
:105B7C001FFA89F9ECE70026E7E7A8EB0600B04529
:105B8C002CBF064600263444B5F85400A4B2A042FB
:105B9C002CBF20460020BDE8F087F7B58C461E468A
:105BAC001D4607460023AE4602A805F07F01BEF154
:105BBC007F0F03F10104034488BF41F08001BEF163
:105BCC007F0F4FEAD515E4B203F8041C10D8C4F1CA
:105BDC000403D11802F803C0C4F10503134401A84F
:105BEC000532934206D010F8015B03F8015BF8E72D
:105BFC002346D8E7721C2244384602F09CF805462E
:105C0C0001F08EF8621C78623244A8B2131A584222
:105C1C00584103B0F0BD13B50446014601A8FFF787
:105C2C00E4FEE369E0221A70E36900225A70E1692C
:105C3C000222204602F07FF8204602F073FA01F0AF
:105C4C006FF8C4E9090001A8FFF7DAFE02B010BD35
:105C5C000233F0B5044698B20023CD5C55B1B4F8CC
:105C6C005460864203F1010704D9461C15543B4687
:105C7C00B0B2F2E799B2441A2244091202F8021C9B
:105C8C0002F8013CF0BD38B5044602F06AF8002871
:105C9C0014BF0125002502D1204602F043FA284604
:105CAC0038BD00002DE9F04788B00446DDF840808F
:105CBC009DF850A0894617461E46FFF7E4FF05469F
:105CCC00002840F0CB80214601A8FFF78EFEA16C86
:105CDC00002940F08780B4F84C20A16B2B4620465D
:105CEC0002F07EFA002879D0012323849DF85430E9
:105CFC00E269042B40F08180594B186899889B7994
:105D0C00ADF80C108DF80E300290C2F805009DF81D
:105D1C000E30BDF80C10A2F80910D3720C23B8F198
:105D2C00000F7FD09DF848009DF84420400140EAC8
:105D3C00C20040F00600C0B2BAF1000F01D100F071
:105D4C00FD001FB1002E6FD140F08000E269D054ED
:105D5C00226DE169581C12120A549A1CE169206DDB
:105D6C0088540333E26949462046FFF771FF034626
:105D7C00B8F1000F0BD0E26941462046FFF768FFEF
:105D8C00E269139903462046FFF762FF034667B1A9
:105D9C00E26939462046FFF75BFF03462EB1E26904
:105DAC0031462046FFF754FF0346053BE2699BB2A0
:105DBC0010212046FFF7F1FE00F0B2FFC4E9090004
:105DCC004FF47A76204602F053F980BB00F0A8FF1E
:105DDC00A36AC01A236D73439842F3D9204602F08C
:105DEC00A1F934E002A801F02FFEB4F84C202B46A8
:105DFC0002A9204602F0C1F874E71A4B18685968DA
:105E0C001B7A0DF1080CACE803008CF8003002ABE7
:105E1C0003CBC2F80500C2F809109CF8003053738C
:105E2C000E237CE7022087E740F0C0008EE702A932
:105E3C002046FFF751FE0428D0D1E369DE78002E0E
:105E4C00CCD100F06DFF0125A06284F82C6001A874
:105E5C00FFF7D6FD284608B0BDE8F0870025F9E726
:105E6C00C4910D00CB910D007FB501230422CDE927
:105E7C0004320023CDE90233CDE900331A46FFF793
:105E8C0011FF07B05DF804FB2DE9F74FDDF83C80FE
:105E9C009DF834509DF8389004468B4616461F46A4
:105EAC00FFF7F1FE8246002851D0214601A8FFF7EA
:105EBC009CFDB4F85420E069002102F035FD052367
:105ECC00E26959462046FFF7C3FE6B1E012B15D81D
:105EDC00218CE369013189B2218409121954421CC5
:105EEC00E369218C92B20230995480B2B8F1000F60
:105EFC0004D0238C5A1C2284A8F8003000210B18E3
:105F0C008F42E2699BB20AD9B4F854C09C4506D9B9
:105F1C0016F801C002F803C0013189B2EFE79DF811
:105F2C00301000290CBF30213121B9F1000F01D004
:105F3C0041F00801022D0ED141F00401053B9BB24A
:105F4C002046FFF72AFE824601A8FFF759FD50466E
:105F5C0003B0BDE8F08F012D08BF41F00201EDE761
:105F6C001FB5089C0394002402949DF81C400194D6
:105F7C009DF818400094FFF787FF04B010BD30B5B2
:105F8C0087B0044610460591049202F00BFD0025E3
:105F9C000346CDE90155DDE9042100952046FFF7C4
:105FAC00DFFF07B030BD73B504460E46FFF76BFE3E
:105FBC000546C8B1214601A8FFF717FDE369622227
:105FCC001A70E36902225A70E36932129A70E3691B
:105FDC00DE70E1690422204601F0ADFE051E01A829
:105FEC0018BF0125FFF70CFD284602B070BD73B534
:105FFC0004460E46FFF747FE0546C8B1214601A8E8
:10600C00FFF7F3FCE36972221A70E36902225A70FB
:10601C00E36932129A70E369DE70E169042220466A
:10602C0001F089FE051E01A818BF0125FFF7E8FC49
:10603C00284602B070BD2DE9F04F2DED028B87B0D4
:10604C0000AF0446FFF71FFE8146F8B1214607F169
:10605C001400FFF7CAFC00F063FE226D4FF47A7354
:10606C005343A26A821A9A42064603D8626A821A7B
:10607C00934221D294F82C307BB1204602F052F896
:10608C004FF0000907F11400FFF7BAFC48461C3723
:10609C00BD46BDEC028BBDE8F08FE269C0211170EA
:1060AC00E2695370E1690222204601F044FEC4E922
:1060BC000966012384F82C30204601F0D9FF002812
:1060CC00E0D007F113012046FFF706FD83460028B8
:1060DC00D8D0E369A662197801F0F002302A7FD19A
:1060EC00D4F830A0BAF1000FCCD097F813C06A46A0
:1060FC0008EE102A03EB0C025578917801EB052180
:10610C008DB205F108026946D208A1EBC202954690
:10611C000CF10302FA6003EB020E0DEB050268466C
:10612C00C7F808D07A60D7E901218A4206D00A461E
:10613C001EF8018B02F8018BBA60F4E7002242557D
:10614C0093F80080F96808F00608ABEB0C02033AF0
:10615C00B8F1020FA2EB0502294425D113F801E096
:10616C001944023A91F801B00CF105012944194483
:10617C000BEB0E2BD047E36940221A70E3691FFA30
:10618C008BFB83F80180E3694FEA2B229A70E36959
:10619C0083F803B0E1690422204601F0CCFD66626D
:1061AC0018EE103A9D466DE7B8F1040F15D113F8AF
:1061BC0001E01944023A91F801B00CF105012944AF
:1061CC0019440BEB0E2BD047E36950221A70E3698C
:1061DC0002221FFA8BFB5A70D5E71944D047DFE730
:1061EC00502A08D19A78D97801EB022189B220463D
:1061FC00FFF7D9FE46E7402A12D1626B002A3FF422
:10620C0041AFBBF1040F7FF43DAF11F0060F7FF4EB
:10621C0039AF9978D87800EB012080B2904731E7FC
:10622C00602A08D19A78D97801EB022189B22046EC
:10623C00FFF7DDFE26E7702ADFD0902A3FF422AF6D
:10624C00C02A0AD1D0221A70E36900225A70E1697F
:10625C000222204601F06FFD14E7D02A04BF002370
:10626C0084F82C300EE7F7B504460F461646FFF7B8
:10627C000AFD054610B3214601A8FFF7B6FB238C97
:10628C0001339BB2EBB12384238CE2691B12537153
:10629C00E369228C9A71E269072339462046FFF79D
:1062AC00D7FCE3691E54043883B2E269822120468C
:1062BC00FFF773FC054601A8FFF7A2FB284603B0C5
:1062CC00F0BD0123DFE70022FFF7CDBF38B505464F
:1062DC00FFF7D9FC10B12846FFF79DFCE86908B11F
:1062EC00FDF7D7FE05F1380001F0BFF8AC690A4B99
:1062FC002B607CB16368013B63605BB9236820460B
:10630C009B689847A368013BA3601BB92368204690
:10631C00DB689847284638BD589C0D0010B5044BD7
:10632C0003600446C06A08B100F046FF204610BD69
:10633C0090960D0010B50446FFF7F0FF2046502153
:10634C0002F0B7F9204610BD002910B54BDBB0F9AF
:10635C000C408C4247DD002A45DBB0F90E409442DC
:10636C0041DD847E022C1FD0032C26D0012C04D1BD
:10637C000489D24314440A4621B2012B23D0022BA8
:10638C0032D083BB002A13460489C06AB8BFD31D20
:10639C00DB1013FB041102F0070201239340425C53
:1063AC0022EA030242541EE00489C9432144448971
:1063BC00D243224409B212B2DFE74489C9430C44E8
:1063CC00114622B2D9E7002A04891346B8BFD31D5F
:1063DC00DB1013FB0411C36A02F007000122824098
:1063EC00585C02435A5410BD002A13460489C06AF3
:1063FC00B8BFD31DDB1013FB041102F007020123FD
:10640C0003FA02F2435C5A40CCE710B5044690F90B
:10641C003600012180B202F09EF8606A18B1BDE826
:10642C00104000F058BF10BD70B504461D46002644
:10643C00FEF784FF114B2360666215B902F00CF96C
:10644C000546FF2384F8333084F836309DF910303C
:10645C0084F837300A4BA363012384F83C30059B46
:10646C00A3644FF6FF72069BA286C4E90A56266403
:10647C00A4F84460E364204670BD00BF90960D0004
:10648C00DC910D00F8B50446806A0D4690B194F984
:10649C00301001F039FCA06A036800219B68984712
:1064AC00A06A036829469B689847A06ABDE8F84033
:1064BC0001F031BC94F93530014698B202F04BF83A
:1064CC00606A20B12946BDE8F84000F08BBF082671
:1064DC00802794F9330005EA070180B202F03BF8FB
:1064EC0094F93400012180B202F035F894F93400AB
:1064FC00002180B202F02FF8013E4FEA5707E8D195
:10650C00F8BD38B50446806A0D4680B1A16C01F027
:10651C00EDFB002D204614BFA721A621FFF7B2FFEB
:10652C00A06A88B1E16CBDE8384001F0DFBB606A5D
:10653C0018B104F1380100F0E7FE94F9360000219F
:10654C0080B202F008F8E4E72046BDE83840FFF7D7
:10655C005CBF2DE9F8430446806A0D468F1840B3A2
:10656C0094F9301001F0D0FBA06A036800219B68FD
:10657C0098470126BD42A06A17D01F2E0CD901F0F6
:10658C00CAFB94F93010A06A01F0BEFBA06A036844
:10659C0000219B6898470126A06A15F8011B036827
:1065AC0001369B689847F6B2E4E7BDE8F84301F082
:1065BC00B2BB94F93530014698B201F0CCFFAF4232
:1065CC0022D0606A15F8019B18B1494600F00AFF09
:1065DC00F5E708264FF0800894F9330009EA080122
:1065EC0080B201F0B8FF94F93400012180B201F0BF
:1065FC00B2FF94F93400002180B201F0ACFF013EEF
:10660C004FEA5808E8D1DAE7BDE8F883B0F90A3068
:10661C00DA1D48BF03F10E02B0F90830C06AD2107F
:10662C005A43002102F080B92DE9FF411E46C36A8E
:10663C009DF8288004460F461546B3B12046FFF757
:10664C00E5FFB4F90A00B4F9081020281FDC202358
:10665C000122CDE90132203873237339009300EB0A
:10666C00D070894B01EBD1711FE0B0F90A30D81D05
:10667C0048BF03F10E00B4F90830C010584300F0C5
:10668C0093FDE0620028D9D104B0BDE8F08140232D
:10669C004FF0010CCDE9013C5223403852390093A4
:1066AC007A4B00EBD07001EBD17140F34F0241F308
:1066BC004F012046FEF758FEA06A84F8317000287E
:1066CC0078D0002D74D1B4F90A30202B0CBF3C25A6
:1066DC003D2584F83050B8F1000F01D001F00AFBD1
:1066EC00FEB194F9370000281BDB012180B201F0C8
:1066FC0021FF94F93700012180B201F02CFF012019
:10670C0001F06EF894F93700002180B201F023FFFC
:10671C000A2001F065F894F93700012180B201F0EC
:10672C001AFFA06A002874D0A16C01F0DFFA0422D1
:10673C0057492046FFF70DFFA17A0139C9B220460F
:10674C00FFF7A0FE534904222046FFF702FF94F9FD
:10675C003130012B0CBF102114212046FFF792FE83
:10676C0004224D492046FFF7F4FEA3684B4A93429E
:10677C005CD14B4904222046FFF7EBFED921204681
:10678C00FFF780FE94F93130012B0CBF2221F1214F
:10679C002046FFF777FE204642490622FFF7D9FE36
:1067AC00A06A002863D0E16C01F0A0FA01206BE72D
:1067BC006DB28EE794F93500012180B201F0BAFE7A
:1067CC0094F93600012180B201F0B4FE94F9360040
:1067DC00012180B201F0BFFE656A3DB1B8F1000F36
:1067EC003FF47EAF284600F065FD79E794F933005D
:1067FC00012180B201F09EFE94F93400012180B297
:10680C0001F098FE94F93400294680B201F0A3FE01
:10681C0066E7606A18B104F1380100F075FD94F96F
:10682C003600002180B201F096FE80E71E4A9342AA
:10683C000ED11E4903222046FFF78BFE94F931300E
:10684C00012B0CBF9F21CF212046FFF71BFE95E7A4
:10685C00174A934292D1174903222046FFF779FE3B
:10686C0094F93130012B0CBF1021AF21ECE794F9D6
:10687C003600012180B201F06EFE606A002895D0CE
:10688C0000F029FD92E700BFA8940D00E8910D00DF
:10689C00F0960D00F4960D00F8960D008000200087
:1068AC0002970D00FC960D008000400006970D002D
:1068BC006000100009970D0070B5002ABDF810504B
:1068CC003DDBB0F90A40944239DD0029BEBF5B18AC
:1068DC001BB20021B0F90840CE18A642C4BF631AFF
:1068EC001BB2002B2BDDC06AD61014FB0611014421
:1068FC0002F0070001228240012DD2B216D0022DE7
:10690C000BD0E5B9D243D2B20B44994217D011F84F
:10691C00010B104001F8010CF7E70B4499420ED023
:10692C0011F8010B504001F8010CF7E70B449942A8
:10693C0005D011F8010B104301F8010CF7E770BDFD
:10694C00F0B50029BDF8146076DBB0F90850A94207
:10695C0072DA002ABCBFD21813B2B0F90A40B8BF21
:10696C000022D718A742C4BFA31A1BB2002B63DDA9
:10697C00C2F3C404C76A15FB041112F00702DBB2A0
:10698C0007EB010423D0C2F10802D2B22C4D934282
:10699C003CBF4FF0FF0CA2EB030EAD5C3CBF4CFABE
:1069AC000EFC0CEA0505012E07D0022E2ED04EB996
:1069BC0017F801C02CEA050503E017F801C045EAF9
:1069CC000C057D54934237D3B0F908100C449A1A35
:1069DC00D2B2072A0ED9022E1DD113462178C943F3
:1069EC002170083BB0F90810DBB2072B0C44F5D82A
:1069FC0002F0070202B3134B012E9B5C19D0022E3E
:106A0C001BD0CEB9227822EA030314E017F801C098
:106A1C0085EA0C05D5E7002E14BFFF25002513468B
:106A2C002570083BB0F90810DBB2072B0C44F7D8E3
:106A3C00DEE7227813432370F0BD22785340FAE747
:106A4C00E0960D00E8960D0070B41446827EBDF8F9
:106A5C000C60022A0DD0032A18D0012A11D1028908
:106A6C00E443144424B203960A46214670BCFFF753
:106A7C0067BF42890589E44319441444691A24B256
:106A8C0009B20396224670BCFFF716BF458919441C
:106A9C00691A09B2E7E730B41446827EBDF8085093
:106AAC00022A0DD0032A18D0012A11D1E218048928
:106ABC00A41A24B202950A46214630BCFFF7FCBE4C
:106ACC000289C9431144E2184489A41A09B224B2B8
:106ADC000295224630BCFFF733BF4289C9431144AB
:106AEC0009B2E7E72DE9F8430446806A002842D052
:106AFC00A16C01F0FBF8474905222046FFF729FD60
:106B0C00217A01392046C9B2FFF7BCFCB4F90A302E
:106B1C00DE1D48BF03F10E06D4E90A052389F610E1
:106B2C0013FB06F615FA86F600283AD094F93010C5
:106B3C0001F0EAF8A06A036840219B689847012796
:106B4C00B542A06A24D01F2F0CD901F0E4F894F9B7
:106B5C003010A06A01F0D8F8A06A036840219B6845
:106B6C0098470127A06A15F8011B036801379B6839
:106B7C009847FFB2E4E7606A18B104F1380100F0FD
:106B8C00C3FB94F93600002180B201F0E4FCB2E7BB
:106B9C0001F0C1F8A06A78B3E16CBDE8F84301F0EC
:106BAC00A5B894F93500012180B201F0D4FCB542AE
:106BBC00F0D0606A15F8019B18B1494600F012FC40
:106BCC00F5E708274FF0800894F9330009EA08012B
:106BDC0080B201F0C0FC94F93400012180B201F0C4
:106BEC00BAFC94F93400002180B201F0B4FC013FEE
:106BFC004FEA5808E8D1DAE794F93600012180B25F
:106C0C0001F0A9FC606A18B1BDE8F84300F063BB61
:106C1C00BDE8F8830C970D0000F0E2BD00F080B8E1
:106C2C00704770477047000003065ABF024B53F879
:106C3C0020000020704700BF14970D0003065ABFB8
:106C4C00024B53F820000020704700BF14990D0030
:106C5C0008B5024B1B689B68019308BD68020300D2
:106C6C0008B5024B1B68DB68019308BD6802030082
:106C7C0008B5024B1B685B68019308BD2C0203002E
:106C8C0008B5024B1B689B68019308BD2C020300DE
:106C9C0008B5024B1B68DB68019308BD2C0203008E
:106CAC0008B5024B1B681B69019308BD2C0203003D
:106CBC0008B5024B1B685B69019308BD2C020300ED
:106CCC0008B5024B1B689B6A019308BD2C0203009C
:106CDC0008B5024B1B681B6B019308BD2C0203000B
:106CEC0008B5024B1B689B6F019308BD2C02030077
:106CFC0008B5024B1B685B69019308BD6C0203006D
:106D0C0008B5024B1B685B68019308BD18020300B1
:106D1C0008B5024B1B68DB68019308BD1802030021
:106D2C0008B5024B1B685B69019308BD1802030090
:106D3C0008B5024B1B681B6B019308BD480203008E
:106D4C0008B5024B1B685B6B019308BD480203003E
:106D5C0008B5024B1B689B6B019308BD48020300EE
:106D6C0008B5024B1B681B6C019308BD480203005D
:106D7C0008B5024B1B685B6C019308BD480203000D
:106D8C0008B5024B1B689B6C019308BD48020300BD
:106D9C0008B5024B1B685B69019308BD64020300D4
:106DAC0008B5024B1B681B6A019308BD6402030003
:106DBC0008B5024B1B689B6A019308BD6402030073
:106DCC0008B5024B1B681B68019308BD3C0203000D
:106DDC0008B5024B1B68DB68019308BD3C0203003D
:106DEC0008B5024B1B681B69019308BD3C020300EC
:106DFC0008B5024B1B685B69019308BD3C0203009C
:106E0C0008B5024B1B689B69019308BD3C0203004B
:106E1C0008B5024B1B68DB69019308BD3C020300FB
:106E2C0008B5024B1B681B6A019308BD3C020300AA
:106E3C0008B5024B1B689B6A019308BD3C0203001A
:106E4C0008B5024B1B681B68019308BD28020300A0
:106E5C0008B5024B1B68DB68019308BD28020300D0
:106E6C0008B5024B1B689B69019308BD28020300FF
:106E7C0008B5024B1B68DB69019308BD28020300AF
:106E8C0008B5024B1B681B6A019308BD280203005E
:106E9C0008B5024B1B685B6A019308BD280203000E
:106EAC0008B5024B1B689B6A019308BD28020300BE
:106EBC0008B5024B1B68DB6A019308BD280203006E
:106ECC0008B5024B1B681B6B019308BD280203001D
:106EDC0008B5024B1B685B6B019308BD28020300CD
:106EEC0008B5024B1B681B6C019308BD28020300FC
:106EFC0008B5024B1B689B69019308BD380203005F
:106F0C0008B5024B1B68DB69019308BD380203000E
:106F1C0008B5024B1B681B6A019308BD38020300BD
:106F2C0008B5024B1B689B6A019308BD380203002D
:106F3C0008B5024B1B681B6B019308BD380203009C
:106F4C0008B5024B1B689B6B019308BD380203000C
:106F5C0008B5024B1B681B68019308BD3002030087
:106F6C0008B5024B1B685B69019308BD3002030036
:106F7C0008B5024B1B68DB69019308BD30020300A6
:106F8C0008B5024B1B681B6A019308BD3002030055
:106F9C0008B5024B1B685B6A019308BD3002030005
:106FAC0008B5024B1B68DB6B019308BD3002030074
:106FBC0008B5024B1B681B6C019308BD3002030023
:106FCC0008B5024B1B685B6C019308BD30020300D3
:106FDC0008B5024B1B681B68019308BD4C020300EB
:106FEC0008B5024B1B685B68019308BD4C0203009B
:106FFC0008B5024B1B681B69019308BD4C020300CA
:10700C0008B5024B1B685B69019308BD4C02030079
:10701C0008B5024B1B689B69019308BD4C02030029
:10702C0008B5024B1B68DB69019308BD4C020300D9
:10703C0008B5024B1B681B6A019308BD4C02030088
:10704C0008B5024B1B685B6B019308BD6002030023
:10705C0008B5024B1B681B6D019308BD6002030051
:10706C0008B5024B1B685B68019308BD2002030046
:10707C0008B5024B1B685B69019308BD2002030035
:10708C0008B5024B1B68DB6A019308BD20020300A4
:10709C0008B5034B1B68D3F88830019308BD00007A
:1070AC002002030008B5034B1B68D3F894300193FE
:1070BC0008BD00002002030008B5024B1B685B688A
:1070CC00019308BD4002030008B5024B1B689B6886
:1070DC00019308BD4002030008B5024B1B68DB6836
:1070EC00019308BD4002030008B5024B1B681B69E5
:1070FC00019308BD4002030008B5024B1B685B6995
:10710C00019308BD4002030008B5024B1B689B6944
:10711C00019308BD4002030008B5024B1B68DB69F4
:10712C00019308BD4002030008B5024B1B681B6AA3
:10713C00019308BD4002030008B5024B1B681B6B92
:10714C00019308BD4002030008B5024B1B685B6B42
:10715C00019308BD4002030008B5024B1B681B6C71
:10716C00019308BD4002030008B5024B1B685B6C21
:10717C00019308BD4002030008B5024B1B689B68D5
:10718C00019308BD4402030008B5024B1B68DB6980
:10719C00019308BD4402030008B5024B1B68DB6B6E
:1071AC00019308BD4402030008B5024B1B681B6821
:1071BC00019308BD1C02030008B5024B1B685B68F9
:1071CC00019308BD1C02030008B5024B1B689B68A9
:1071DC00019308BD1C02030008B5024B1B68DB6958
:1071EC00019308BD1C02030008B5024B1B685B6AC7
:1071FC00019308BD1C02030008B5024B1B68DB6B36
:10720C00019308BD1C02030008B5024B1B685B6CA4
:10721C00019308BD1C020300002240681146FFF7D1
:10722C0083BF002240681146FFF78EBF40680022E2
:10723C00FFF782BF4068002281F00101FFF76CBFAD
:10724C00002340681A461946FFF75EBF00234068CA
:10725C001A461946FFF750BF002240681146FFF747
:10726C0043BF002240681146FFF72EBF4068002242
:10727C000221FFF731BF002340681A46FFF71CBFFD
:10728C00024B03225A60024A1A60704750E60320F0
:10729C001C9B0D000021FFF78BBE0021FFF790BE59
:1072AC0010B5044608462170FFF762FE00236360A8
:1072BC00204610BD10B504460078FFF7EBFF48B927
:1072CC0020784FF6FF71FFF743FE2078BDE81040A1
:1072DC00FFF7E3BF10BD0078FFF7DFBF400830B504
:1072EC001860002418688842E5B206D90134082CCD
:1072FC0002D040081860F5E70725024B5B5D137060
:10730C0030BD00BF509B0D002DE9F04306468FB0F9
:10731C0000780C46FFF7BEFF00281BDB35781422E3
:10732C00002109A801F000FB0B23002209A9284623
:10733C00ADF82430FFF72CFE9DF82D3013B19DF8DD
:10734C002C5055B10027B946B846012523795DB1BB
:10735C00C3B100200FB0BDE8F083DDF830809DF89C
:10736C0034909DF83570F1E7002B35D1A368434577
:10737C0008D18DF820908DF82170BDF82020A389BC
:10738C009A42E6D00023A1688DF80F300A9804AB1E
:10739C000DF10F02FFF7A2FF217985B989B9A36816
:1073AC0043450ED38DF820908DF82170BDF8202028
:1073BC00A3899A4205D1049B434502D1C9E7002910
:1073CC00F9D100230193637B00939DF80F20237B5D
:1073DC003078FFF7E5FDBCE7CDE900552B462A4692
:1073EC000121F5E708B50078FFF7BAFDC0B208BD7A
:1073FC0010B50446006818B1FFF7DEFE00232360C9
:10740C0010BD10B50446FFF7F3FF204610BD000079
:10741C0010B5094B094C022200201A60084B206061
:10742C00A080A071A360FFF71BFE2046054A064909
:10743C00BDE8104001F038B964E6032058E603209B
:10744C000000FFFFA4E403200F740D0070B586B09C
:10745C00064601AD684600F0F7FA0FCD341D0FC497
:10746C002B682370304606B070BD10B5044600681A
:10747C00FFF7A2FE204610BD10B50446006808B107
:10748C00FFF79AFE0023C4E90133236010BD38B521
:10749C0004460D4600680131FFF796FE10B1C4E9B1
:1074AC000005012038BD10B50368044623B14368BC
:1074BC008B4201D3012010BD2046FFF7E8FF0028C6
:1074CC00F9D0A368002BF5D122681370F2E737B519
:1074DC000D46114601920446FFF7E5FF019A28B9C3
:1074EC002046FFF7C9FF204603B030BDA2602946F5
:1074FC00206801F00BFA2268A3680021D154F2E74E
:10750C00002313B5C0E9003304468360037341B113
:10751C000846019101F046FA019902462046FFF710
:10752C00D6FF204602B010BD884210B5044605D0E7
:10753C000B682BB18A681946FFF7C9FF204610BDAE
:10754C00FFF79AFFFAE710B500230446C0E90033B1
:10755C0083600373FFF7E8FF204610BD13B50446A4
:10756C0059B10846019101F01DFA019902462046D5
:10757C00FFF7ADFF204602B010BDFFF77DFFF9E726
:10758C0070B505460E4609B9002070BD6AB1846815
:10759C0014442146FFF787FF0028F5D02868AB6814
:1075AC003146184401F0F6F9AC600120EDE710B556
:1075BC008A6809680446FFF7E3FF10B92046FFF715
:1075CC005BFF204610BD13B5044629B92046FFF7D2
:1075DC0053FF204602B010BD0846019101F0E2F9BC
:1075EC00019902462046FFF7CBFF0028EED0F0E7CA
:1075FC0010B50446006808B1FFF7C2FB204610BD69
:10760C0010B58368044613B10322014698472046FF
:10761C0010BD000010B5064C002320462360FFF778
:10762C00A7FB2046034A0449BDE8104001F03CB8D2
:10763C0068E60320A4E40320FD750D00F8B50646AA
:10764C000D468F180024BD420CD0336815F8011B71
:10765C009B6830469847031E01DB1C44F3E7002C63
:10766C0008BF1C462046F8BD13B50446084659B160
:10767C00019101F097F923680199DB6802462046D5
:10768C0002B0BDE81040184702B010BD08B5FFF7B6
:10769C00EBFF08BD03689B68184738B50D210546FC
:1076AC00FFF7F8FF0A2104462846FFF7F3FF2044B2
:1076BC0038BD38B50546FFF7D7FF04462846FFF717
:1076CC00ECFF204438BD30B58BB000238DF824304E
:1076DC00012A98BF0A2209AC0D46B1FBF2F101FB5D
:1076EC00125303F0FF03092B94BF30333733DBB253
:1076FC00AA4204F8013DEFD92146FFF7B5FF0BB0C4
:10770C0030BD2DE9F04186B000AF05460E46381D60
:10771C00142114463B60FFF767FD13280ED8391D62
:10772C002846FFF7A1FF04461EB12846FFF7B5FF18
:10773C00044420461837BD46BDE8F08100F108032B
:10774C0023F00703E846ADEB030D2246411C3B68D2
:10775C006846FFF749FD69462846FFF785FF044652
:10776C00C546E1E710B50446FFF7DAFAE060236896
:10777C0020465B699847002808DAFFF7D1FAE368DE
:10778C00C01AA3689842F2D34FF0FF3010BDF8B581
:10779C0006460D4617460024BC4207D03046FFF77C
:1077AC00E1FF031E02DB2B550134F5E72046F8BD43
:1077BC00002340681A461946FFF79EBC014B024A4B
:1077CC001A6070476CE60320609B0D00024B1A6830
:1077DC00024B1A60704700BF3CE4032070E60320A4
:1077EC000021FFF745BC10B50446FFF709FF204602
:1077FC0010BD00000348044A04490023836000F0D4
:10780C0053BF00BF74E60320A4E40320F3770D00FC
:10781C00014B1860704700BF40E4032008B50B4BC8
:10782C0043B100F07DF903681B699847002801DD1E
:10783C00AFF30080064B43B100F0F0F903681B690D
:10784C009847002801DDAFF3008008BD0000000060
:10785C000000000008B5FFF7E1FFFFF761FA014BEC
:10786C00186008BDD4E703200248034A0349121AE2
:10787C0001F04CB800F4032004F40320309F0D00F9
:10788C0007B5002300931A466FF07701FFF70AFC47
:10789C0003B05DF804FB000007B543880A2B08D041
:1078AC00502B0BD1094B1B684BB103B05DF804EBAB
:1078BC001847FFF7E5FF03B05DF804FB00230093C6
:1078CC001A466FF07701FFF7EDFBF4E788E603202B
:1078DC0038B5124C1248134D0021FFF795FC236864
:1078EC00AB42114B0CBF012200221A7002D0FFF7E1
:1078FC00BBFF2560FFF704FA044601F01DF80B4BA3
:10790C0013B12046AFF3008000210848FFF744FC78
:10791C00BDE8384006480021FFF7BABB00F403204D
:10792C001D780D001E1C279A84E603200000000021
:10793C00A5780D00704710B51821044600F0B9FE6B
:10794C00204610BDF0B5037D062B8DB00E4600F120
:10795C0004074FF0000412D000F1080515F8011DC2
:10796C000A223046FFF7AFFEAF42044419D0002C78
:10797C00F4D02E213046FFF78DFE0444EEE72F2382
:10798C006A4639460A208DF80040FFF701FA68462E
:10799C0001F008F833680246DB68694630469847C0
:1079AC00044620460DB0F0BD10B5054B044611221F
:1079BC0040F8043B002100F0B7FF204610BD00BF8B
:1079CC00889B0D000346074A10B543F8042B01F1C0
:1079DC00100251F8044B43F8044B9142F9D10A7848
:1079EC001A7010BD889B0D00037D042B04D14068D8
:1079FC00003818BF01207047062B07D143683BB9EC
:107A0C0083682BB9C3681BB90069F1E70020704784
:107A1C000120704710B59DF8084044EA032343EA5F
:107A2C00024242EA016104234160037510BD00006B
:107A3C0037B5044D05609DF818500095FFF7EAFF27
:107A4C0003B030BD889B0D0013B5054B0360CB789C
:107A5C0000938B784A780978FFF7DCFF02B010BDF1
:107A6C00889B0D0041747047704708B50021007C5D
:107A7C00FFF7CEFA40EAE07008BD08B50121007CA2
:107A8C00FFF7C6FA40EAE07008BD08B5007CFFF7C6
:107A9C00B7FA20EAE07008BD08B5007CFFF7A8FA39
:107AAC0020EAE07008BD13B50446007C0191FFF795
:107ABC00A7FA0028019901DC607C20B1207CFFF73B
:107ACC00AFFA20EAE07002B010BD007CFFF7B0BA4C
:107ADC0010B51421044600F0ECFD204610BD00004A
:107AEC0010B54FF47A73044608460021C4E901131B
:107AFC00044B23600123207463741146FFF768FA6A
:107B0C00204610BD9C9B0D00007C0022FFF768BA3C
:107B1C0010B514220446002100F006FF204610BDCB
:107B2C0010B5104C88B003A8FFF7F2FF2178BFF313
:107B3C005B8F11F0010111D120460191FCF7B6FACF
:107B4C00019958B103AA0848FFF7CAFF2046FCF771
:107B5C00B2FA064A0649044800F0A6FD024808B0ED
:107B6C0010BD00BF8CE6032090E60320A4E40320A4
:107B7C00757A0D0070474174704708B5007CFFF7AB
:107B8C0057F920EAE07008BD08B5007CFFF728F92A
:107B9C0020EAE07008BD08B5007CFFF731F940EA37
:107BAC00E07008BD08B5007CFFF722F940EAE070F0
:107BBC0008BD007CFFF72CB937B5457C04462DB1C8
:107BCC00207C03B0BDE83040FFF702B9007C019186
:107BDC00FFF72EF900280199F2DC284603B030BDDE
:107BEC0010B51421044600F064FD204610BD0000C1
:107BFC0010B54FF0000C0446084611464FF47A724B
:107C0C00C4E901C2044A22600122207462741A463B
:107C1C00FFF7D6F8204610BDCC9B0D0013B50E4CCB
:107C2C002178BFF35B8F11F0010112D12046019135
:107C3C00FCF73CFA019960B1084A094B0948FFF777
:107C4C00D7FF2046FCF737FA074A0849054800F0E9
:107C5C002BFD044802B010BDA4E60320A8E60320C7
:107C6C002CE70320B0E70320A4E40320817B0D0064
:107C7C007047F8B5064615460C468F18BC4206D020
:107C8C00336814F8011B9B6830469847F6E7284682
:107C9C00F8BD007C0022FFF7F3B8007C0021FFF751
:107CAC00F7B8007C0021FFF7FBB8007C0021FFF740
:107CBC00FFB8007C0021FFF703B910B5142104466E
:107CCC0000F0F7FC204610BD10B54FF47A73044653
:107CDC0008460021C4E90113034B236020741146AC
:107CEC00FFF7FEF8204610BDFC9B0D00007C002227
:107CFC00FFF7A6B80023007C1A461946FFF7A8B870
:107D0C00007C0022FFF7ACB8C9B2FFF7F9BF007CCA
:107D1C000022FFF7ADB80121FFF7F9BF13B50368D7
:107D2C008DF80710DC6B01224FF0FF330DF10701CA
:107D3C00A04702B010BD10B40368DC6B4FF0FF33EA
:107D4C00A4465DF8044B604713B5134602688DF8E2
:107D5C000710D46B0DF107010122A04702B010BD32
:107D6C00704738B543691A68002A054610DAB3F82B
:107D7C008620B3F884309A420AD103681B6998476D
:107D8C00044628B92B682846DB6A9847204638BD3C
:107D9C000120FCE743691868C043C00F7047704767
:107DAC00064B994210B500F10C0405D0084600F0C2
:107DBC0085FC002808BF0024204610BD589B0D00F0
:107DCC0010B5AC21044600F074FC204610BDFCF745
:107DDC005EB92DE9F0414FF0000886B01D46C0F8A1
:107DEC00048004460E4617464146102202A800F0B5
:107DFC009BFD6B1C09D04FF47A70B5FBF0F3CDE909
:107E0C00023800FB1353584304906069102300930D
:107E1C00006802AB41F2050240F6FF71FFF768F80B
:107E2C00002807DAFFF7E8F903686360002006B062
:107E3C00BDE8F0816069002300683A463146FFF7DF
:107E4C0077F8031EEEDB1846F1E7000038B58469BD
:107E5C000A4B036005467CB16368013B63605BB908
:107E6C00236820469B689847A368013BA3601BB915
:107E7C0023682046DB689847284638BD589C0D007F
:107E8C0010B50446FFF7E2FF20461C2100F011FC60
:107E9C00204610BD70B54D69054B04468C3544F831
:107EAC00043B06460FCD0FC42B682370304670BDC3
:107EBC00889B0D0010B54369B3F88620B3F8843065
:107ECC009A42044605D06369B3F8842013441879A8
:107EDC0010BD03681B6998470028F4D14FF0FF30A0
:107EEC00F6E710B54369B3F88620B3F884309A42AC
:107EFC00044608D06369B3F88420511CA3F884109D
:107F0C001344187910BD03681B6998470028F1D1F8
:107F1C004FF0FF30F6E7F8B543691746B3F8862003
:107F2C00B3F884309A4205460E4616D06969B1F80A
:107F3C008430B1F88640E41ABC4228BF3C46043376
:107F4C0022461944304600F0E1FC6A69B2F88430EC
:107F5C002344A2F884302046F8BD03681B69984777
:107F6C000028E3D14FF0FF34F5E742690023A2F873
:107F7C0084304269A2F8863070472DE9F0411F46E3
:107F8C0003680C46DB6A8AB0054616469847237D83
:107F9C00D5F81480042B0CBF02200A2006220121E4
:107FAC00FEF7CEFFC8F800006B691B68002B08DADF
:107FBC002B682846DB6A0024984720460AB0BDE8A7
:107FCC00F0812846FFF7D1FFB7B1002303A9F8B21F
:107FDC000393ADF81030FEF78BFE0028E8D16869EA
:107FEC0006230093006803AB41F20B0240F6FF71CD
:107FFC00FEF77EFF0028DBD11C22002103A800F035
:10800C0093FC237D042B1DD14FF407733046ADF840
:10801C000C30FEF7CDFEADF80E006068FEF7C0FE2A
:10802C0004906B691C22186803A9FEF771FF0028E5
:10803C00BED104340FCC6D698C350FC523682B7001
:10804C000124BAE740F61C233046ADF80C30FEF79D
:10805C00AFFE05AEADF80E00231D04F11407186831
:10806C005968324603C20833BB421646F7D1D8E7EB
:10807C0030B54269B2F886308BB004462BB1B2F8F9
:10808C0084209A4201D1FFF770FF616908680028CB
:10809C0018DBB1F886507F2D14D804310823C5F1B4
:1080AC0080022944FEF73CFF002813DD6369B3F816
:1080BC0086200AB9A3F884206369B3F8862010449B
:1080CC00A3F886006369B3F88600B3F88430C01A4D
:1080DC000BB030BDFFF790F803680B2BF2D0FFF715
:1080EC008BF803680B2BEDD020230025CDE902354E
:1080FC00FFF782F803680193084B0949009302AA21
:10810C002B463220FEF7A4FF63691868FEF7F8FED1
:10811C0063694FF0FF321A60D4E700BF239C0D0057
:10812C001C9C0D0010B5436904461868002801DB3F
:10813C00FEF7E6FE63694FF0FF321A6060691122A8
:10814C0000218C3000F0F0FB2046BDE81040FFF71A
:10815C000CBF10B5002304460160C0F88430883091
:10816C00FFF722FC204610BD73B500234FF47A7242
:10817C00C0E901320E4A0361026043610446AC203F
:10818C000191FBF780FF051E05F10C0608D00123B9
:10819C00C5E90133074B01992B603046FFF7D9FF36
:1081AC002046C4E90565FFF7E0FE02B070BD00BFD4
:1081BC00589C0D003C9C0D0010B54FF0FF3104464F
:1081CC00FFF7D2FF204610BD10B50446006800280A
:1081DC0001DBFEF795FE204610BD0C30FFF7F4BF17
:1081EC002DE9F0439846036893B00D460024DB6AF2
:1081FC0006461746984728466B4622462146009469
:10820C00FEF72EFD0546002863D1009B002B4BD0BA
:10821C005B69002B48D006A8FFF7C6FB009B5C6986
:10822C006378022B04D1211D06A8FFF70FF926E075
:10823C000A2B24D11122294601A800F075FBA36852
:10824C00002B38D004F108030DF1040C1834186815
:10825C005968624603C20833A3429446F7D10623F9
:10826C0001A90CA88DF81430FFF7ACFB0DF1340C00
:10827C00BCE80F0007AC0FC4DCF80030237006A874
:10828C00FFF7B2FB80B1336807ADD3F82090124BE7
:10829C000C930FCD0DAC0FC42B6823703A4643469C
:1082AC000CA93046C84705460098FEF7D1FC284675
:1082BC0013B0BDE8F083E368002BC3D14FF6FF7019
:1082CC00D4F81090FEF76CFD8145BBD104F114017C
:1082DC00AAE72546E8E700BF889B0D00002240680E
:1082EC001146FEF701BF002240681146FEF71CBF85
:1082FC00002240681146FEF727BF40680022FEF7B7
:10830C001BBF4068002281F00101FEF705BF00236E
:10831C0040681A461946FEF7F7BE0022406811461F
:10832C00FEF7D2BE406800220221FEF7D5BE002324
:10833C0040681A46FEF7C0BE024B04225A60024A3D
:10834C001A607047C4E70320A49C0D00002340680A
:10835C001A46FEF7B1BE406800220221FEF7BCBEF1
:10836C00002240681146FEF7AFBE0022406811465D
:10837C00FEF7BABE002340681A461946FEF7BCBE8B
:10838C00002340681A461946FEF7BEBE406800211D
:10839C00FEF7E2BE40680021FEF7E6BE4068002210
:1083AC0081F00101FEF7B8BE40680022FEF7C4BEA2
:1083BC00002240681146FEF7C7BE002240681146F5
:1083CC00FEF7B2BE2DE9F043002495B016460D46DB
:1083DC000746FFF7E9FA214618220EA8009400F090
:1083EC00A3FA4023CDE90C3421466B460CAA304647
:1083FC00FEF736FC044600284CD102460121686881
:10840C00FEF772FE0221804622466868FEF76CFE7B
:10841C00009E81462146002E3CD000293AD173683B
:10842C00022B03D00A2B11D0F669F4E7B8F1000F38
:10843C000AD0716906A8043107ADFFF705FB0FCD13
:10844C003C1D0FC42B6823704146EDE7B9F1000FBA
:10845C0001D14946E8E77469102201A800F064FADA
:10846C0006238DF8143001AD04F108031834186894
:10847C0059682A4603C20833A3421546F7D101A90D
:10848C0006A807ADFFF79EFA0FCD3C1D0FC42B6855
:10849C002370DEE70098FEF7DBFB384615B0BDE82D
:1084AC00F0830000024B034A1A6000225A607047A6
:1084BC00CCE70320E09C0D00232813B502D9002043
:1084CC0002B010BDA0F10B03022B1AD8174C217867
:1084DC00BFF35B8F11F001010BD120460191FBF72B
:1084EC00E5FD019928B11248FEF7DAFE2046FBF7AC
:1084FC00E2FD0F4B1878FEF743FD0028DFD1012079
:10850C00DEE7012809D800F0A7F80021007CFEF76F
:10851C00DFFC80F00100C0B2D2E709380128EED8A8
:10852C00FFF77CFB007CFEF77BFCF2E744E60320C4
:10853C0048E60320232838B504460D460AD8FF29FF
:10854C0008D0FFF7B9FF28B129462046BDE83840CE
:10855C00FEF796BB38BD38B504460D46FEF798FBC2
:10856C00FF2810D0062804D84D2323FA00F0C307A7
:10857C0009D42046FFF7A0FF28B129462046BDE8C4
:10858C003840FEF78DBB38BD10B50446FEF780FBB6
:10859C00031FDBB2012B08D92046FFF78DFF20B15A
:1085AC002046BDE81040FEF783BB002010BD0D280F
:1085BC0010B504469CBF0E34A4B22046FFF77CFFD6
:1085CC0050B103212046FEF753FB032804D120466B
:1085DC00BDE81040FEF77CBB002010BD38B504464A
:1085EC000D46FFF769FFF0B104212046FEF740FB72
:1085FC00042805D1A9B22046BDE83840FEF760BB7F
:10860C0002212046FEF734FB02280CD12046FEF74F
:10861C003FFB012801D0042805D129462046BDE89E
:10862C003840FEF75DBB38BD38B5002320254380AC
:10863C00142304460380856005610649284600F032
:10864C003AF804496060284600F035F8E0602046AE
:10865C0038BD00BF149D0D0030B50F4D2978BFF308
:10866C005B8F11F0010487B013D12846FBF71EFD78
:10867C0078B101A8FFF7D8FF01AA21460748FFF7F8
:10868C0023FB2846FBF717FD054A0649034800F073
:10869C000BF8024807B030BDD8E70320DCE7032015
:1086AC00A4E403207D7C0D000B460146184600F027
:1086BC001FB9FBF7ECBCFBF7E8BC0000014900F06C
:1086CC00F9B800BF309D0D007FB500241023CDE913
:1086DC000234036800949E698DF8044015466B467D
:1086EC001268B0479DF8043003F00603062B03BF55
:1086FC00009B2B600120204604B070BD0098904276
:10870C0014BF01200620704710B5034B03600446CC
:10871C0000F0CDF8204610BD709D0D0010B504463C
:10872C00FFF7F2FF20460821FFF7C3FF204610BDDC
:10873C002DE9F0411F46DDE90834DDF81880984535
:10874C000646154607D1079900F0B4F818B16571C3
:10875C000020BDE8F0813946304600F0ABF8002827
:10876C00F6D00123C4F800802571A371F0E738B569
:10877C0015461C4600F09EF820B10823E360062342
:10878C002560237138BD73B505460C4601921E4613
:10879C0000F090F850B9032E08D82368019A5B6951
:1087AC002946204602B0BDE87040184702B070BDA3
:1087BC0010B5034B03600446FFF7A6FF204610BD1F
:1087CC00D09D0D0010B50446FFF7F2FF20460C219A
:1087DC00FFF76FFF204610BDF7B5089F974205467F
:1087EC000E4614460AD0A86802680897156A3146E6
:1087FC002246AC4603B0BDE8F040604719460193F1
:10880C0000F058F8019B0028EDD0062003B0F0BD15
:10881C002DE9F14F0D461946DDE90A4BDDE90CA6B1
:10882C0081461746984600F045F890B1002D34600B
:10883C00377109DB61198A450CBF06210121B17121
:10884C00002001B0BDE8F08F0235F9D10123B371DE
:10885C00F6E7544506D15946484600F02BF808B1C6
:10886C007771EDE7D9F808000368CDE90CA6CDE9DE
:10887C000A4BDC693A4643462946A44601B0BDE89A
:10888C00F04F60472DE9F04107460C4615461E4651
:10889C00FFF76DFF48B9B86803689F692A463346ED
:1088AC002146BC46BDE8F0416047BDE8F081704709
:1088BC0000207047814208B50ED0406803782A2BFF
:1088CC000CD049680B782A2B08BF013100F058F8FE
:1088DC00B0FA80F0400908BD0120FCE70020FAE75F
:1088EC000A22002100F0F4B80A22002100F0F0B8AE
:1088FC0010B5054C13462CB10A4601460220AFF3C5
:10890C00008010BD2046FCE7000000000A449142A4
:10891C0000F1FF3300D1704710B511F8014B03F88B
:10892C00014F9142F9D110BD02440346934200D14C
:10893C00704703F8011BF9E738B50D4B1D68AB6B9D
:10894C0004467BB91820FEF72FFC0A4A0A4BA86391
:10895C00C0E90023094B83600B2383810122002390
:10896C00C0E90423AB6B00221C615A6138BD00BF07
:10897C0040E403200E33CDAB34126DE6ECDE050083
:10898C0010F8012B11F8013B012A28BF9A42F7D0AD
:10899C00D01A7047034611F8012B03F8012B002A5B
:1089AC00F9D17047034613F8012B002AFBD1181A92
:1089BC000138704710B50139034632B111F8014F37
:1089CC0003F8014B013A002CF7D11A4400219342D1
:1089DC0000D110BD03F8011BF9E700002DE9F047A9
:1089EC003A4E86468C4660461CF8014BA55D15F048
:1089FC000805F8D12D2C33D19CF800404FF001081C
:108A0C0000F1020C002B5CD0102B0CD1302C0AD1B5
:108A1C009CF8000000F0DF0058284DD19CF8014074
:108A2C0010230CF1020C08F10047013F0026B7FBA4
:108A3C00F3F9304603FB197AA4F13005092D18D847
:108A4C002C46A34224DD751C07D081451DD301D1D2
:108A5C00A2451ADB00FB034001261CF8014BEBE797
:108A6C002B2C08BF9CF80040A84608BF00F1020C54
:108A7C00C8E7A4F14105192D01D8373CE1E7A4F171
:108A8C006105192D04D8573CDBE74FF0FF36E4E7BE
:108A9C00731C06D12223CEF80030384642B9BDE80B
:108AAC00F087B8F1000F00D04042002AF7D00EB189
:108ABC000CF1FF311160F2E73024002BB3D1082305
:108ACC00B1E7302CA4D00A23ADE700BF0A9E0D00FD
:108ADC0013460A46014602480068FFF77FBF00BFF5
:108AEC0040E403201D400D0059400D0081400D0055
:108AFC0085400D0000000000256900256C69002EE2
:108B0C000043686F69636520313A200043686F69E0
:108B1C00636520323A200043686F69636520333AFD
:108B2C002000696E006F75740070776D00647700BB
:108B3C006177005F5865436B46776A6F626D755459
:108B4C003838725F4E4B38364B326F7970546250F6
:108B5C00685942003100320033006C61622E746837
:108B6C006577636C2E636F6D006D61646C69627305
:108B7C0000626C6E6B696E660076657200312E3029
:108B8C002E3000682D6265617400343500627566A4
:108B9C00662D696E003130323400646576005061A8
:108BAC00727469636C65006275696C64004A756CFB
:108BBC0020313420323032312030393A31343A35A8
:108BCC003200000064656661756C7420004D534280
:108BDC00004C5342003C53504953657474696E67A2
:108BEC00732064656661756C743E003C5350495348
:108BFC00657474696E677320257325752025732041
:108C0C004D4F444525753E0000000000003E5B4F73
:108C1C005B3E3E6B4F6B3E1C3E7C3E1C183C7E3CD0
:108C2C00181C577D571C1C5E7F5E1C00183C1800DE
:108C3C00FFE7C3E7FF0018241800FFE7DBE7FF306E
:108C4C00483A060E2629792926407F050507407FDC
:108C5C0005253F5A3CE73C5A7F3E1C1C08081C1C4F
:108C6C003E7F14227F22145F5F005F5F06097F0145
:108C7C007F006689956A606060606094A2FFA29430
:108C8C0008047E040810207E201008082A1C0808FE
:108C9C001C2A08081E101010100C1E0C1E0C30384C
:108CAC003E3830060E3E0E06000000000000005F4D
:108CBC0000000007000700147F147F14242A7F2A69
:108CCC00122313086462364956205000080703002B
:108CDC00001C2241000041221C002A1C7F1C2A0877
:108CEC00083E0808008070300008080808080000DA
:108CFC0060600020100804023E5149453E00427F4E
:108D0C00400072494949462141494D331814127F9C
:108D1C001027454545393C4A49493141211109073C
:108D2C003649494936464949291E000014000000BD
:108D3C00403400000008142241141414141400418F
:108D4C0022140802015909063E415D594E7C12114C
:108D5C00127C7F494949363E414141227F41414184
:108D6C003E7F494949417F090909013E41415173FF
:108D7C007F0808087F00417F41002040413F017F70
:108D8C00081422417F404040407F021C027F7F0438
:108D9C0008107F3E4141413E7F090909063E415181
:108DAC00215E7F09192946264949493203017F0171
:108DBC00033F4040403F1F2040201F3F4038403F72
:108DCC00631408146303047804036159494D430088
:108DDC007F4141410204081020004141417F0402BF
:108DEC000102044040404040000307080020545456
:108DFC0078407F2844443838444444283844442834
:108E0C007F385454541800087E090218A4A49C7886
:108E1C007F0804047800447D40002040403D007FE2
:108E2C001028440000417F40007C047804787C08C2
:108E3C000404783844444438FC1824241818242496
:108E4C0018FC7C08040408485454542404043F447B
:108E5C00243C4040207C1C2040201C3C4030403CAA
:108E6C0044281028444C9090907C4464544C44000A
:108E7C00083641000000770000004136080002016E
:108E8C000204023C2623263C1EA1A161123A40405A
:108E9C00207A3854545559215555794122545478D7
:108EAC0042215554784020545579400C1E52721270
:108EBC0039555555593954545459395554545800F9
:108ECC0000457C410002457D420001457C407D12FD
:108EDC0011127DF0282528F07C545545002054545F
:108EEC007C547C0A097F4932494949323A4444440A
:108EFC003A324A4848303A4141217A3A4240207845
:108F0C00009DA0A07D3D4242423D3D4040403D3C45
:108F1C0024FF2424487E4943662B2FFC2F2BFF096A
:108F2C0029F620C0887E090320545479410000445E
:108F3C007D413048484A32384040227A007A0A0A49
:108F4C00727D0D19317D2629292F282629292926BC
:108F5C0030484D4020380808080808080808382F01
:108F6C0010C8ACBA2F102834FA00007B000008148B
:108F7C002A142222142A14085500550055AA55AA61
:108F8C0055AAFF55FF55FF000000FF00101010FF01
:108F9C0000141414FF001010FF00FF1010F010F05C
:108FAC00141414FC001414F700FF0000FF00FF144D
:108FBC0014F404FC141417101F10101F101F141499
:108FCC00141F00101010F0000000001F10101010E3
:108FDC001F10101010F010000000FF1010101010D7
:108FEC0010101010FF10000000FF140000FF00FF15
:108FFC0000001F10170000FC04F4141417101714B1
:10900C0014F404F40000FF00F714141414141414D2
:10901C00F700F7141414171410101F101F14141445
:10902C00F4141010F010F000001F101F0000001FAF
:10903C0014000000FC140000F010F01010FF10FFE2
:10904C00141414FF141010101F00000000F010FF77
:10905C00FFFFFFFFF0F0F0F0F0FFFFFF000000005B
:10906C0000FFFF0F0F0F0F0F3844443844FC4A4ADF
:10907C004A347E02020606027E027E026355494194
:10908C00633844443C04407E201E2006027E0202CB
:10909C0099A5E7A5991C2A492A1C4C7201724C30DF
:1090AC004A4D4D303048784830BC625A463D3E49B6
:1090BC004949007E0101017E2A2A2A2A2A44445F5A
:1090CC00444440514A444040444A51400000FF014E
:1090DC0003E080FF000008086B6B0836123624365C
:1090EC00060F090F060000181800000010100030C1
:1090FC0040FF0101001F01011E00191D1712003C49
:10910C003C3C3C000000000000000000000000009F
:10911C000000000000000000F9560D0049760D001B
:10912C00A5400D0001510D0003510D0035510D00EE
:10913C0011510D0023510D0045500D0001510D0032
:10914C002D530D00A7520D004D510D008B510D00EC
:10915C00C5510D000B520D00A9520D0027520D00E8
:10916C00000000000000000009580D0029580D00F7
:10917C00F9560D0049760D0055630D0001510D0097
:10918C0003510D0035510D0011510D0023510D00EF
:10919C0045500D0001510D002D530D000F650D00B4
:1091AC00A36A0D00556A0D00C5510D000B520D0040
:1091BC00A9520D0027520D0000044D5154540400C7
:1091CC00064D51497364700300000000000000005C
:1091DC00F14F0D00C54F0D00C74F0D0000000000F2
:1091EC00000180000000000000000000038000006F
:1091FC000000000000000007C0000000000000009C
:10920C00000007C00000000000000000000FC000BC
:10921C0000000000000000001FE000000000000043
:10922C000000001FE00000000000000000003FE014
:10923C000000000000000000003FF00000000000F3
:10924C00000000007FF0000000000000001FF87F0D
:10925C00F0000000000000003FFE7FF00000000066
:10926C000000003FFF7FF0000000000000001FFF27
:10927C00FBE0000000000000000FFFF9FFC0000041
:10928C00000000000FFFF9FFF800000000000007CD
:10929C00FFF1FFFF00000000000003FC73FFFF80E4
:1092AC00000000000001FE3FFFFF800000000000F6
:1092BC0000FF1E0FFF000000000000007FFE1FFCDF
:1092CC00000000000000003FFFFFF800000000005D
:1092DC0000000FDFFFE0000000000000001F19FF7E
:1092EC00C0000000000000003F3CFF000000000038
:1092FC000000007E7CF800000000000000007FFEF3
:10930C007C0000000000000000FFFFFC00000000DB
:10931C0000000000FFFFFE0000000000000000FF46
:10932C00FFFE0000000000000001FFEFFE00000047
:10933C000000000001FFCFFE000000000000000351
:10934C00FF07FE0000000000000003FC07FE000009
:10935C00000000000003F003FE000000000000000D
:10936C00018000FE000000000000000000007E00F4
:10937C000000000000000000003E000000000000A3
:10938C00000000000C000000000000078000FC0042
:10939C000003C0000000078001FC000003C00000B7
:1093AC0000078001FC000003C0000000078001E002
:1093BC000000001E000000078001E00000001E00FD
:1093CC007FE3F79FF9FDE7787BDFC0FFF7FFBFFD79
:1093DC00FDFF787BDFC0FFF7FFBFFDFDFF787BDF74
:1093EC00C0F0F787BC3DE1FF787BDE00F0F787BC6F
:1093FC003DE1F0787BDE0000F787803DE1E0787B93
:10940C00DE007FF7879FFDE1E0787BDE00FFF787CA
:10941C00BFFDE1E0787BDE00F0F787BC3DE1E07852
:10942C007BDE00F0F787BC3DE1E0787BDE00F0F7F7
:10943C0087BC3DE1E0787BDE00FFF7FFBFFDE1E09C
:10944C007FFBDFC0FFF7FFBFFDE1E07FFBDFC07CF0
:10945C00F3F39F3DE1E03E7BCFC000000000000035
:10946C000000000000FFFFFFFFFFFFFFFFFFFFC03A
:10947C00FFFFFFFFFD68DB111A31C0FFFFFFFFFD8F
:10948C002B5AFB6AEFC0FFFFFFFFFD4B5B3B1A3310
:10949C00C0FFFFFFFFFD6B5BDB6AFDC000006000DF
:1094AC0000000000000000000000000000E00000D0
:1094BC00000000000000000000000001E0000000BF
:1094CC000000000000000000000001F0000000009F
:1094DC0000000000000000000003F000000000008D
:1094EC00000000000000000007F000000000000079
:1094FC000000000000000007F80000000000000061
:10950C000000000000000FF800000003C0007E0007
:10951C000001E0007F0FF800000003C000FE000017
:10952C0001E000FFEFF800000003C000FE000001A6
:10953C00E000FFFFF800000003C000F00000000F87
:10954C00007FFE7FC0000003C000F00000000F0091
:10955C003FFE7FF83FF1FBCFFCFEF3BC3DEFE01F7D
:10956C00FE7FFF7FFBFFDFFEFEFFBC3DEFE01FC673
:10957C00FFFF7FFBFFDFFEFEFFBC3DEFE00FE3C70D
:10958C00FE787BC3DE1EF0FFBC3DEF0007FF87FCBF
:10959C00787BC3DE1EF0F83C3DEF0001FFFFF000CE
:1095AC007BC3C01EF0F03C3DEF0001F37FE03FFBBE
:1095BC00C3CFFEF0F03C3DEF0003E33F807FFBC3E5
:1095CC00DFFEF0F03C3DEF0007E73C00787BC3DEAC
:1095DC001EF0F03C3DEF0007FFBE00787BC3DE1EA3
:1095EC00F0F03C3DEF0007FFFE00787BC3DE1EF081
:1095FC00F03C3DEF000FFFFE007FFBFFDFFEF0F0C5
:10960C003FFDEFE00FFFFF007FFBFFDFFEF0F03FC1
:10961C00FDEFE00FF9FF003E79F9CF9EF0F01F3D12
:10962C00E7E01FF1FF000000000000000000000058
:10963C00001F80FF007FFFFFFFFFFFFFFFFFFFE02A
:10964C001C007F007FFFFFFFFEB46D888D18E000CB
:10965C00001F007FFFFFFFFE95AD7DB577E000009A
:10966C000F007FFFFFFFFEA5AD9D8D19E0000006EA
:10967C00007FFFFFFFFEB5ADEDB57EE00000000002
:10968C000000000029630D0041630D00F9560D0028
:10969C0049760D0055630D0001510D0003510D006D
:1096AC0035510D0011510D0023510D0045500D0089
:1096BC0001510D002D530D000F650D00A36A0D0017
:1096CC00556A0D00C5510D000B520D00A9520D002D
:1096DC0027520D000080C0E0F0F8FCFE00010307EB
:1096EC000F1F3F7FAED580A8D300408D2000A1C8AE
:1096FC00DB40A4A62EAFDA02818FDA1281DA028166
:10970C002200FF21000000002D6C0D002D6C0D00BF
:10971C002D6C0D002D6C0D002D6C0D002D6C0D00A5
:10972C002D6C0D002D6C0D002D6C0D002D6C0D0095
:10973C002D6C0D002D6C0D002D6C0D002D6C0D0085
:10974C002D6C0D002D6C0D002D6C0D002D6C0D0075
:10975C002D6C0D002D6C0D002D6C0D002D6C0D0065
:10976C002D6C0D002D6C0D002D6C0D002D6C0D0055
:10977C002D6C0D002D6C0D002D6C0D002D6C0D0045
:10978C002D6C0D002D6C0D002D6C0D002D6C0D0035
:10979C002D6C0D002D6C0D002D6C0D002D6C0D0025
:1097AC002D6C0D002D6C0D002D6C0D002D6C0D0015
:1097BC002D6C0D002D6C0D002D6C0D002D6C0D0005
:1097CC002D6C0D002D6C0D002D6C0D002D6C0D00F5
:1097DC002D6C0D002D6C0D002D6C0D002D6C0D00E5
:1097EC002D6C0D002D6C0D002D6C0D002D6C0D00D5
:1097FC002D6C0D002D6C0D002D6C0D002D6C0D00C5
:10980C002D6C0D002D6C0D002D6C0D002D6C0D00B4
:10981C002D6C0D002D6C0D002D6C0D002D6C0D00A4
:10982C002D6C0D002D6C0D002D6C0D002D6C0D0094
:10983C002D6C0D002D6C0D002D6C0D002D6C0D0084
:10984C002D6C0D002D6C0D002D6C0D002D6C0D0074
:10985C002D6C0D002D6C0D002D6C0D002D6C0D0064
:10986C002D6C0D002D6C0D002D6C0D002D6C0D0054
:10987C002D6C0D002D6C0D002D6C0D002D6C0D0044
:10988C002D6C0D002D6C0D002D6C0D002D6C0D0034
:10989C002D6C0D002D6C0D002D6C0D002D6C0D0024
:1098AC002D6C0D002D6C0D002D6C0D002D6C0D0014
:1098BC002D6C0D002D6C0D002D6C0D002D6C0D0004
:1098CC002D6C0D002D6C0D002D6C0D002D6C0D00F4
:1098DC002D6C0D002D6C0D002D6C0D002D6C0D00E4
:1098EC002D6C0D002D6C0D002D6C0D002D6C0D00D4
:1098FC002D6C0D002D6C0D002D6C0D002D6C0D00C4
:10990C002D6C0D002D6C0D002F6C0D0039420D00CF
:10991C002F6C0D002F6C0D002F6C0D002F6C0D009B
:10992C002F6C0D002F6C0D002F6C0D002F6C0D008B
:10993C002F6C0D002F6C0D002F6C0D002F6C0D007B
:10994C002F6C0D002F6C0D002F6C0D002F6C0D006B
:10995C002F6C0D002F6C0D002F6C0D002F6C0D005B
:10996C002F6C0D002F6C0D002F6C0D002F6C0D004B
:10997C002F6C0D002F6C0D002F6C0D002F6C0D003B
:10998C002F6C0D002F6C0D002F6C0D002F6C0D002B
:10999C002F6C0D002F6C0D002F6C0D002F6C0D001B
:1099AC002F6C0D002F6C0D002F6C0D002F6C0D000B
:1099BC002F6C0D002F6C0D002F6C0D002F6C0D00FB
:1099CC002F6C0D002F6C0D002F6C0D002F6C0D00EB
:1099DC002F6C0D002F6C0D002F6C0D002F6C0D00DB
:1099EC002F6C0D002F6C0D002F6C0D002F6C0D00CB
:1099FC002F6C0D002F6C0D002F6C0D002F6C0D00BB
:109A0C002F6C0D002F6C0D002F6C0D002F6C0D00AA
:109A1C002F6C0D002F6C0D002F6C0D002F6C0D009A
:109A2C002F6C0D002F6C0D002F6C0D002F6C0D008A
:109A3C002F6C0D002F6C0D002F6C0D002F6C0D007A
:109A4C002F6C0D002F6C0D002F6C0D002F6C0D006A
:109A5C002F6C0D002F6C0D002F6C0D002F6C0D005A
:109A6C002F6C0D002F6C0D002F6C0D002F6C0D004A
:109A7C002F6C0D002F6C0D002F6C0D002F6C0D003A
:109A8C002F6C0D002F6C0D002F6C0D002F6C0D002A
:109A9C002F6C0D002F6C0D002F6C0D002F6C0D001A
:109AAC002F6C0D002F6C0D002F6C0D002F6C0D000A
:109ABC002F6C0D002F6C0D002F6C0D002F6C0D00FA
:109ACC002F6C0D002F6C0D002F6C0D002F6C0D00EA
