:02000002D0002C
:1040000000400D0034880D00000006000C00050182
:084010000401BD0B00000000DB
:0440180010790D000E
:10401C0009480A49884208B505D0094A824202D0AB
:10402C00121A03F023FC0748074A0021121A03F066
:10403C002BFC014808BD00BFACE40320A4870D0095
:10404C0014E5032014E50320F0E7032070B5074EB8
:10405C00074C02F03DFCA41BA4080025A54200D18E
:10406C0070BD56F8043B98470135F7E77C870D0087
:10407C00A0870D0000F080B808B500F09BF8BDE8F3
:10408C00084002F0E7BB02F00FB902F00DB902F0E4
:10409C0013B902F011B9000008B5034A00210C2035
:1040AC0002F056F8FEE700BF2D5E0D000078B0FA66
:1040BC0080F04009704701230370704738B584695C
:1040CC000A4B036005467CB16368013B63605BB9D6
:1040DC00236820469B689847A368013BA3601BB9E3
:1040EC0023682046DB689847284638BDC8850D00F4
:1040FC000EB403B503AB002153F8042B019302F06B
:10410C0026FB02B05DF804EB03B07047B0B502F1CA
:10411C00080323F0070300AF1446ADEB030D002595
:10412C00684603F0A3FB0DF80450114C02F0ECFCB4
:10413C006A461049FFF7DCFF204601F02BFB2046B6
:10414C00012100F0C2FC4FF0011363616946256147
:10415C00204602F0D4FA204601F088FD4FF47A7024
:10416C0002F03EFB02F0D0FC02F0BDFABD46B0BD41
:10417C00D4E5032024790D0008B50D4800F0F4FCBB
:10418C000B4801F007FB0121094800F09EFC084890
:10419C00002303614FF00113436101F067FD02F04E
:1041AC00B3FCBDE808404FF4165102F0A1BC00BFAF
:1041BC00D4E503201FB5144C204600F0FEFC20462D
:1041CC0001F0E8FA2046012100F07FFC00224FF0BC
:1041DC0001130E48C4E9042300F0A7FE40B10B48BC
:1041EC0000F0ECFF0A49094801F030F904B010BDA9
:1041FC00684602F049F80099044800F087FF6846C9
:10420C0002F0ABF9EEE700BFD4E5032074E5032020
:10421C0027790D0073B51C4D1C4E0021012001F0B7
:10422C00B7FF2846002402F0BBFF05F11C0002F08A
:10423C00BBFB6C632C8732461549284603F0ECF91E
:10424C00144B15499C61C3E90054144D9C83C3E97C
:10425C000244C3E9044440F25B72114B00942846BB
:10426C00104C00F059FD32460F49284603F0D4F9A2
:10427C000721204600F04AFC0C493246204602B089
:10428C00BDE8704003F0C8B938E5032014E50320FD
:10429C00C9400D0018E503202F790D0074E50320AB
:1042AC0019410D00D4E5032061540D00E54A0D00C1
:1042BC00704710B51021044603F0B3F9204610BD29
:1042CC0073B5044608462279A36832B1A3B90B49E9
:1042DC0002B0BDE8704002F0FFB9094A267B094DD7
:1042EC000949647B012E18BF2946CDE90014074902
:1042FC00FFF7FEFE02B070BD054AEFE74F790D00E7
:10430C0046790D004B790D0047790D0065790D004C
:10431C003E790D002DE9F04F85B01F46BDF9388070
:10432C00BDF83C30A8EB0209A7EB010AB9F1000F6C
:10433C00B8BFC9F10009BAF1000FB8BFCAF1000A41
:10434C00D14583460C46154604DD3A462C46474675
:10435C000D469046BC4205DD2A464546904622460F
:10436C003C4617463E1BB2B20092A8EB0502002A4F
:10437C00B8BF52420192C6F3C03202FA86F64545E6
:10438C00B4BF01224FF0FF3276100292BC421CDC0B
:10439C00DBF800200393D145D2F81880C7BF29461B
:1043AC0022462A4621465846C047019A039BB61A14
:1043BC00B1B236B2002E05DA029A1544009A56189C
:1043CC002DB236B2013424B2E0E705B0BDE8F08F6F
:1043DC00704710B404682469A4465DF8044B604728
:1043EC0030B40468BDF808500295A46BA44630BCE8
:1043FC00604730B40468BDF808500295E46BA446DD
:10440C0030BC604770B4BDF90C50BDF81060046846
:10441C00CDE90356246CA44670BC60472DE9F341EA
:10442C001C460368BDF820805B6905461646013CB6
:10443C0034440F4624B298472B68CDF8048000947E
:10444C009C6A28463B4632463946A0472B68DB6AB5
:10445C00284602B0BDE8F04118472DE9F3411D464E
:10446C000368BDF820805B69044617460E469847E2
:10447C00CDE9007822686B1E3344956A20461BB246
:10448C003A463146A8472368DB6A204602B0BDE8AD
:10449C00F04118472DE9F3471E460368BDF92890F3
:1044AC005B69BDF82C800C46054617469847264498
:1044BC00B4422B680BDACDF80080D3F820A021464B
:1044CC004B463A4628460134D04724B2F0E7DB6A23
:1044DC00284602B0BDE8F047184713B502680191B1
:1044EC00B0F90E100091146CB0F90C30002211468A
:1044FC00A04702B010BD2DE9F3471D460368BDF877
:10450C002C805B69BDF9289004460F4616469847E7
:10451C002368CDF80080D3F824A032462B463946C8
:10452C002046D0472368CDF8008009F1FF32324491
:10453C00D3F824A039462B46204612B2D047236824
:10454C00CDF80080D3F820A032464B4639462046A1
:10455C00D0476B1ED9192368CDF800801D6A204600
:10456C004B46324609B2A8472368DB6A204602B0A4
:10457C00BDE8F047184770472DE9F74399421646B6
:10458C00BDF92870BDF82C90026880460D461C467B
:10459C0013D1BE42C8BF3346CDF82890C4BF3E46A7
:1045AC001F467B1C946B9B1B1BB232462946404614
:1045BC00A44603B0BDE8F0436047BE420AD199421D
:1045CC00C2BF0B4625461C46631CCDF82890D46B05
:1045DC005B1BE9E753699847CDE90079D8F80030BF
:1045EC0040469F6A324623462946B847D8F80030E1
:1045FC00DB6A404603B0BDE8F043184701F0030303
:10460C00B0F90A208376C907B0F9083059BF838105
:10461C00C2818281C381704730B54281C281074A11
:10462C00074D0181002481814FF0FF31C0E9051253
:10463C004460056004610477046230BD010100012F
:10464C008C7E0D002DE9F04F89B0CDE90212026885
:10465C00BDF948800493BDF94C3052690593BDF8FF
:10466C0050A00446904718F107024FF0000648BFCF
:10467C0008F10E024FEAE20B01963546039B019AB4
:10468C00BDF904109A18059B8B4212B227DD049BCE
:10469C0033444FF0000906930FFA89F080451FFA56
:1046AC0089F117DD4F0705BF069BC0106D001D5C1F
:1046BC0018BFEDB22B060AD5029B2068079219444D
:1046CC00836909B21F4620465346B847079A09F139
:1046DC000109E1E7019B013301935E44CEE72368B6
:1046EC00DB6A204609B0BDE8F04F18472DE9F04FC2
:1046FC002DED028B91B01646026ABDF874809DF8C0
:10470C0078509DF87C4003911F46BDF8703004939F
:10471C008346002A40F0C580B0F90C308B4240F340
:10472C004C81B0F90E30B34240F34781062313FBA2
:10473C000513002B40F3418106EBC403002B40F31F
:10474C003C81037F1BB9AF2F84BF0137FFB2DBF86D
:10475C00003058465B699847052209920022059261
:10476C00984A07EB8703D3180C93B3B20693059AB8
:10477C000C9B9B5C0793ABB20B93BDF80C3008936E
:10478C00039B02FB05F919FA83F90FFA89F308EE7A
:10479C00103A08230A93039B02EB030A4FF000091B
:1047AC000FFA8AFA079ADBF80030D20752D5012D9E
:1047BC001FFA89F23ED1012C3CD19B6906991F4608
:1047CC00049B0A4412B251465846B84709F10103FA
:1047DC004FFA83F9079B5B0807930A9B013B13F085
:1047EC00FF030A93DED1059F01377BB20593099B2A
:1047FC00013B13F0FF030993B9D1049B43450FD040
:10480C00012DDBF800303BD1012C39D10899CDF8C2
:10481C00008005311C6A3246082309B25846A0476D
:10482C00DBF80030DB6A584611B0BDEC028BBDE8FA
:10483C00F04F1847069914FB02F20A4404990191AF
:10484C000094DB6918EE101A1F4612B22B4658461C
:10485C00B847BBE7049A4245B8D0012D1FFA89F23C
:10486C0007D1012C05D19B6906991F460A44434682
:10487C00A8E70699CDF8048014FB02F20A44DFE79E
:10488C000B9ACDF8048002EB8201089AE4000A44EA
:10489C0011460094DC6932462B4609B25846A047B3
:1048AC00BEE7137A516812680D92FF1AFFB201EB42
:1048BC00C70331F8372006929A780992DA780B926E
:1048CC00012D93F9052093F906A00A9201D8012C29
:1048DC0057D9BDF9283008930FFA8AF30793DBF800
:1048EC00003058465B699847B3B24FF000080E93FE
:1048FC001AFA86F3C14647460F930B9B9F428FD201
:10490C00079B0E9A3B4403FB0423002205920F9A4B
:10491C001BB202EB070A08EE103A0FFA8AFA43466A
:10492C00099A0599914241D25A1CD2B25B070C925A
:10493C0007D1069B06990D9A01339BB212F8019090
:10494C00069319F0800F12D0012DDBF80030BDF862
:10495C000C101AD1012C18D10A9A9B691144059A92
:10496C0011441E465246049B09B25846B047059E58
:10497C000136F3B24FEA490905935FFA89F90C9BAA
:10498C00CEE70023CDE90733A9E70598089A02443E
:10499C0002FB0511049ACDE90042DB6918EE102ADE
:1049AC001E4609B22B465846B047E0E7099B013733
:1049BC0098445FFA88F8FFB29FE711B0BDEC028B08
:1049CC00BDE8F08F82790D00F0B5026A85B004461F
:1049DC000B46002A34D10A2908D1438A0282427E2E
:1049EC0003EBC2036382012005B0F0BD0D29FAD0A0
:1049FC00E17E007E657E71B1B4F91060062111FB79
:104A0C000061B4F90C60B142C1BFB4F9121022823A
:104A1C0001EBC5026282E28A0192A28A0092CDE980
:104A2C000205B4F91220B4F910102046FFF75EFE0F
:104A3C00237E228A03EB430302EB43032382D2E758
:104A4C000A2907D100230382937A417E428A01FB13
:104A5C000323C7E70D29C6D0157AA942C3D3517ACF
:104A6C009942C0D351685D1BEDB201EBC505AF781F
:104A7C002FB3E97819B3E17E007E667E91B195F98A
:104A8C0005103944B4F9107000FB0171B4F90C70C5
:104A9C00B94207DD00272782B4F91210927A02FB83
:104AAC0006126282E28A0192A28A0092CDE9020683
:104ABC00B4F91220B4F910102046FFF717FE29792B
:104ACC00237E228A01FB0323B8E7012938BF012189
:104ADC00017641767047000010B5064B0360044622
:104AEC00006D08B101F0B4F9204600F0DBFC204663
:104AFC0010BD00BFE47E0D0010B50446FFF7ECFFBF
:104B0C002046702102F08DFD204610BD30B585B0D9
:104B1C0004460D4602F058FD104A1149CDE9012119
:104B2C004FF0FF328021034600922046202200F0F5
:104B3C003FFD0C4B23600023C4E9143504F15800ED
:104B4C0000F054F804F1600000F050F804F1680033
:104B5C0000F04CF8204605B030BD00BF801A0600AE
:104B6C00A0860100E47E0D0013B50446503001F020
:104B7C0067F9636DD90705D50222042104F15800A9
:104B8C0000F048F8636D9A0705D50022032104F163
:104B9C00600000F03FF8636D5B0705D502221146FB
:104BAC0004F1680000F036F8012300933C22022146
:104BBC00204600F0FDFD02B010BD10B5436DD907C5
:104BCC00044602D5583000F032F8636D9A0703D5CD
:104BDC0004F1600000F02BF8636D5B0705D504F160
:104BEC006800BDE8104000F022B810BD00210A2278
:104BFC00C0E900127047002310B50446C1718371DF
:104C0C0088B202F0B5FC08B10323A37101F010F9CE
:104C1C00206010BD38B50C4605461146A0B202F016
:104C2C007DFC21462846BDE83840FFF7E4BF38B587
:104C3C000446C07902F09CFCA579003825F00803E5
:104C4C0018BF0120C5F340058542A3710AD001F0BD
:104C5C00EFF8A379206083F00203A371A079C0F36D
:104C6C00C00038BD01F0E4F82368C01AA38898424C
:104C7C00F4D3A37903F00103AB42EFD001F0D8F8E1
:104C8C00A379206083F0010343F00803E5E791F872
:104C9C005C3010B50446016013B1886D01F0E0F88A
:104CAC00204610BD10B5036893F85C20044612B181
:104CBC00986D01F0DDF8204610BDF8B51F469DF843
:104CCC00243004460D4616462BB1012380F85C3087
:104CDC00583001F0B5F8089B23630023636306B1D9
:104CEC00A66425B1294604F1380001F095FC069B19
:104CFC002365079BE069A4F84C70FF2BB8BFFF231A
:104D0C00A4F8543008B1FFF7C4F9B4F85400FFF715
:104D1C00BCF9E061F8BD00002DE9FF410446002517
:104D2C00174698460E4602F03BFA0D49E56104F130
:104D3C00380001F05DFC9DF82830A564CDE90283B4
:104D4C00FF220F23CDE90032204684F85C503B460D
:104D5C002A463146FFF7B1FF204604B0BDE8F0818A
:104D6C0046790D0010B50446204602F075F900286E
:104D7C00FAD0204602F0A9F8C0B210BD2DE9F047D8
:104D8C000546C4690F46FFF7EDFF2070EB6993F8F9
:104D9C0000A04FF001090AF0F00A4FF000084C4651
:104DAC002846FFF7DFFF2646EB69985500F07F0396
:104DBC0013FB09F3984401340306A4B21FFA88F8D4
:104DCC004FEAC919ECD4631EBAF1300F3B7024D1F1
:104DDC002846EF69FFF7C6FF38552846EF69F41CE3
:104DEC00FFF7C0FF0236B6B2A4B2B8550226B6B26F
:104DFC00B1462746C14512D22846FFF7B3FFB5F896
:104E0C005430BB4288BFEB6909F1010988BFD85502
:104E1C000137BFB21FFA89F9ECE70026E7E7A8EBE8
:104E2C000600B0452CBF064600263444B5F85400A5
:104E3C00A4B2A0422CBF20460020BDE8F087F7B5F5
:104E4C008C461E461D4607460023AE4602A805F0BA
:104E5C007F01BEF17F0F03F10104034488BF41F0D1
:104E6C008001BEF17F0F4FEAD515E4B203F8041CA4
:104E7C0010D8C4F10403D11802F803C0C4F105031F
:104E8C00134401A80532934206D010F8015B03F8D5
:104E9C00015BF8E72346D8E7721C2244384601F040
:104EAC003EFF054600F0C4FF621C78623244A8B293
:104EBC00131A5842584103B0F0BD13B504460146CD
:104ECC0001A8FFF7E4FEE369E0221A70E36900220F
:104EDC005A70E1690222204601F021FF204602F0BF
:104EEC0015F900F0A5FFC4E9090001A8FFF7DAFEE7
:104EFC0002B010BD0233F0B5044698B20023CD5C6D
:104F0C0055B1B4F85460864203F1010704D9461C2C
:104F1C0015543B46B0B2F2E799B2441A2244091236
:104F2C0002F8021C02F8013CF0BD38B5044601F051
:104F3C000CFF002814BF0125002502D1204602F0E9
:104F4C00E5F8284638BD00002DE9F04788B0044646
:104F5C00DDF840809DF850A0894617461E46FFF7A5
:104F6C00E4FF0546002840F0CB80214601A8FFF75E
:104F7C008EFEA16C002940F08780B4F84C20A16B08
:104F8C002B46204602F020F9002879D001232384F7
:104F9C009DF85430E269042B40F08180594B18681D
:104FAC0099889B79ADF80C108DF80E300290C2F8F0
:104FBC0005009DF80E30BDF80C10A2F80910D37244
:104FCC000C23B8F1000F7FD09DF848009DF84420C9
:104FDC00400140EAC20040F00600C0B2BAF1000F36
:104FEC0001D100F0FD001FB1002E6FD140F0800008
:104FFC00E269D054226DE169581C12120A549A1CB1
:10500C00E169206D88540333E26949462046FFF775
:10501C0071FF0346B8F1000F0BD0E2694146204600
:10502C00FFF768FFE269139903462046FFF762FF1A
:10503C00034667B1E26939462046FFF75BFF03463A
:10504C002EB1E26931462046FFF754FF0346053B7B
:10505C00E2699BB210212046FFF7F1FE00F0E8FE5A
:10506C00C4E909004FF47A76204601F0F5FF80BBC5
:10507C0000F0DEFEA36AC01A236D73439842F3D985
:10508C00204602F043F834E002A801F0D1FCB4F859
:10509C004C202B4602A9204601F063FF74E71A4B03
:1050AC00186859681B7A0DF1080CACE803008CF8F1
:1050BC00003002AB03CBC2F80500C2F809109CF813
:1050CC00003053730E237CE7022087E740F0C000CA
:1050DC008EE702A92046FFF751FE0428D0D1E369E0
:1050EC00DE78002ECCD100F0A3FE0125A06284F85E
:1050FC002C6001A8FFF7D6FD284608B0BDE8F08764
:10510C000025F9E7347F0D003B7F0D007FB50123AF
:10511C000422CDE904320023CDE90233CDE900337A
:10512C001A46FFF711FF07B05DF804FB73B5044690
:10513C000E46FFF7FAFE0546C8B1214601A8FFF757
:10514C00A6FDE36962221A70E36902225A70E369D0
:10515C0032129A70E369DE70E1690422204601F094
:10516C00DEFD051E01A818BF0125FFF79BFD284693
:10517C0002B070BD73B504460E46FFF7D6FE054669
:10518C00C8B1214601A8FFF782FDE36972221A70AB
:10519C00E36902225A70E36932129A70E369DE7095
:1051AC00E1690422204601F0BAFD051E01A818BFD2
:1051BC000125FFF777FD284602B070BD2DE9F04FB1
:1051CC002DED028B87B000AF0446FFF7AEFE814693
:1051DC00F8B1214607F11400FFF759FD00F028FE45
:1051EC00226D4FF47A735343A26A821A9A4206468E
:1051FC0003D8626A821A934221D294F82C307BB184
:10520C00204601F083FF4FF0000907F11400FFF76F
:10521C0049FD48461C37BD46BDEC028BBDE8F08FFE
:10522C00E269C0211170E2695370E16902222046E3
:10523C0001F075FDC4E90966012384F82C30204681
:10524C0001F00AFF0028E0D007F113012046FFF718
:10525C0095FD83460028D8D0E369A662197801F041
:10526C00F002302A7FD1D4F830A0BAF1000FCCD0A4
:10527C0097F813C06A4608EE102A03EB0C02557817
:10528C00917801EB05218DB205F108026946D2082F
:10529C00A1EBC20295460CF10302FA6003EB020E7D
:1052AC000DEB05026846C7F808D07A60D7E90121F2
:1052BC008A4206D00A461EF8018B02F8018BBA60AE
:1052CC00F4E70022425593F80080F96808F00608CC
:1052DC00ABEB0C02033AB8F1020FA2EB0502294426
:1052EC0025D113F801E01944023A91F801B00CF100
:1052FC000501294419440BEB0E2BD047E3694022DE
:10530C001A70E3691FFA8BFB83F80180E3694FEA9B
:10531C002B229A70E36983F803B0E16904222046DA
:10532C0001F0FDFC666218EE103A9D466DE7B8F18F
:10533C00040F15D113F801E01944023A91F801B0A9
:10534C000CF10501294419440BEB0E2BD047E369F2
:10535C0050221A70E36902221FFA8BFB5A70D5E7B0
:10536C001944D047DFE7502A08D19A78D97801EB55
:10537C00022189B22046FFF7D9FE46E7402A12D116
:10538C00626B002A3FF441AFBBF1040F7FF43DAFD9
:10539C0011F0060F7FF439AF9978D87800EB012023
:1053AC0080B2904731E7602A08D19A78D97801EB1E
:1053BC00022189B22046FFF7DDFE26E7702ADFD0F6
:1053CC00902A3FF422AFC02A0AD1D0221A70E36986
:1053DC0000225A70E1690222204601F0A0FC14E779
:1053EC00D02A04BF002384F82C300EE7F7B504460E
:1053FC000F461646FFF799FD054610B3214601A846
:10540C00FFF745FC238C01339BB2EBB12384238C37
:10541C00E2691B125371E369228C9A71E2690723CA
:10542C0039462046FFF766FDE3691E54043883B203
:10543C00E26982212046FFF702FD054601A8FFF72D
:10544C0031FC284603B0F0BD0123DFE70022FFF753
:10545C00CDBF000038B50546FFF767FD10B12846F3
:10546C00FFF72BFDE86908B1FEF713FE05F13800D4
:10547C0001F073F8AC690A4B2B607CB16368013B9B
:10548C0063605BB9236820469B689847A368013B1F
:10549C00A3601BB923682046DB689847284638BDB3
:1054AC00C8850D0010B5044B03600446C06A08B1F2
:1054BC0000F002FF204610BD00840D0010B504461C
:1054CC00FFF7F0FF2046502102F0ABF8204610BD4C
:1054DC00002910B54BDBB0F90C408C4247DD002A9B
:1054EC0045DBB0F90E40944241DD847E022C1FD086
:1054FC00032C26D0012C04D10489D24314440A462F
:10550C0021B2012B23D0022B32D083BB002A1346AD
:10551C000489C06AB8BFD31DDB1013FB041102F061
:10552C00070201239340425C22EA030242541EE02C
:10553C000489C94321444489D243224409B212B29A
:10554C00DFE74489C9430C44114622B2D9E7002A4B
:10555C0004891346B8BFD31DDB1013FB0411C36AB7
:10556C0002F0070001228240585C02435A5410BDDD
:10557C00002A13460489C06AB8BFD31DDB1013FB85
:10558C00041102F00702012303FA02F2435C5A40B1
:10559C00CCE710B5044690F93600012180B201F039
:1055AC00CEFF606A18B1BDE8104000F00CBF10BD12
:1055BC0070B504461D460026FFF72EF8114B2360EC
:1055CC00666215B902F000F80546FF2384F8333003
:1055DC0084F836309DF9103084F837300A4BA363C9
:1055EC00012384F83C30059BA3644FF6FF72069BA5
:1055FC00A286C4E90A562664A4F84460E3642046F3
:10560C0070BD00BF00840D004C7F0D00F8B5044642
:10561C00806A0D4690B194F9301001F069FBA06AD4
:10562C00036800219B689847A06A036829469B6819
:10563C009847A06ABDE8F84001F061BB94F9353099
:10564C00014698B201F07BFF606A20B12946BDE8A3
:10565C00F84000F03FBF0826802794F9330005EA94
:10566C00070180B201F06BFF94F93400012180B284
:10567C0001F065FF94F93400002180B201F05FFF66
:10568C00013E4FEA5707E8D1F8BD38B50446806AA9
:10569C000D4680B1A16C01F01DFB002D204614BFFE
:1056AC00A721A621FFF7B2FFA06A88B1E16CBDE883
:1056BC00384001F00FBB606A18B104F1380100F0FA
:1056CC009BFE94F93600002180B201F038FFE4E72C
:1056DC002046BDE83840FFF75CBF2DE9F84304468F
:1056EC00806A0D468F1840B394F9301001F000FB1E
:1056FC00A06A036800219B6898470126BD42A06AF6
:10570C0017D01F2E0CD901F0FAFA94F93010A06AB8
:10571C0001F0EEFAA06A036800219B689847012605
:10572C00A06A15F8011B036801369B689847F6B20E
:10573C00E4E7BDE8F84301F0E2BA94F935300146EC
:10574C0098B201F0FCFEAF4222D0606A15F8019BC2
:10575C0018B1494600F0BEFEF5E708264FF0800868
:10576C0094F9330009EA080180B201F0E8FE94F9DB
:10577C003400012180B201F0E2FE94F934000021E2
:10578C0080B201F0DCFE013E4FEA5808E8D1DAE7BE
:10579C00BDE8F883B0F90A30DA1D48BF03F10E02F8
:1057AC00B0F90830C06AD2105A43002102F06CB82C
:1057BC002DE9FF411E46C36A9DF8288004460F461A
:1057CC001546B3B12046FFF7E5FFB4F90A00B4F96A
:1057DC00081020281FDC20230122CDE901322038BB
:1057EC0073237339009300EBD070894B01EBD171AB
:1057FC001FE0B0F90A30D81D48BF03F10E00B4F910
:10580C000830C010584300F04FFDE0620028D9D199
:10581C0004B0BDE8F08140234FF0010CCDE9013C10
:10582C0052234038523900937A4B00EBD07001EB85
:10583C00D17140F34F0241F34F012046FEF702FFB6
:10584C00A06A84F83170002878D0002D74D1B4F996
:10585C000A30202B0CBF3C253D2584F83050B8F184
:10586C00000F01D001F03AFAFEB194F9370000288C
:10587C001BDB012180B201F051FE94F937000121AC
:10588C0080B201F05CFE012000F0AAFF94F9370011
:10589C00002180B201F053FE0A2000F0A1FF94F920
:1058AC003700012180B201F04AFEA06A002874D0B2
:1058BC00A16C01F00FFA042257492046FFF70DFFA7
:1058CC00A17A0139C9B22046FFF7A0FE5349042240
:1058DC002046FFF702FF94F93130012B0CBF102149
:1058EC0014212046FFF792FE04224D492046FFF773
:1058FC00F4FEA3684B4A93425CD14B4904222046E8
:10590C00FFF7EBFED9212046FFF780FE94F93130EA
:10591C00012B0CBF2221F1212046FFF777FE2046F8
:10592C0042490622FFF7D9FEA06A002863D0E16C39
:10593C0001F0D0F901206BE76DB28EE794F93500D8
:10594C00012180B201F0EAFD94F93600012180B208
:10595C0001F0E4FD94F93600012180B201F0EFFD75
:10596C00656A3DB1B8F1000F3FF47EAF284600F0F8
:10597C0019FD79E794F93300012180B201F0CEFDD5
:10598C0094F93400012180B201F0C8FD94F934007F
:10599C00294680B201F0D3FD66E7606A18B104F1C4
:1059AC00380100F029FD94F93600002180B201F095
:1059BC00C6FD80E71E4A93420ED11E4903222046A3
:1059CC00FFF78BFE94F93130012B0CBF9F21CF21B7
:1059DC002046FFF71BFE95E7174A934292D11749D1
:1059EC0003222046FFF779FE94F93130012B0CBFCE
:1059FC001021AF21ECE794F93600012180B201F0BF
:105A0C009EFD606A002895D000F0DDFC92E700BF97
:105A1C0018820D00587F0D0060840D0064840D0009
:105A2C0068840D008000200072840D006C840D00D1
:105A3C008000400076840D006000100079840D0019
:105A4C0070B5002ABDF810503DDBB0F90A40944205
:105A5C0039DD0029BEBF5B181BB20021B0F908402C
:105A6C00CE18A642C4BF631A1BB2002B2BDDC06A32
:105A7C00D61014FB0611014402F0070001228240EB
:105A8C00012DD2B216D0022D0BD0E5B9D243D2B231
:105A9C000B44994217D011F8010B104001F8010C7E
:105AAC00F7E70B4499420ED011F8010B504001F866
:105ABC00010CF7E70B44994205D011F8010B104388
:105ACC0001F8010CF7E770BDF0B50029BDF81460C2
:105ADC0076DBB0F90850A94272DA002ABCBFD218A2
:105AEC0013B2B0F90A40B8BF0022D718A742C4BFFE
:105AFC00A31A1BB2002B63DDC2F3C404C76A15FBE7
:105B0C00041112F00702DBB207EB010423D0C2F13F
:105B1C000802D2B22C4D93423CBF4FF0FF0CA2EBCB
:105B2C00030EAD5C3CBF4CFA0EFC0CEA0505012ED5
:105B3C0007D0022E2ED04EB917F801C02CEA05055D
:105B4C0003E017F801C045EA0C057D54934237D3A6
:105B5C00B0F908100C449A1AD2B2072A0ED9022EA8
:105B6C001DD113462178C9432170083BB0F90810A8
:105B7C00DBB2072B0C44F5D802F0070202B3134B2F
:105B8C00012E9B5C19D0022E1BD0CEB9227822EAB2
:105B9C00030314E017F801C085EA0C05D5E7002EC5
:105BAC0014BFFF25002513462570083BB0F90810DB
:105BBC00DBB2072B0C44F7D8DEE7227813432370B3
:105BCC00F0BD22785340FAE750840D0058840D0044
:105BDC0070B41446827EBDF80C60022A0DD0032AE4
:105BEC0018D0012A11D10289E443144424B203963B
:105BFC000A46214670BCFFF767BF42890589E4431A
:105C0C0019441444691A24B209B20396224670BC92
:105C1C00FFF716BF45891944691A09B2E7E730B492
:105C2C001446827EBDF80850022A0DD0032A18D0E3
:105C3C00012A11D1E2180489A41A24B202950A4649
:105C4C00214630BCFFF7FCBE0289C9431144E2185F
:105C5C004489A41A09B224B20295224630BCFFF73B
:105C6C0033BF4289C943114409B2E7E72DE9F84330
:105C7C000446806A002842D0A16C01F02BF84749F9
:105C8C0005222046FFF729FD217A01392046C9B2A9
:105C9C00FFF7BCFCB4F90A30DE1D48BF03F10E0659
:105CAC00D4E90A052389F61013FB06F615FA86F6D5
:105CBC0000283AD094F9301001F01AF8A06A036861
:105CCC0040219B6898470127B542A06A24D01F2F1A
:105CDC000CD901F014F894F93010A06A01F008F80E
:105CEC00A06A036840219B6898470127A06A15F8B1
:105CFC00011B036801379B689847FFB2E4E7606AB1
:105D0C0018B104F1380100F077FB94F9360000214A
:105D1C0080B201F014FCB2E700F0F1FFA06A78B396
:105D2C00E16CBDE8F84300F0D5BF94F935000121D2
:105D3C0080B201F004FCB542F0D0606A15F8019B0A
:105D4C0018B1494600F0C6FBF5E708274FF080086C
:105D5C0094F9330009EA080180B201F0F0FB94F9E0
:105D6C003400012180B201F0EAFB94F934000021E7
:105D7C0080B201F0E4FB013F4FEA5808E8D1DAE7C2
:105D8C0094F93600012180B201F0D9FB606A18B198
:105D9C00BDE8F84300F017BBBDE8F8837C840D0028
:105DAC0008B5024B1B689B68019308BD6802030091
:105DBC0008B5024B1B68DB68019308BD6802030041
:105DCC0008B5024B1B689B68019308BD2C020300AD
:105DDC0008B5024B1B68DB68019308BD2C0203005D
:105DEC0008B5024B1B681B69019308BD2C0203000C
:105DFC0008B5024B1B685B69019308BD2C020300BC
:105E0C0008B5024B1B685B69019308BD6C0203006B
:105E1C0008B5024B1B685B68019308BD18020300B0
:105E2C0008B5024B1B68DB68019308BD1802030020
:105E3C0008B5024B1B685B69019308BD180203008F
:105E4C0008B5024B1B681B6B019308BD480203008D
:105E5C0008B5024B1B685B6B019308BD480203003D
:105E6C0008B5024B1B689B6B019308BD48020300ED
:105E7C0008B5024B1B681B6C019308BD480203005C
:105E8C0008B5024B1B685B6C019308BD480203000C
:105E9C0008B5024B1B689B6C019308BD48020300BC
:105EAC0008B5024B1B685B69019308BD64020300D3
:105EBC0008B5024B1B681B6A019308BD6402030002
:105ECC0008B5024B1B689B6A019308BD6402030072
:105EDC0008B5024B1B681B68019308BD3C0203000C
:105EEC0008B5024B1B68DB68019308BD3C0203003C
:105EFC0008B5024B1B681B69019308BD3C020300EB
:105F0C0008B5024B1B685B69019308BD3C0203009A
:105F1C0008B5024B1B689B69019308BD3C0203004A
:105F2C0008B5024B1B68DB69019308BD3C020300FA
:105F3C0008B5024B1B681B6A019308BD3C020300A9
:105F4C0008B5024B1B689B6A019308BD3C02030019
:105F5C0008B5024B1B681B68019308BD280203009F
:105F6C0008B5024B1B68DB68019308BD28020300CF
:105F7C0008B5024B1B689B69019308BD28020300FE
:105F8C0008B5024B1B68DB69019308BD28020300AE
:105F9C0008B5024B1B681B6A019308BD280203005D
:105FAC0008B5024B1B685B6A019308BD280203000D
:105FBC0008B5024B1B689B6A019308BD28020300BD
:105FCC0008B5024B1B68DB6A019308BD280203006D
:105FDC0008B5024B1B681B6B019308BD280203001C
:105FEC0008B5024B1B685B6B019308BD28020300CC
:105FFC0008B5024B1B681B6C019308BD28020300FB
:10600C0008B5024B1B689B69019308BD380203005D
:10601C0008B5024B1B68DB69019308BD380203000D
:10602C0008B5024B1B681B6A019308BD38020300BC
:10603C0008B5024B1B689B6A019308BD380203002C
:10604C0008B5024B1B681B6B019308BD380203009B
:10605C0008B5024B1B689B6B019308BD380203000B
:10606C0008B5024B1B681B68019308BD3002030086
:10607C0008B5024B1B685B69019308BD3002030035
:10608C0008B5024B1B68DB69019308BD30020300A5
:10609C0008B5024B1B681B6A019308BD3002030054
:1060AC0008B5024B1B685B6A019308BD3002030004
:1060BC0008B5024B1B68DB6B019308BD3002030073
:1060CC0008B5024B1B681B6C019308BD3002030022
:1060DC0008B5024B1B685B6C019308BD30020300D2
:1060EC0008B5024B1B681B68019308BD4C020300EA
:1060FC0008B5024B1B685B68019308BD4C0203009A
:10610C0008B5024B1B681B69019308BD4C020300C8
:10611C0008B5024B1B685B69019308BD4C02030078
:10612C0008B5024B1B689B69019308BD4C02030028
:10613C0008B5024B1B68DB69019308BD4C020300D8
:10614C0008B5024B1B681B6A019308BD4C02030087
:10615C0008B5024B1B685B6B019308BD6002030022
:10616C0008B5024B1B681B6D019308BD6002030050
:10617C0008B5024B1B685B68019308BD2002030045
:10618C0008B5024B1B685B69019308BD2002030034
:10619C0008B5024B1B68DB6A019308BD20020300A3
:1061AC0008B5034B1B68D3F88830019308BD000079
:1061BC002002030008B5034B1B68D3F894300193FD
:1061CC0008BD00002002030008B5024B1B685B6889
:1061DC00019308BD4002030008B5024B1B689B6885
:1061EC00019308BD4002030008B5024B1B68DB6835
:1061FC00019308BD4002030008B5024B1B681B69E4
:10620C00019308BD4002030008B5024B1B685B6993
:10621C00019308BD4002030008B5024B1B689B6943
:10622C00019308BD4002030008B5024B1B68DB69F3
:10623C00019308BD4002030008B5024B1B681B6AA2
:10624C00019308BD4002030008B5024B1B681B6B91
:10625C00019308BD4002030008B5024B1B685B6B41
:10626C00019308BD4002030008B5024B1B681B6C70
:10627C00019308BD4002030008B5024B1B685B6C20
:10628C00019308BD4002030008B5024B1B68DB6993
:10629C00019308BD4402030008B5024B1B68DB6B7D
:1062AC00019308BD4402030008B5024B1B681B6830
:1062BC00019308BD1C02030008B5024B1B685B6808
:1062CC00019308BD1C02030008B5024B1B689B68B8
:1062DC00019308BD1C02030008B5024B1B685B6AE6
:1062EC00019308BD1C02030008B5024B1B68DB6B55
:1062FC00019308BD1C02030008B5024B1B685B6CC4
:10630C00019308BD1C020300002240681146FFF7F0
:10631C0093BF002240681146FFF79EBF40680022E1
:10632C00FFF792BF4068002281F00101FFF77CBFAC
:10633C00002340681A461946FFF76EBF00234068D9
:10634C001A461946FFF760BF002240681146FFF756
:10635C0053BF002240681146FFF73EBF4068002241
:10636C000221FFF741BF002340681A46FFF72CBFFC
:10637C00024B03225A60024A1A60704750E603200F
:10638C008C840D000021FFF79BBE0021FFF7A0BEFF
:10639C0010B5044608462170FFF772FE00236360B7
:1063AC00204610BD10B504460078FFF7EBFF48B946
:1063BC0020784FF6FF71FFF753FE2078BDE81040B0
:1063CC00FFF7E3BF10BD0078FFF7DFBF400830B523
:1063DC001860002418688842E5B206D90134082CEC
:1063EC0002D040081860F5E70725024B5B5D13707F
:1063FC0030BD00BFC0840D002DE9F04306468FB0C0
:10640C0000780C46FFF7BEFF00281BDB3578142202
:10641C00002109A801F038FA0B23002209A928460B
:10642C00ADF82430FFF73CFE9DF82D3013B19DF8EC
:10643C002C5055B10027B946B846012523795DB1DA
:10644C00C3B100200FB0BDE8F083DDF830809DF8BB
:10645C0034909DF83570F1E7002B35D1A368434596
:10646C0008D18DF820908DF82170BDF82020A389DB
:10647C009A42E6D00023A1688DF80F300A9804AB3D
:10648C000DF10F02FFF7A2FF217985B989B9A36835
:10649C0043450ED38DF820908DF82170BDF8202047
:1064AC00A3899A4205D1049B434502D1C9E700292F
:1064BC00F9D100230193637B00939DF80F20237B7C
:1064CC003078FFF7F5FDBCE7CDE900552B462A46A1
:1064DC000121F5E708B50078FFF7CAFDC0B208BD89
:1064EC0010B50446006818B1FFF7E6FE00232360E0
:1064FC0010BD10B50446FFF7F3FF204610BD000099
:10650C0010B5094B094C022200201A60084B206080
:10651C00A080A071A360FFF72BFE2046054A064918
:10652C00BDE8104001F078B864E6032058E603207B
:10653C000000FFFF14E50320FF640D0070B586B06A
:10654C00064601AD684600F073FA0FCD341D0FC43A
:10655C002B682370304606B070BD10B50446006839
:10656C00FFF7AAFE204610BD10B50446006808B11E
:10657C00FFF7A2FE0023C4E90133236010BD38B538
:10658C0004460D4600680131FFF79EFE10B1C4E9C8
:10659C000005012038BD10B50368044623B14368DB
:1065AC008B4201D3012010BD2046FFF7E8FF0028E5
:1065BC00F9D0A368002BF5D122681370F2E737B538
:1065CC000D46114601920446FFF7E5FF019A28B9E2
:1065DC002046FFF7C9FF204603B030BDA260294614
:1065EC00206801F043F92268A3680021D154F2E736
:1065FC00002313B5C0E9003304468360037341B133
:10660C000846019101F076F9019902462046FFF700
:10661C00D6FF204602B010BD13B5044659B108464A
:10662C00019101F067F9019902462046FFF7C7FF77
:10663C00204602B010BDFFF797FFF9E710B50446EE
:10664C00006808B1FFF724FC204610BD10B5836824
:10665C00044613B1032201469847204610BD0000A2
:10666C0010B5064C002320462360FFF709FC20469A
:10667C00034A0449BDE8104000F0CEBF68E6032091
:10668C0014E5032049660D00F8B506460D468F1833
:10669C000024BD420CD0336815F8011B9B683046B2
:1066AC009847031E01DB1C44F3E7002C08BF1C4673
:1066BC002046F8BD13B50446084659B1019101F0C6
:1066CC0019F923680199DB680246204602B0BDE83F
:1066DC001040184702B010BD08B5FFF7EBFF08BD1E
:1066EC0003689B68184738B50D210546FFF7F8FF7E
:1066FC000A2104462846FFF7F3FF204438BD38B57D
:10670C000546FFF7D7FF04462846FFF7ECFF204469
:10671C0038BD30B58BB000238DF82430012A98BFDA
:10672C000A2209AC0D46B1FBF2F101FB125303F046
:10673C00FF03092B94BF30333733DBB2AA4204F882
:10674C00013DEFD92146FFF7B5FF0BB030BD2DE968
:10675C00F04186B000AF05460E46381D1421144694
:10676C003B60FFF7B9FD13280ED8391D2846FFF7FB
:10677C00A1FF04461EB12846FFF7B5FF044420468E
:10678C001837BD46BDE8F08100F1080323F007037C
:10679C00E846ADEB030D2246411C3B686846FFF70B
:1067AC009BFD69462846FFF785FF0446C546E1E791
:1067BC00002340681A461946FFF726BD014B024AD2
:1067CC001A6070476CE60320D0840D00024B1A68E7
:1067DC00024B1A60704700BFACE4032070E6032044
:1067EC000021FFF7CDBC10B50446FFF72FFF204664
:1067FC0010BD00000348044A04490023836000F0E4
:10680C000BBF00BF74E6032014E50320F3670D00F3
:10681C00014B1860704700BFB0E4032008B50B4B68
:10682C0043B100F071F903681B699847002801DD3A
:10683C00AFF30080064B43B100F0E4F903681B6929
:10684C009847002801DDAFF3008008BD0000000070
:10685C000000000008B5FFF7E1FFFFF7E9FA014B74
:10686C00186008BDD4E703200248034A0349121AF2
:10687C0000F0FCBF00F4032004F40320A0870D00FB
:10688C0007B5002300931A466FF07701FFF792FCCF
:10689C0003B05DF804FB000007B543880A2B08D051
:1068AC00502B0BD1094B1B684BB103B05DF804EBBB
:1068BC001847FFF7E5FF03B05DF804FB00230093D6
:1068CC001A466FF07701FFF775FCF4E788E60320B2
:1068DC0038B5124C1248134D0021FFF70DFD2368FB
:1068EC00AB42114B0CBF012200221A7002D0FFF7F1
:1068FC00BBFF2560FFF78CFA044600F0CDFF0B4B75
:10690C0013B12046AFF3008000210848FFF7C4FC08
:10691C00BDE8384006480021FFF742BC00F40320D4
:10692C001D680D001E1C279A84E603200000000041
:10693C00A5680D00704710B51821044600F071FED3
:10694C00204610BDF0B5037D062B8DB00E4600F130
:10695C0004074FF0000412D000F1080515F8011DD2
:10696C000A223046FFF7D5FEAF42044419D0002C62
:10697C00F4D02E213046FFF7B3FE0444EEE72F236C
:10698C006A4639460A208DF80040FFF789FA6846B6
:10699C0000F0B0FF33680246DB6869463046984722
:1069AC00044620460DB0F0BD10B5054B044611222F
:1069BC0040F8043B002100F067FF204610BD00BFEB
:1069CC00F8840D000346074A10B543F8042B01F177
:1069DC00100251F8044B43F8044B9142F9D10A7858
:1069EC001A7010BDF8840D00037D042B04D140688F
:1069FC00003818BF01207047062B07D143683BB9FC
:106A0C0083682BB9C3681BB90069F1E70020704794
:106A1C000120704710B59DF8084044EA032343EA6F
:106A2C00024242EA016104234160037510BD00007B
:106A3C0013B5054B0360CB7800938B784A780978B3
:106A4C00FFF7E8FF02B010BDF8840D0041747047E9
:106A5C00704708B50021007CFFF762FB40EAE0704C
:106A6C0008BD08B50121007CFFF75AFB40EAE07035
:106A7C0008BD08B5007CFFF74BFB20EAE07008BDB1
:106A8C0008B5007CFFF73CFB20EAE07008BD13B5AD
:106A9C000446007C0191FFF73BFB0028019901DCC7
:106AAC00607C20B1207CFFF743FB20EAE07002B051
:106ABC0010BD007CFFF744BB10B51421044600F058
:106ACC00B0FD204610BD000010B54FF47A7304469B
:106ADC0008460021C4E90113044B236001232074F0
:106AEC0063741146FFF7FCFA204610BD0C850D00AF
:106AFC00007C0022FFF7FCBA10B5142204460021DA
:106B0C0000F0C2FE204610BD10B5104C88B003A892
:106B1C00FFF7F2FF2178BFF35B8F11F0010111D168
:106B2C0020460191FDF7C2FA019958B103AA084811
:106B3C00FFF7CAFF2046FDF7BEFA064A064904488D
:106B4C0000F06AFD024808B010BD00BF8CE60320BF
:106B5C0090E6032014E503205D6A0D007047417434
:106B6C00704708B5007CFFF7EBF920EAE07008BD30
:106B7C0008B5007CFFF7BCF920EAE07008BD08B549
:106B8C00007CFFF7C5F940EAE07008BD08B5007C51
:106B9C00FFF7B6F940EAE07008BD007CFFF7C0B91A
:106BAC0037B5457C04462DB1207C03B0BDE83040A0
:106BBC00FFF796B9007C0191FFF7C2F90028019903
:106BCC00F2DC284603B030BD10B51421044600F0A9
:106BDC0028FD204610BD000010B54FF0000C0446F7
:106BEC00084611464FF47A72C4E901C2044A226085
:106BFC000122207462741A46FFF76AF9204610BD10
:106C0C003C850D0013B50E4C2178BFF35B8F11F052
:106C1C00010112D120460191FDF748FA019960B1AA
:106C2C00084A094B0948FFF7D7FF2046FDF743FAFE
:106C3C00074A0849054800F0EFFC044802B010BDB3
:106C4C00A4E60320A8E603202CE70320B0E70320EA
:106C5C0014E50320696B0D007047F8B50646154620
:106C6C000C468F18BC4206D0336814F8011B9B6885
:106C7C0030469847F6E72846F8BD007C0022FFF71F
:106C8C0087B9007C0021FFF78BB9007C0021FFF74E
:106C9C008FB9007C0021FFF793B9007C0021FFF72E
:106CAC0097B910B51421044600F0BBFC204610BD6A
:106CBC0010B54FF47A73044608460021C4E9011359
:106CCC00034B236020741146FFF792F9204610BD48
:106CDC006C850D00007C0022FFF73AB90023007C84
:106CEC001A461946FFF73CB9007C0022FFF740B961
:106CFC00C9B2FFF7F9BF007C0022FFF741B90121AF
:106D0C00FFF7F9BF13B503688DF80710DC6B012290
:106D1C004FF0FF330DF10701A04702B010BD10B4C6
:106D2C000368DC6B4FF0FF33A4465DF8044B6047FF
:106D3C0013B5134602688DF80710D46B0DF10701DB
:106D4C000122A04702B010BD704738B543691A68DC
:106D5C00002A054610DAB3F88620B3F884309A423C
:106D6C000AD103681B699847044628B92B68284642
:106D7C00DB6A9847204638BD0120FCE74369186858
:106D8C00C043C00F70477047064B994210B500F1D5
:106D9C000C0405D0084600F049FC002808BF00246C
:106DAC00204610BDC8840D0010B5AC21044600F07F
:106DBC0038FC204610BDFDF76AB92DE9F0414FF0C3
:106DCC00000886B01D46C0F8048004460E461746DF
:106DDC004146102202A800F057FD6B1C09D04FF45D
:106DEC007A70B5FBF0F3CDE9023800FB135358432E
:106DFC000490606910230093006802AB41F2050215
:106E0C0040F6FF71FFF7FCF8002807DAFFF76CFA81
:106E1C0003686360002006B0BDE8F0816069002360
:106E2C0000683A463146FFF70BF9031EEEDB1846B5
:106E3C00F1E7000038B584690A4B036005467CB164
:106E4C006368013B63605BB9236820469B68984785
:106E5C00A368013BA3601BB923682046DB689847F5
:106E6C00284638BDC8850D0010B50446FFF7E2FF73
:106E7C0020461C2100F0D5FB204610BD70B54D6995
:106E8C00054B04468C3544F8043B06460FCD0FC425
:106E9C002B682370304670BDF8840D0010B5436923
:106EAC00B3F88620B3F884309A42044605D063695F
:106EBC00B3F884201344187910BD03681B699847F4
:106ECC000028F4D14FF0FF30F6E710B54369B3F862
:106EDC008620B3F884309A42044608D06369B3F82C
:106EEC008420511CA3F884101344187910BD036836
:106EFC001B6998470028F1D14FF0FF30F6E7F8B541
:106F0C0043691746B3F88620B3F884309A42054695
:106F1C000E4616D06969B1F88430B1F88640E41A8F
:106F2C00BC4228BF3C46043322461944304600F08C
:106F3C009DFC6A69B2F884302344A2F88430204660
:106F4C00F8BD03681B6998470028E3D14FF0FF3464
:106F5C00F5E742690023A2F884304269A2F8863032
:106F6C0070472DE9F0411F4603680C46DB6A8AB076
:106F7C00054616469847237DD5F81480042B0CBF84
:106F8C0002200A2006220121FFF762F8C8F800004F
:106F9C006B691B68002B08DA2B682846DB6A002417
:106FAC00984720460AB0BDE8F0812846FFF7D1FF8C
:106FBC00B7B1002303A9F8B20393ADF81030FEF774
:106FCC001FFF0028E8D1686906230093006803AB13
:106FDC0041F20B0240F6FF71FFF712F80028DBD1EB
:106FEC001C22002103A800F04FFC237D042B1DD193
:106FFC004FF407733046ADF80C30FEF761FFADF877
:10700C000E006068FEF754FF04906B691C22186830
:10701C0003A9FFF705F80028BED104340FCC6D6925
:10702C008C350FC523682B700124BAE740F61C235E
:10703C003046ADF80C30FEF743FF05AEADF80E0050
:10704C00231D04F1140718685968324603C208332B
:10705C00BB421646F7D1D8E730B54269B2F8863054
:10706C008BB004462BB1B2F884209A4201D1FFF7C1
:10707C0070FF61690868002818DBB1F886507F2D15
:10708C0014D804310823C5F180022944FEF7D0FF3F
:10709C00002813DD6369B3F886200AB9A3F88420AD
:1070AC006369B3F886201044A3F886006369B3F8CB
:1070BC008600B3F88430C01A0BB030BDFFF714F95A
:1070CC0003680B2BF2D0FFF70FF903680B2BEDD0F5
:1070DC0020230025CDE90235FFF706F9036801935B
:1070EC00084B0949009302AA2B463220FFF738F8C7
:1070FC0063691868FEF78CFF63694FF0FF321A6002
:10710C00D4E700BF93850D008C850D0010B5436945
:10711C0004461868002801DBFEF77AFF63694FF01C
:10712C00FF321A606069112200218C3000F0ACFB38
:10713C002046BDE81040FFF70CBF10B500230446F5
:10714C000160C0F884308830FFF72EFC204610BD5B
:10715C0073B500234FF47A72C0E901320E4A036111
:10716C00026043610446AC200191FCF78CFF051EC4
:10717C0005F10C0608D00123C5E90133074B019931
:10718C002B603046FFF7D9FF2046C4E90565FFF7B1
:10719C00E0FE02B070BD00BFC8850D00AC850D00CF
:1071AC0010B54FF0FF310446FFF7D2FF204610BD5B
:1071BC0010B504460068002801DBFEF729FF2046C5
:1071CC0010BD0C30FFF7F4BF2DE9F043984603686F
:1071DC0093B00D460024DB6A0646174698472846AE
:1071EC006B46224621460094FEF7E2FD0546002838
:1071FC0063D1009B002B4BD05B69002B48D006A8B9
:10720C00FFF7D2FB009B5C696378022B04D1211D34
:10721C0006A8FFF793F926E00A2B24D11122294660
:10722C0001A800F031FBA368002B38D004F108034F
:10723C000DF1040C183418685968624603C20833FF
:10724C00A3429446F7D1062301A90CA88DF814305B
:10725C00FFF7B8FB0DF1340CBCE80F0007AC0FC402
:10726C00DCF80030237006A8FFF7BEFB80B1336852
:10727C0007ADD3F82090124B0C930FCD0DAC0FC46F
:10728C002B6823703A4643460CA93046C84705463E
:10729C000098FEF785FD284613B0BDE8F083E3683F
:1072AC00002BC3D14FF6FF70D4F81090FEF700FE00
:1072BC008145BBD104F11401AAE72546E8E700BFDC
:1072CC00F8840D00002240681146FEF795BF00229D
:1072DC0040681146FEF7B0BF002240681146FEF729
:1072EC00BBBF40680022FEF7AFBF4068002281F0B0
:1072FC000101FEF799BF002340681A461946FEF7B4
:10730C008BBF002240681146FEF766BF4068002222
:10731C000221FEF769BF002340681A46FEF754BFEE
:10732C00024B04225A60024A1A607047C4E70320D9
:10733C0014860D00002340681A46FEF745BF4068CE
:10734C0000220221FEF750BF002240681146FEF7D2
:10735C0043BF002240681146FEF74EBF0023406831
:10736C001A461946FEF750BF002340681A461946C4
:10737C00FEF752BF40680021FEF776BF406800213F
:10738C00FEF77ABF4068002281F00101FEF74CBF86
:10739C0040680022FEF758BF002240681146FEF7F5
:1073AC005BBF002240681146FEF746BF2DE9F04353
:1073BC00002495B016460D460746FFF7F5FA214610
:1073CC0018220EA8009400F05FFA4023CDE90C348B
:1073DC0021466B460CAA3046FEF7EAFC0446002810
:1073EC004CD1024601216868FEF706FF0221804657
:1073FC0022466868FEF700FF009E81462146002E5B
:10740C003CD000293AD17368022B03D00A2B11D03F
:10741C00F669F4E7B8F1000F0AD0716906A80431D7
:10742C0007ADFFF705FB0FCD3C1D0FC42B68237078
:10743C004146EDE7B9F1000F01D14946E8E774691F
:10744C00102201A800F020FA06238DF8143001ADAB
:10745C0004F108031834186859682A4603C2083323
:10746C00A3421546F7D101A906A807ADFFF7AAFA62
:10747C000FCD3C1D0FC42B682370DEE70098FEF780
:10748C008FFC384615B0BDE8F0830000024B034A70
:10749C001A6000225A607047CCE7032050860D001A
:1074AC00232813B502D9002002B010BDA0F10B03A4
:1074BC00022B1AD8174C2178BFF35B8F11F0010106
:1074CC000BD120460191FCF7F1FD019928B112482E
:1074DC00FEF75EFF2046FCF7EEFD0F4B1878FEF72B
:1074EC00D7FD0028DFD10120DEE7012809D800F004
:1074FC006BF80021007CFEF773FD80F00100C0B238
:10750C00D2E709380128EED8FFF77CFB007CFEF7A8
:10751C000FFDF2E744E6032048E60320232838B5A4
:10752C0004460D460AD8FF2908D0FFF7B9FF28B149
:10753C0029462046BDE83840FEF742BC38BD38B578
:10754C0004460D46FEF744FCFF2810D0062804D84C
:10755C004D2323FA00F0C30709D42046FFF7A0FF00
:10756C0028B129462046BDE83840FEF739BC38BD65
:10757C0010B50446FEF72CFC031FDBB2012B08D917
:10758C002046FFF78DFF20B12046BDE81040FEF7E6
:10759C002FBC002010BD000038B5002320254380EF
:1075AC00142304460380856005610649284600F0D3
:1075BC003AF804496060284600F035F8E06020464F
:1075CC0038BD00BF84860D0030B50F4D2978BFF350
:1075DC005B8F11F0010487B013D12846FCF766FDD0
:1075EC0078B101A8FFF7D8FF01AA21460748FFF799
:1075FC005FFB2846FCF75FFD054A0649034800F08F
:10760C000BF8024807B030BDD8E70320DCE70320B5
:10761C0014E50320656C0D000B460146184600F07E
:10762C0017B9FCF734BDFCF730BD0000014900F080
:10763C00F9B800BFA0860D007FB500241023CDE95A
:10764C000234036800949E698DF8044015466B461D
:10765C001268B0479DF8043003F00603062B03BFF5
:10766C00009B2B600120204604B070BD0098904216
:10767C0014BF01200620704710B5034B036004466D
:10768C0000F0CDF8204610BDE0860D0010B5044684
:10769C00FFF7F2FF20460821FFF7C3FF204610BD7D
:1076AC002DE9F0411F46DDE90834DDF818809845D6
:1076BC000646154607D1079900F0B4F818B1657164
:1076CC000020BDE8F0813946304600F0ABF80028C8
:1076DC00F6D00123C4F800802571A371F0E738B50A
:1076EC0015461C4600F09EF820B10823E3600623E3
:1076FC002560237138BD73B505460C4601921E46B4
:10770C0000F090F850B9032E08D82368019A5B69F1
:10771C002946204602B0BDE87040184702B070BD43
:10772C0010B5034B03600446FFF7A6FF204610BDBF
:10773C0040870D0010B50446FFF7F2FF20460C21E0
:10774C00FFF76FFF204610BDF7B5089F974205461F
:10775C000E4614460AD0A86802680897156A314686
:10776C002246AC4603B0BDE8F04060471946019391
:10777C0000F058F8019B0028EDD0062003B0F0BDB6
:10778C002DE9F14F0D461946DDE90A4BDDE90CA652
:10779C0081461746984600F045F890B1002D3460AC
:1077AC00377109DB61198A450CBF06210121B171C2
:1077BC00002001B0BDE8F08F0235F9D10123B3717F
:1077CC00F6E7544506D15946484600F02BF808B167
:1077DC007771EDE7D9F808000368CDE90CA6CDE97F
:1077EC000A4BDC693A4643462946A44601B0BDE83B
:1077FC00F04F60472DE9F04107460C4615461E46F2
:10780C00FFF76DFF48B9B86803689F692A4633468D
:10781C002146BC46BDE8F0416047BDE8F0817047A9
:10782C0000207047814208B50ED0406803782A2B9F
:10783C000CD049680B782A2B08BF013100F050F8A6
:10784C00B0FA80F0400908BD0120FCE70020FAE7FF
:10785C0010B5054C13462CB10A4601460220AFF375
:10786C00008010BD2046FCE7000000000A44914255
:10787C0000F1FF3300D1704710B511F8014B03F83C
:10788C00014F9142F9D110BD02440346934200D1FD
:10789C00704703F8011BF9E738B50D4B1D68AB6B4E
:1078AC0004467BB91820FEF7FFFC0A4A0A4BA86372
:1078BC00C0E90023094B83600B2383810122002341
:1078CC00C0E90423AB6B00221C615A6138BD00BFB8
:1078DC00B0E403200E33CDAB34126DE6ECDE0500C4
:1078EC0010F8012B11F8013B012A28BF9A42F7D05E
:1078FC00D01A7047034613F8012B002AFBD1181A33
:10790C00013870471D400D0059400D0081400D009D
:10791C0085400D00000000002573006D61646C69EA
:10792C006273006C61622E74686577636C2E636F92
:10793C006D0064656661756C7420004D5342004C9B
:10794C005342003C53504953657474696E677320FD
:10795C0064656661756C743E003C535049536574A4
:10796C0074696E67732025732575202573204D4F20
:10797C00444525753E0000000000003E5B4F5B3E19
:10798C003E6B4F6B3E1C3E7C3E1C183C7E3C181CD8
:10799C00577D571C1C5E7F5E1C00183C1800FFE7CF
:1079AC00C3E7FF0018241800FFE7DBE7FF30483A75
:1079BC00060E2629792926407F050507407F0525D7
:1079CC003F5A3CE73C5A7F3E1C1C08081C1C3E7F5F
:1079DC0014227F22145F5F005F5F06097F017F0026
:1079EC006689956A606060606094A2FFA294080446
:1079FC007E040810207E201008082A1C08081C2A67
:107A0C0008081E101010100C1E0C1E0C30383E38BE
:107A1C0030060E3E0E06000000000000005F000065
:107A2C000007000700147F147F14242A7F2A1223D6
:107A3C001308646236495620500008070300001CE6
:107A4C002241000041221C002A1C7F1C2A08083EEF
:107A5C000808008070300008080808080000606002
:107A6C000020100804023E5149453E00427F400070
:107A7C0072494949462141494D331814127F102748
:107A8C00454545393C4A4949314121110907364997
:107A9C00494936464949291E00001400000040346B
:107AAC000000000814224114141414140041221470
:107ABC000802015909063E415D594E7C1211127C97
:107ACC007F494949363E414141227F4141413E7FF8
:107ADC00494949417F090909013E414151737F08D8
:107AEC0008087F00417F41002040413F017F08147E
:107AFC0022417F404040407F021C027F7F040810DF
:107B0C007F3E4141413E7F090909063E4151215EBC
:107B1C007F09192946264949493203017F01033F50
:107B2C004040403F1F2040201F3F4038403F6314DF
:107B3C0008146303047804036159494D43007F41E1
:107B4C0041410204081020004141417F040201021E
:107B5C000440404040400003070800205454784043
:107B6C007F284444383844444428384444287F38D7
:107B7C005454541800087E090218A4A49C787F0859
:107B8C0004047800447D40002040403D007F1028D4
:107B9C00440000417F40007C047804787C08040495
:107BAC00783844444438FC1824241818242418FC2D
:107BBC007C08040408485454542404043F44243CD2
:107BCC004040207C1C2040201C3C4030403C442841
:107BDC001028444C9090907C4464544C44000836DB
:107BEC004100000077000000413608000201020449
:107BFC00023C2623263C1EA1A161123A4040207A69
:107C0C0038545455592155557941225454784221B0
:107C1C005554784020545579400C1E5272123955E7
:107C2C0055555939545454593955545458000045E4
:107C3C007C410002457D420001457C407D121112C1
:107C4C007DF0282528F07C545545002054547C5454
:107C5C007C0A097F4932494949323A4444443A3210
:107C6C004A4848303A4141217A3A42402078009DB6
:107C7C00A0A07D3D4242423D3D4040403D3C24FF62
:107C8C002424487E4943662B2FFC2F2BFF0929F611
:107C9C0020C0887E090320545479410000447D4162
:107CAC003048484A32384040227A007A0A0A727DBB
:107CBC000D19317D2629292F2826292929263048D6
:107CCC004D4020380808080808080808382F10C844
:107CDC00ACBA2F102834FA00007B000008142A14C8
:107CEC002222142A14085500550055AA55AA55AA43
:107CFC00FF55FF55FF000000FF00101010FF00148F
:107D0C001414FF001010FF00FF1010F010F01414EA
:107D1C0014FC001414F700FF0000FF00FF1414F40F
:107D2C0004FC141417101F10101F101F1414141F10
:107D3C0000101010F0000000001F101010101F1089
:107D4C00101010F010000000FF1010101010101088
:107D5C001010FF10000000FF140000FF00FF0000D7
:107D6C001F10170000FC04F414141710171414F44B
:107D7C0004F40000FF00F714141414141414F70086
:107D8C00F7141414171410101F101F141414F414D7
:107D9C001010F010F000001F101F0000001F140046
:107DAC000000FC140000F010F01010FF10FF141471
:107DBC0014FF141010101F00000000F010FFFFFF44
:107DCC00FFFFF0F0F0F0F0FFFFFF0000000000FFFD
:107DDC00FF0F0F0F0F0F3844443844FC4A4A4A3403
:107DEC007E02020606027E027E026355494163381A
:107DFC0044443C04407E201E2006027E020299A5CB
:107E0C00E7A5991C2A492A1C4C7201724C304A4D28
:107E1C004D303048784830BC625A463D3E4949495D
:107E2C00007E0101017E2A2A2A2A2A44445F444406
:107E3C0040514A444040444A51400000FF0103E095
:107E4C0080FF000008086B6B083612362436060FCC
:107E5C00090F06000018180000001010003040FF39
:107E6C000101001F01011E00191D1712003C3C3CB2
:107E7C003C000000000000000000000000000000BA
:107E8C000000000000000000D5490D0095660D00B3
:107E9C00A5400D00DD430D00DF430D0011440D0026
:107EAC00ED430D00FF430D0021430D00DD430D009C
:107EBC0009460D0083450D0029440D0067440D0053
:107ECC00A1440D00E7440D0085450D0003450D0050
:107EDC000000000000000000E54A0D00054B0D00FD
:107EEC00D5490D0095660D00DD540D00DD430D00E8
:107EFC00DF430D0011440D00ED430D00FF430D0059
:107F0C0021430D00DD430D0009460D0097560D0071
:107F1C002B5C0D00DD5B0D00A1440D00E7440D0052
:107F2C0085450D0003450D0000044D5154540400CB
:107F3C00064D5149736470030000000000000000FE
:107F4C00CD420D00BD420D00BF420D0000000000EF
:107F5C000001800000000000000000000380000011
:107F6C000000000000000007C0000000000000003E
:107F7C00000007C00000000000000000000FC0005F
:107F8C0000000000000000001FE0000000000000E6
:107F9C000000001FE00000000000000000003FE0B7
:107FAC000000000000000000003FF0000000000096
:107FBC00000000007FF0000000000000001FF87FB0
:107FCC00F0000000000000003FFE7FF00000000009
:107FDC000000003FFF7FF0000000000000001FFFCA
:107FEC00FBE0000000000000000FFFF9FFC00000E4
:107FFC00000000000FFFF9FFF80000000000000770
:10800C00FFF1FFFF00000000000003FC73FFFF8086
:10801C00000000000001FE3FFFFF80000000000098
:10802C0000FF1E0FFF000000000000007FFE1FFC81
:10803C00000000000000003FFFFFF80000000000FF
:10804C0000000FDFFFE0000000000000001F19FF20
:10805C00C0000000000000003F3CFF0000000000DA
:10806C000000007E7CF800000000000000007FFE95
:10807C007C0000000000000000FFFFFC000000007E
:10808C0000000000FFFFFE0000000000000000FFE9
:10809C00FFFE0000000000000001FFEFFE000000EA
:1080AC000000000001FFCFFE0000000000000003F4
:1080BC00FF07FE0000000000000003FC07FE0000AC
:1080CC00000000000003F003FE00000000000000B0
:1080DC00018000FE000000000000000000007E0097
:1080EC000000000000000000003E00000000000046
:1080FC00000000000C000000000000078000FC00E5
:10810C000003C0000000078001FC000003C0000059
:10811C0000078001FC000003C0000000078001E0A4
:10812C000000001E000000078001E00000001E009F
:10813C007FE3F79FF9FDE7787BDFC0FFF7FFBFFD1B
:10814C00FDFF787BDFC0FFF7FFBFFDFDFF787BDF16
:10815C00C0F0F787BC3DE1FF787BDE00F0F787BC11
:10816C003DE1F0787BDE0000F787803DE1E0787B35
:10817C00DE007FF7879FFDE1E0787BDE00FFF7876D
:10818C00BFFDE1E0787BDE00F0F787BC3DE1E078F5
:10819C007BDE00F0F787BC3DE1E0787BDE00F0F79A
:1081AC0087BC3DE1E0787BDE00FFF7FFBFFDE1E03F
:1081BC007FFBDFC0FFF7FFBFFDE1E07FFBDFC07C93
:1081CC00F3F39F3DE1E03E7BCFC0000000000000D8
:1081DC000000000000FFFFFFFFFFFFFFFFFFFFC0DD
:1081EC00FFFFFFFFFD68DB111A31C0FFFFFFFFFD32
:1081FC002B5AFB6AEFC0FFFFFFFFFD4B5B3B1A33B3
:10820C00C0FFFFFFFFFD6B5BDB6AFDC00000600081
:10821C0000000000000000000000000000E0000072
:10822C00000000000000000000000001E000000061
:10823C000000000000000000000001F00000000041
:10824C0000000000000000000003F000000000002F
:10825C00000000000000000007F00000000000001B
:10826C000000000000000007F80000000000000003
:10827C000000000000000FF800000003C0007E00AA
:10828C000001E0007F0FF800000003C000FE0000BA
:10829C0001E000FFEFF800000003C000FE00000149
:1082AC00E000FFFFF800000003C000F00000000F2A
:1082BC00007FFE7FC0000003C000F00000000F0034
:1082CC003FFE7FF83FF1FBCFFCFEF3BC3DEFE01F20
:1082DC00FE7FFF7FFBFFDFFEFEFFBC3DEFE01FC616
:1082EC00FFFF7FFBFFDFFEFEFFBC3DEFE00FE3C7B0
:1082FC00FE787BC3DE1EF0FFBC3DEF0007FF87FC62
:10830C00787BC3DE1EF0F83C3DEF0001FFFFF00070
:10831C007BC3C01EF0F03C3DEF0001F37FE03FFB60
:10832C00C3CFFEF0F03C3DEF0003E33F807FFBC387
:10833C00DFFEF0F03C3DEF0007E73C00787BC3DE4E
:10834C001EF0F03C3DEF0007FFBE00787BC3DE1E45
:10835C00F0F03C3DEF0007FFFE00787BC3DE1EF023
:10836C00F03C3DEF000FFFFE007FFBFFDFFEF0F067
:10837C003FFDEFE00FFFFF007FFBFFDFFEF0F03F64
:10838C00FDEFE00FF9FF003E79F9CF9EF0F01F3DB5
:10839C00E7E01FF1FF0000000000000000000000FB
:1083AC00001F80FF007FFFFFFFFFFFFFFFFFFFE0CD
:1083BC001C007F007FFFFFFFFEB46D888D18E0006E
:1083CC00001F007FFFFFFFFE95AD7DB577E000003D
:1083DC000F007FFFFFFFFEA5AD9D8D19E00000068D
:1083EC00007FFFFFFFFEB5ADEDB57EE000000000A5
:1083FC0000000000B1540D00C9540D00D5490D000A
:10840C0095660D00DD540D00DD430D00DF430D00BE
:10841C0011440D00ED430D00FF430D0021430D00F1
:10842C00DD430D0009460D0097560D002B5C0D0029
:10843C00DD5B0D00A1440D00E7440D0085450D00EA
:10844C0003450D000080C0E0F0F8FCFE00010307BE
:10845C000F1F3F7FAED580A8D300408D2000A1C850
:10846C00DB40A4A62EAFDA02818FDA1281DA028108
:10847C002200FF21000000000000000000000000AE
:10848C0073630D0069630D005F630D0055630D0090
:10849C0049630D003D630D0081730D0089730D0060
:1084AC0031630D0029630D001F630D0015630D0072
:1084BC00B9730D0000081018202830380000000097
:1084CC00000000006170700025592D256D2D25646C
:1084DC005425483A254D3A2553257A006173637427
:1084EC00696D6500000000000000000051690D007E
:1084FC0041690D0043690D00000000000000000000
:10850C005D6A0D00C56A0D009B6A0D0095660D0035
:10851C008D6A0D005F6A0D006F6A0D00BF6A0D0059
:10852C007F6A0D00596A0D00000000000000000079
:10853C00696B0D00D56B0D00AD6B0D0095660D00D4
:10854C007D6B0D00996B0D008B6B0D00A76B0D00F7
:10855C006B6B0D006F6B0D00000000000000000045
:10856C00656C0D00AF6C0D00876C0D00676C0D0019
:10857C008F6C0D00976C0D009F6C0D00A76C0D009F
:10858C00776972696E670072656376206572726FC7
:10859C0072203D2025640000000000000000000057
:1085AC00936D0D00B56D0D00CF710D00C36D0D00F9
:1085BC00956D0D000000000000000000416E0D00E4
:1085CC00756E0D00116D0D002B6D0D0065700D009D
:1085DC00D76E0D00A96E0D00556D0D006F6F0D005F
:1085EC00D5710D000B6F0D0019710D00576D0D003D
:1085FC00896D0D003D6D0D00C76D0D00896E0D0070
:10860C00000000000000000023730D0019730D0022
:10861C000F730D00D1720D00BD670D0003730D00BB
:10862C0081730D0089730D00F7720D00EF720D0050
:10863C00E5720D00DB720D00B9730D000000000037
:10864C000000000041730D004B730D0055730D00BD
:10865C005F730D0069730D0075730D0081730D0050
:10866C0089730D0091730D009D730D00A5730D00A2
:10867C00AF730D00B9730D0000537431395F537033
:10868C005F6D616B655F7368617265645F74616770
:10869C0000000000E0860D0085860D0040870D006F
:1086AC00B4860D0064870D004E31305F5F637878BF
:1086BC00616269763131375F5F636C6173735F74CC
:1086CC007970655F696E666F450000000000000000
:1086DC00A8860D0085760D0099760D002D780D007D
:1086EC002D780D0003770D0045760D00EB760D000F
:1086FC00AD760D0079760D0040870D0010870D00CA
:10870C00A8860D004E31305F5F63787861626976C0
:10871C003132305F5F73695F636C6173735F74795F
:10872C0070655F696E666F45000000000000000018
:10873C0004870D002D770D0041770D002D780D006D
:10874C002D780D0003770D0045760D0001780D0096
:10875C008D770D0055770D00E0860D006C870D00B0
:10876C00537439747970655F696E666F0000000030
:10877C0021420D007D630D000D650D006D660D0031
:10878C00C9670D00D9670D0001680D002D730D0030
:04879C0099740D00BF
:0487A00000000000D5
:1087A400E8840D00B4E40320000000000000000091
:1087B40000000000000000000000000000000000B5
:1087C40000000000000000000000000000000000A5
:1087D4000000000000000000000000000000000095
:1087E4000000000000000000000000000000000085
:1087F4000000000000000000000000000000000075
:0888040000000000000000006C
:10880C00FFFFFFFF00000102030405060708090A29
:10881C000B0C0D0E0F101112131415161718191A24
:08882C001B1C1D1E1F2028006B
:04883400785634122C
:04000003D000401CCD
:00000001FF
